:101C5800696E697420646F6E652C2073697A6520DB
:101C6800666C6173682025750A0A00000000000090
:101C7800000000000000000000000000000000005C
:0B1C8800000000000000000000000051
:1018740001100001120001110001130054000000C6
:101884000000000000000000000000000000000054
:10189400000000020E000002080000020A0000021C
:0B18A40014000002160000020C0000FF
:03003B00021F7130
:091F7100C0E0C0D075D000C0072B
:091F7A00AF86438480EF04F58674
:071F8300D007D0D0D0E032FE
:03002300021B1DA0
:101B1D00C0E0C083C082C0D0C0AC75AC0030992786
:101B2D00C299E511B51304C209801C74342513F54F
:101B3D0082E43400F583E0F599D2090513E513C36A
:101B4D009420400375130030981CC298741425100E
:101B5D00F582E43400F583E599F00510E510C394A2
:101B6D00204003751000D0ACD0D0D082D083D0E00F
:011B7D003235
:03000B00021917C0
:10191700C0E0C0F0C083C082C0D075D000C000C096
:1019270001C002C003C004C005C006C007758CF51E
:10193700758A96050DE50D7002050C050FE50F700C
:1019470002050EC394E7E50E9403400E750E00756D
:101957000F000509E50970020508C3E509943BE591
:1019670008940040267508007509000515E51570EF
:10197700020514AE14FFE4FCFD7BFE7AFFF9F8D3F1
:101987001206F15006751400751500D007D006D061
:1019970005D004D003D002D001D000D0D0D082D05F
:0619A70083D0F0D0E03215
:101CCD0020090EE4F513751101900034EFF0D2994F
:101CDD0022AE1174342EF582E43400F583EFF00E4C
:101CED00EEC394204002E4FEEE651360FBC2AC8EA1
:031CFD0011D2AC55
:011D000022C0
:10000E00120669FF600C121CCD740129F9E43AFA4C
:03001E0080EE224F
:071E25007FC8121E2C7FC8CC
:101E2C00EF6019000000000000000000000000003E
:0D1E3C000000000000000000001F80E422F4
:101F3700AD07AC06ED4C601543E110121E25121ECD
:0E1F4700257FC8121E2CED1D70EA1C80E722BB
:101C14004391A053925F43914043924053B1F743A1
:101C2400B20853B1FC53B2FC43B11043B210539504
:101C3400EF75AC01439210E4F5AC43950475AC0127
:101C44005392FBF5AC75AC0143B50375AC035392E9
:041C5400FCF5AC22CD
:07000300D2A9D2ACD2AF225A
:101EB200439C01539CEFC29FD29ED29C43B93053A4
:101EC200877F439C4043B940759AEF759BEF43B9B6
:021ED20080226C
:101DFF00E58954FC4401F58953A4FE53A3FB538991
:101E0F00FB5389F775AC0653A4EFE4F5AC758A96CE
:061E1F00758CF5D28C2247
:101ED400A2AF92008FE3E4F5E4C2AF75E50375E7C2
:101EE4008075E64675E6B900F5E5F5E7A20092AF20
:011EF40022CB
:101E4900A2AF9200C2AFE4F5E38FE48DE275E50439
:101E590075E78075E64675E6B900F5E5F5E7A20090
:021E690092AF36
:011E6B002254
:041DB100AB07AA06CC
:101DB500A2AF92008DE28AE38BE4C2AF75E50275AE
:101DC500E78075E64675E6B900E4F5E5F5E7A200B6
:021DD50092AFCB
:011DD70022E9
:101D5E00E4FC7D347F03121E497F34121ED4EC2422
:101D6E0000FFE43434FE74002CF582E43400F58375
:091D7E00E0FD121DB10CBC14E5DE
:011D87002239
:06003300EF90340093FF82
:0100390022A4
:101EF500E4FEAF0612003374002EF582E43400F5DB
:101F050083EFF00EBE14EB756B01756C00756D00FB
:011F150022A9
:101E6C00438540438590E58554FC4403F585E4F5B2
:101E7C00845385F75385DF43850475AC0753A4EF72
:031E8C00F5AC2290
:0D0026008F86E58430E7FB438480AF86229F
:101BCD0075E780E4F5E375E44C75E50575E6467556
:101BDD00E6B90043E2A075E50475E64675E6B90081
:101BED00F5E5F5E775C7507F64121E2C75E780E4A7
:101BFD00F5E375E44075E50475E21875E64675E69E
:071C0D00B900F5E5F5E7223F
:101F1600121C14121BCD121E6C121DFF121EB212C1
:101F26000003E5E154F84406F5E143E18043E1208E
:011F36002288
:0C1F8A00E4F510F512F511F513C2092260
:061B7E008B2B8A2C892D3F
:101B840078897C007D017BFF7A1C79737E007F203D
:101B9400120643753D01753E00753F897540007519
:101BA400410075422E852B43852C44852D45854067
:101BB40046854147854248AB3DAA3EA93F121D30A8
:091BC4007B017A00798902000E10
:061D88008B3D8A3E893FFD
:101D8E00E4FEC2B3AB3DAA3EA93F8E82758300121C
:101D9E000682FF12002674652EF8A6070EBE06E414
:021DAE00D2B3AE
:011DB0002210
:101C9300121F16121F8A7FE87E03121F377BFF7AFB
:101CA3001C7958752E00752F14121B7EC2F8D2F9B9
:101CB3007F887E13121F3743E110121E8F7F887EA9
:0A1CC30013121F37B2F8B2F980EDDA
:1014D3006865616465723A2000307825303258209F
:1014E300007461696C3A20000A00696E69742066B1
:1014F3006C617368206661696C0A00696E697420A7
:10150300666C617368204F4B0A006E6861206769DF
:10151300750A00616E203120706861740A00616E83
:1015230020676975206E650A003120706861740A4E
:10153300003220706861740A003320706861740A95
:1015430000534554205550204F4B210A0A0A005599
:101553002068643A20252E326620562C20007465BC
:101563006D705F55203D20252E37660A004920689F
:10157300643A20252E346620412C200074656D705A
:101583005F49203D20252E37660A00502068696593
:10159300752064756E673A20252E33662057200A1E
:1015A30000436F7320706869203A20252E3366202C
:1015B3000A0A005020686965752064756E673A20D1
:1015C300252E336620570A0A0073746172742063F0
:1015D3006865636B20737475636B0A0064656C7470
:1015E3006120503A20252E32660A004B4554205183
:1015F3005541540A000000000000000000000000F4
:1016030000000000000000000000000000000023B4
:061613000000035A5A5AC0
:1018AF0042005800004200600000420083000042E6
:1018BF0000800000420087000042008500004100C8
:1018CF0082004100660041005A0041005B00410068
:1018DF00670041007A0041007D00410079000665F4
:1018EF0000000000000042007E000042007B00006C
:1018FF004100780050006800000000000000000068
:07190F0000000000000000D1
:1017CF00121EF57BFF7A1479D3121B7EAB6BAA6CBA
:1017DF00A96D120669752E00F52F7BFF7A1479DC3F
:1017EF00121B7E7BFF7A1479E4121B7EAB6BAA6C03
:1017FF00A96D900013120682752E00F52F7BFF7ACC
:10180F001479DC121B7E7BFF7A1479EB121B7EABF3
:10181F006BAA6CA96D1206696455603D9000131296
:10182F00068264AA60337BFF7A1479ED121B7EABBC
:10183F006BAA6CA96D74551206AFAB6BAA6CA96D30
:10184F0090001374AA1206C1900011E41206C19001
:10185F00001274011206C180097BFF7A1479FE12FF
:05186F001B7E021D5E5E
:091F9600E4FF20B40280027F0187
:011F9F00221F
:051FA000AE0CAF0D22A4
:100FEA00E4F518F519121FA08E188F1943E1109015
:100FFA000060E518F0A3E519F0D3900059E09519BF
:10100A00900058E09518400F900060E0FFA3E09030
:10101A000058CFF0A3EFF0900058E0FEA3E0FFC322
:10102A00900061E09FFF900060E09EFED3EF940A7B
:10103A00EE94005003021148121F96900066EFF0DA
:10104A00701990005AE0B40112900083E518F0A3D9
:10105A00E519F090005B7401F0805D900066E06431
:10106A0001705590005AE0704F900080E0FEA3E0B6
:10107A00FFC39423EE9400401DEF9458EE9402505F
:10108A001590007AE0B40102801B90007D7401F093
:10109A00900067F0801DC3900081E0945890008012
:1010AA00E09402400E7BFF7A15790D121B7EE490C4
:1010BA00007AF0E490005BF090005BE060699000D9
:1010CA0083E0FEA3E0FFD39519EE9518401874FF4C
:1010DA009FFF74FF9EFEE5192FFFE5183E900080E2
:1010EA00F0A3EFF08017900083E0FEA3E0FFC3E5D2
:1010FA00199F900081F0E5189E900080F0C390003F
:10110A0081E094B0900080E09404401B90007D74CC
:10111A0001F090006704F0E5192444900084F0E59A
:10112A001834FD900083F0900066E090005AF09029
:10113A000060E0FFA3E0900058CFF0A3EFF090002A
:10114A007DE070030211DC900067E0B401197BFFB7
:10115A007A157916121B7E900087E518F0A3E51917
:10116A00F0900082E0805F900067E06402705E7B2E
:10117A00FF7A157921121B7E900070E0FCA3E0FD36
:10118A00A3E0FEA3E0FFAB6BAA6CA96D900001126D
:10119A00074A90000112071A90000912074A9000A4
:1011AA006CE0FCA3E0FDA3E0FEA3E0FF90000512C3
:1011BA00074A90000512071A90000D12074AE49098
:1011CA000082F090007A04F0E4900067F0E4900066
:1011DA007DF0900087E0FEA3E0FFD39519EE951805
:1011EA00401874FF9FFF74FF9EFEE5192FFFE51854
:1011FA003E900085F0A3EFF08017900087E0FEA3F1
:10120A00E0FFC3E5199F900086F0E5189E900085DF
:10121A00F0900082E0FF6048D3900086E0945890F6
:10122A000085E094024043EFB401087BFF7A157908
:10123A002C801C900082E0B402087BFF7A15793476
:10124A00800D900082E0B403097BFF7A15793C1285
:10125A001B7EE4900082F0900085F0A3F0A3800347
:0A126A00900087E518F0A3E519F0E5
:011274002257
:101D010078377C007D007BFF7A1579F87E007F06AD
:101D1100120643741AF4FF7537A875381DE4F539B6
:0F1D2100F53A753B558F3CFB7A007937021D88E8
:081A39008F2B8B2C8A2D892EC6
:101A4100E4F52F78307C00FD7BFF7A1579FEFE7F6F
:101A510006120643AB2CAA2DA92E90000112068274
:101A6100FF7E00120669FD7C00E52B24A8FBE43310
:101A7100CB2DFDEC3BCD2FFFEE3DFEAB2C900002BC
:101A81001206822FFFEFF4F536121D017530A8857D
:101A91002B31AB2CAA2DA92E120669F5329000012B
:101AA100120682F533900002120682F5348536352E
:091AB1007B007A007930021D88E7
:021619008F261A
:10161B00E4F52AF529F528F527F52B782C7C00FD28
:10162B007BFF7A167904FE7F06120643E5262458C3
:10163B00FFE433FEEFF4FD752C5885262DE4F52ED3
:10164B00F52FF530F531FB7A00792C121D88E52644
:10165B002458FFE433FE7C00EF2567FFEC3EFEEFE2
:10166B002568FFEC3EFEEF2569FFEC3EEFF4656A63
:10167B00706EAF68FDFE7808120707C004C005C086
:10168B0006C007AF67E4FCFDFE7810120707D00316
:10169B00D002D001D000EF4BFBEE4AFAED49F9EC4A
:1016AB0048F8EB4569F52AEAF529E9F528E8F52725
:1016BB007E007F067D007B007A007965120811E5BC
:1016CB00285480FDED6010E52AF52AE529F529E57A
:1016DB0028F52874FFF527AF2AAE29AD28AC2722B1
:1016EB007E007F067D007B007A007965120811E48D
:0416FB00FFFEFDFCF5
:0116FF0022C8
:021700008F2632
:10170200E4F52AF529F528F527F52B782C7C00FD40
:101712007BFF7A16790AFE7F06120643E5262458D5
:10172200FFE433FEEFF4FD752C5885262DE4F52EEB
:10173200F52FF530F531FB7A00792C121D88E5265C
:101742002458FFE433FE7C00EF2567FFEC3EFEEFFA
:101752002568FFEC3EFEEF2569FFEC3EEFF4656A7B
:101762007056AF68FDFE7808120707C004C005C0B6
:1017720006C007AF67E4FCFDFE7810120707D0032E
:10178200D002D001D000EF4BFBEE4AFAED49F9EC62
:1017920048F8EB4569F52AEAF529E9F528E8F5273D
:1017A2007E007F067D007B007A007965120811AF0A
:1017B2002AAE29AD28AC27227E007F067D007B0061
:0C17C2007A007965120811E4FFFEFDFCBE
:0117CE0022F8
:101F5500AB07AA06121FA0C3EF9BFFEE9AFEC3EFC5
:0C1F65009DEE9C40047F0180027F002262
:101ABA0078227C007D007BFF7A1679107E007F03F6
:101ACA0012064378257C007D007BFF7A1679137E07
:101ADA00007F0312064378287C007D007BFF7A167C
:101AEA0079167E007F031206437B007A0079257FF0
:101AFA001A121A397B007A0079287F1C121A397B4C
:101B0A00007A0079227F18121A397BFF7A157944F4
:031B1A00021B7E2D
:101275007F0412170090006212079E7525E1752400
:10128500087523847522389000681207AA435C3AD2
:10129500E17BFF7A157952900068E0FCA3E0FDA39D
:1012A500E0FEA3E0F5318E308D2F8C2E121B7E7B58
:1012B500FF7A15796185253185243085232F85228F
:1012C5002E121B7E7F647E00121F377F03121700CC
:1012D50090005412079E7525C57524917523857553
:1012E500223690006C1207AA3D8F5C297BFF7A1588
:1012F500797090006CE0FCA3E0FDA3E0FEA3E0F5AF
:10130500318E308D2F8C2E121B7E7BFF7A15797FC7
:1013150085253185243085232F85222E121B7E7F3E
:10132500647E00121F377F0612161990005C1207A3
:101335009E7525677524417523D275223A900070F4
:101345001207AA40FBD70A7BFF7A15798E900070A9
:10135500E0FCA3E0FDA3E0FEA3E0F5318E308D2F88
:101365008C2E121B7E7F647E00121F3790006CE06E
:10137500FCA3E0FDA3E0FEA3E0FF900068E0F8A376
:10138500E0F9A3E0FAA3E0FB120136A804A905AA37
:1013950006AB07900070E0FCA3E0FDA3E0FEA3E030
:1013A500FF12023F90007412079E7BFF7A1579A405
:1013B500900074E0FCA3E0FDA3E0FEA3E0F5318E10
:1013C500308D2F8C2E121B7E7F177EB77DD17C38FA
:1013D50090006CE0F8A3E0F9A3E0FAA3E0FB1202A9
:1013E500DC50159000701207AA00000000900074F0
:1013F5001207AA00000000227F0612161990005C51
:1014050012079E7525677524417523D275223A907A
:10141500005CE0FCA3E0FDA3E0FEA3E0FFEC12030B
:1014250049AB25AA24A923A82212013690007012DF
:10143500079E7BFF7A1579B6900070E0FCA3E0FD6E
:10144500A3E0FEA3E0F5318E308D2F8C2E121B7E8E
:10145500E4FFFEFDFC900070E0F8A3E0F9A3E0FADC
:10146500A3E0FB1202DC401D7F007E407D1C7C4614
:10147500900070E0F8A3E0F9A3E0FAA3E0FB120204
:10148500DC600C400A9000701207AA000000009072
:10149500006CE0FCA3E0FDA3E0FEA3E0FF90006884
:1014A500E0F8A3E0F9A3E0FAA3E0FB120136A804F3
:1014B500A905AA06AB07900070E0FCA3E0FDA3E038
:0D14C500FEA3E0FF12023F90007412079E8C
:0114D20022F7
:100D2E00E4FFFE7DB07C41900070E0F8A3E0F9A3F3
:100D3E00E0FAA3E0FB1202DC60025003020FD5AB17
:100D4E006BAA6CA96D90000112071AE4FBFAF9F870
:100D5E001202DC4003020FD590007BE0FEA3E0FF01
:100D6E00E4FCFD7BFA7AFFF9F81206F15007E490E5
:100D7E00007BF0A3F0AB6BAA6CA96D90001112066C
:100D8E00826003020FC590000112071AE4FBFAF904
:100D9E00F81202DC4003020FC5900078E070339029
:100DAE00007BE0FEA3E0FF7DDC7C05121F55EF709B
:100DBE0003020FE990007EE0FFA3E090007BCFF0EE
:100DCE00A3EFF09000787401F07BFF7A1579CC02D6
:020DDE000FC242
:100DE000E4F525F524F523F522AB6BAA6CA96D90EB
:100DF000000112071A900070E0F8A3E0F9A3E0FAEE
:100E0000A3E0FB1202DC60025003020F13AB6BAADB
:100E10006CA96D90000512071A90006CE0F8A3E031
:100E2000F9A3E0FAA3E0FB1202DC60025003020E19
:100E3000B1AB6BAA6CA96D90000512076E90006CA7
:100E4000E0FCA3E0FDA3E0FEA3E0FF120041AB6BDA
:100E5000AA6CA96D90000512076E12023FE4FBFA1E
:100E600079C87842120136E4FBFA7980783F1202A1
:100E7000DC503EAB6BAA6CA96D90000112076E901E
:100E80000070E0FCA3E0FDA3E0FEA3E0FF12004140
:100E9000AB6BAA6CA96D90000912076E12023FE4B9
:100EA000FBFA79C878421201368F258E248D238C67
:100EB00022AB6BAA6CA96D90000912071A90007002
:100EC000E0F8A3E0F9A3E0FAA3E0FB1202DC600281
:100ED0005003020F84AB6BAA6CA96D90000D120732
:100EE0001A90006CE0F8A3E0F9A3E0FAA3E0FB128B
:100EF00002DC60025003020F84AB6BAA6CA96D90F8
:100F0000000912071A90000112074A90000D1207FB
:100F10001A806BAB6BAA6CA96D90000112071A9036
:100F20000070E0F8A3E0F9A3E0FAA3E0FB120041AF
:100F3000AB6BAA6CA96D90000112076E12023FE420
:100F4000FBFA79C87842120136E4FBFAF9784012CC
:100F500002DC6030402E900070E0FCA3E0FDA3E0D6
:100F6000FEA3E0FFAB6BAA6CA96D90000112074ACB
:100F700090006CE0FCA3E0FDA3E0FEA3E0FF900086
:100F80000512074A7BFF7A1579DF852531852430E4
:100F900085232F85222E121B7E7F9A7E997D197CB8
:100FA00040AB25AA24A923A8221202DC403BAB6B4C
:100FB000AA6CA96D90001174011206C17BFF7A150D
:050FC00079EE021B7E2A
:100FC50090007EE0FFA3E090007BCFF0A3EFF0223E
:100FD50090007EE0FFA3E090007BCFF0A3EFF0E46C
:050FE500900078F022ED
:101E8F00121FA090007EEEF0A3EFF0900079E070AB
:101E9F000C1217CF121ABA9000797401F012127542
:031EAF00020D2EF3
:10003E000203BCE86480F8E933E83360110460F031
:10004E00ED33EC337009E8FCE9FDEAFEEBFF220428
:10005E0060DED3EB9FEA9EE99DE8C2E78CF0C2F723
:10006E0095F0400CE8CCF8E9CDF9EACEFAEBCFFBEF
:10007E0012038785D0F05804700320D5B3E80470BE
:10008E00075002B2D50203C692D5EC0460F7E4CC59
:10009E00C0E0C398F8603B94186008400DD0E0FBB8
:1000AE0002039EE4FBFAC9FC8028E830E406E4C9AA
:1000BE00FBE4CAFCE830E305E4C9CACBFCE854070C
:1000CE006010F8C3E913F9EA13FAEB13FBEC13FC17
:1000DE00D8F130F52FC3E49CFCEF9BFFEE9AFEEDBA
:1000EE0099FDD0E0FBEF4E4D4C701222DB03020364
:1000FE00C3EC2CFCEF33FFEE33FEED33FDED30E7BA
:10010E00EB02039EEF2BFFEE3AFEED39FDD0E0FB46
:10011E0050130BBB00030203C6ED13FDEE13FEEFEF
:08012E0013FFEC13FC02039E19
:10013600EC4D6011E8497017ED33EC3304600DE4C3
:10014600FCFFFEFD22E933E8330470F80203BC121B
:10015600038758046009E4CC24815006285009021C
:1001660003C62840030203C3C0E0EB4A7044B980CB
:1001760006D0E0FB0203B2EF4E701CBD8008EBFF19
:10018600EAFEE9FD80EBE98DF0A4FEE5F002021F30
:10019600E9CDF9EAFEEBFFEF89F0A4FCE5F0CE89A4
:1001A600F0A42EFFE435F0CD89F0A42DFEE435F061
:1001B6008067EF4E7005BD80D780C3EF8BF0A4AC8F
:1001C600F0EE8BF0A42CFCE435F0F8EF8AF0A42CCA
:1001D600E5F038FCE433CB8DF0A42CFCE5F03BF8DD
:1001E600EE8AF0A42CFCE5F038F8E433CF89F0A4CD
:1001F6002CFCE5F038CF3400CE89F0A42FFFE5F0D3
:100206003EFEE433C98DF0A42EFEE5F039CD8AF02A
:10021600A42FFFE5F03EFEE43DFD33D0E0FB5007A2
:100226000BBB000F0203C6EC2CFCEF33FFEE33FED4
:06023600ED33FD02039E02
:10023C000203C6EC5D046005E8590470030203BCBC
:10024C00120387580460F6EC4860F2EC7004FDFE73
:10025C00FF22C860DB2481C85009C3986002500695
:10026C000203C39850CAF582E9294B4A7005AB8248
:10027C000203B275F0007C1A7880C3EF9BEE9AED06
:10028C0099400DC3EF9BFFEE9AFEED99FDE842F00D
:10029C00DC23ACF0D0E0FFD0E0FED0E0FDAB822060
:1002AC00E7101BEB60BAEC2CFCEF33FFEE33FEEDEA
:1002BC0033FD02039EE803F830E705C0F075F0004B
:1002CC00EF2FFFEE33FEED33FD40B830E7C280AACE
:1002DC0074F8CC6480CCC86480C8F582046043C3D5
:1002EC00EB9FF5F0EA9E42F0E99D42F0E89C45F068
:1002FC0060305018E5825FFFE582F42B5582FB508D
:10030C00210ABA001D09B90019088016E5825BFBA9
:10031C00E582F42F5582FF50090EBE00050DBD007D
:10032C00010CC3EB9FF5F0EA9E42F0E99D42F0E828
:0D033C009C45F06007CC4820E701B3EC229F
:1003490075F020800E75F010800575F0087D007E2F
:10035900007F003392D530D5031206E3EC33401009
:10036900EF33FFEE33FEED33FDEC33FCD5F0ED2238
:0E037900E5F0247EA2D513CC92E7CDCEFF2274
:101D300085434C85444D85454EEBC546FBEAC5477A
:101D4000FAE9C548F97F09784F120669F60809E9EA
:0E1D500070010ADFF4AB46AA47A94802091B3E
:10038700E9D2E7C933E833F892D5EDD2E7CD33ECBC
:0703970033FC5002B2D52235
:10039E00EC30E7100FBF000C0EBE00080DBD0004C0
:1003AE000BEB6014A2D5EB13FCED92E7FD2274FF6C
:1003BE00FCFDFEFF22E480F8A2D574FF13FC7D80C5
:0303CE00E480EFD9
:1008BF00E560244CF8E60560227849300702784C51
:1008CF00E475F0011207DB0206692000EB7F2ED2E0
:1008DF00008018EF540F2490D43440D4FF30040B11
:1008EF00EF24BFB41A0050032461FFE561600215C5
:1008FF00610564E5647002056330070D7849E4759E
:10090F00F0011207DBEF0206AF021DD87403D20706
:10091F008003E4C207F5608B498A4A894BE4F5618D
:10092F00F563F564E56160077F201208FA80F575BD
:10093F0062FFC201C200C202C203C205C206C208E0
:10094F001208C8FF700D3007057F0012090BAF6446
:10095F00AE6322B4255FC2D5C2041208C8FF24D0EB
:10096F00B40A00501A75F00A786130D50508B6FF41
:10097F000106C6A426F620D5047002D20380D9241E
:10098F00CFB41A00EF5004C2E5D204020BF8D20123
:10099F0080C6D20080C0D20280BCD2D580BAD20528
:1009AF0080B47F201208FA2002077401B56100405D
:1009BF00F11208BFFF1208FA020933D208D20680DB
:1009CF00951208BFFB1208BFFA1208BFF94A4B7005
:1009DF000679EF7A0C7BFF20022EE561602A7E00FC
:1009EF008E8275830012068260060EEE656270F0CD
:1009FF00C2D5EBC0E0EAC0E0E9C0E0EE120C58D07F
:100A0F00E0F9D0E0FAD0E0FB120669FF60AAEBC074
:100A1F00E0EAC0E0E9C0E01208FAD0E02401F9D022
:100A2F00E03400FAD0E0FBE5620460DCD562D980E7
:100A3F0087D20280A2120C3B60F7E56270010412AC
:100A4F0003D1A962600DE562600914F562120CE230
:100A5F00EF60F3EA30E702F404C3995077EAF42524
:100A6F00620430E701E404F562800D120C3B60C1B3
:100A7F00EA056225621203D1EA785FF630E701E4F6
:100A8F00256204D5620420050114120C58E4C0E05D
:100A9F00120CE2785FE6601320E70714F61208E203
:100AAF00802204F6D0E014C0E07F001208E2E56275
:100ABF0060071208D91562800B3005031208D9D0D0
:100ACF00E0020933D0E00480C5120C3B60A0E56260
:100ADF00041203D1785FEAF6E56220050260010493
:050AEF002404120C5864
:100AF40074FF04C0E0120CE21208E2E56220050271
:100B040060031208D9D0E0B562E87F451208EC789A
:100B14005FE67F2B30E7047F2DF404C0E01208FA6F
:100B2400D0E075F00A84C0F01208E3D0E01208E3C4
:100B3400020933791080027908C206C2088008D2FB
:100B4400D5790A8004790AC2D5E562047002F56297
:100B5400E4FAFDFEFF1208BFFC7B08200113120813
:100B6400BFFD7B1030000A1208BFFE1208BFFF7BD6
:100B740020EC3382D592D55013C3E43000069FFF96
:100B8400E49EFEE42001039DFDE49CFCE4CBF8C25A
:100B940001EC700CCFCECDCCE824F8F870F38017BC
:100BA400C3EF33FFEE33FEED33FDEC33FCEB33FBED
:100BB400994002FB0FD8E9EB300105F8D0E0C448B6
:100BC400B201C0E00AEC4D4E4F78207B0070C2EABF
:100BD400B5620040BCC0E0120C5AD0F0D0E0200155
:100BE40004C4C0E0C4B201C0F01208E3D0F0D5F0F0
:100BF400EB0209331207EB09D0530B375809A14C08
:100C0400099D420B3B4F0B43440B434909B6430B2D
:100C140049550A7A460AD8450A44470D0F5009A592
:100C24002D09A92E09CC2B09AD2309CA200CF82AB9
:100C3400096548000009C4E562B4FF037562061241
:100C440008BFFC1208BFFD1208BFFE1208BFFF78E0
:100C540058020400790AA2D5200314300509B910FA
:100C6400020404B9080104A2D5200602500104209C
:100C740002689202B561005034C0E07F203003194D
:100C84007F30A20272067205500F120CB1C202C26A
:100C940006C205C2087F30800F300503E9C0E012A8
:100CA40008FA300503D0E0F9D0E0B561CC3005177F
:100CB4007F30B9100C1208FA7F583004077F78800F
:100CC40003B908031208FA3002057F2D0208FA7FDF
:100CD400202008F87F2B2006F322920280CF7F0089
:100CE400B4070050052458F8E6FF22286E756C6C92
:100CF4002900D2011208BF3001F8C201786130D551
:100D04000108F60209652D504349581208BF24030F
:100D1400B405004001E4900D0A931208EB743A12F2
:0A0D240008EBD203756104020B37DF
:1003D100F920E72824F950037907E4F42402FB18F3
:1003E100DBFDE624FB5014E9600DE4F618E604F6A3
:0F03F100B40A08E4F6D9F57401F60A22C2D5223F
:10040000ED33EC3392D5FA602AB4FF33EDC2E77BCB
:10041000FF60067A047925E4227A04792E20D50437
:100420007A047929224E614E002B494E46002D490F
:100430004E4600E47A08F608DAFC7B00740722E8EE
:10044000C0E0ECC0E0EDC0E0EEC0E0EFC0E0EA7577
:10045000F010A4CAABF075F04DA42BFBE435F0FC12
:10046000EA2410FAEB34C5FBEC34D9FCEDC2E7FF0B
:1004700075F056A4F42411C5F0F434C58FF0A42A05
:10048000E5F03BE43CF620E714120533D0E0FFD062
:10049000E0FED0E0FDD0E0FC12023F8014F4041234
:1004A0000533D0E0FFD0E0FED0E0FDD0E0FC12014B
:1004B00036D0E0F8E6FAEDD2E7CD33EC332482FB18
:1004C000E4C3CF33CFCE33CECD33CD33DBF37B0795
:1004D00075F00A846004F6081B0AE5F0F6088FF050
:1004E000740AA4FFACF08EF0740AA42CFEACF05099
:1004F000010C8DF0740AA42CFDE435F0F608DBDE67
:030500007407225B
:100503003F8000004120000042C80000447A000000
:10051300461C400047C35000497424004B18968082
:100523004CBEBC205A0E1BCA6753C21C749DC5AE79
:10053300FB60065407601C2323120561EB543860EB
:100543000912054D12055C120136ECF8EDF9EEFACD
:10055300EFCB22EB12055C80F1543803241C900589
:1005630003FE93FC0EEE93FD0EEE930ECE93FF224D
:030000000219AD35
:0C19AD00787FE4F6D8FD75816D0219F416
:10057300E709F608DFFA8046E709F208DFFA803E6A
:1005830088828C83E709F0A3DFFA8032E309F60857
:10059300DFFA8078E309F208DFFA807088828C83BF
:1005A300E309F0A3DFFA806489828A83E0A3F60873
:1005B300DFFA805889828A83E0A3F208DFFA804C4D
:1005C30080D280FA80C680D4806980F28033801024
:1005D30080A680EA809A80A880DA80E280CA80338D
:1005E30089828A83ECFAE493A3C8C582C8CCC58305
:1005F300CCF0A3C8C582C8CCC583CCDFE9DEE780D5
:100603000D89828A83E493A3F608DFF9ECFAA9F053
:10061300EDFB2289828A83ECFAE0A3C8C582C8CCA9
:10062300C583CCF0A3C8C582C8CCC583CCDFEADEC2
:10063300E880DB89828A83E493A3F208DFF980CC24
:1006430088F0EF60010E4E60C388F0ED2402B4041D
:100653000050B9F582EB2402B4040050AF232345C4
:0606630082239005C37321
:10066900BB010689828A83E0225002E722BBFE028F
:09067900E32289828A83E49322C2
:10068200BB010CE58229F582E5833AF583E022502D
:1006920006E92582F8E622BBFE06E92582F8E22277
:0D06A200E58229F582E5833AF583E4932291
:1006AF00BB010689828A83F0225002F722BBFE012A
:0206BF00F32224
:1006C100F8BB010DE58229F582E5833AF583E8F06F
:1006D100225006E92582C8F622BBFE05E92582C81B
:0206E100F22203
:0E06E300C3E49FFFE49EFEE49DFDE49CFC2228
:1006F100EB9FF5F0EA9E42F0E99D42F0EC6480C880
:0607010064809845F0221F
:10070700E8600FEFC333FFEE33FEED33FDEC33FC50
:03071700D8F122F4
:10071A00BB010DE58229F582E5833AF58302084992
:10072A005007E92582F802083DBBFE07E92582F851
:10073A00020855E58229F582E5833AF583020861C4
:10074A00BB010DE58229F582E5833AF58302079E0E
:10075A005007E92582F80208A7BBFE07E92582F8B7
:04076A000208B322AC
:10076E00BB010DE58229F582E5833AF58302087E09
:10077E005007E92582F8020871BBFE07E92582F8C9
:10078E0002088AE58229F582E5833AF58302089705
:0C079E00ECF0A3EDF0A3EEF0A3EFF022CE
:1007AA00A8828583F0D083D0821207C11207C112B2
:1007BA0007C11207C1E473E493A3C583C5F0C583D7
:1007CA00C8C582C8F0A3C583C5F0C583C8C582C899
:0107DA0022FC
:1007DB00FAE6FB0808E6F925F0F618E6CA3AF6221F
:1007EB00D083D082F8E4937012740193700DA3A39D
:1007FB0093F8740193F5828883E4737402936860B1
:06080B00EFA3A3A380DFB0
:101DD800EFB40A07740D121DE3740A309811A8991C
:101DE800B8130CC2983098FDA899C298B811F6306B
:071DF80099FDC299F5992243
:10081100EF4E6012EF60010EEDBB010B89828A83FE
:10082100F0A3DFFCDEFA2289F05007F709DFFCA90B
:0C083100F022BBFEFCF309DFFCA9F02262
:1019B900021C93E493A3F8E493A34003F68001F295
:1019C90008DFF48029E493A3F85407240CC8C3332F
:1019D900C4540F4420C8834004F456800146F6DFFE
:1019E900E4800B0102040810204080901874E47E02
:1019F900019360BCA3FF543F30E509541FFEE493F3
:101A0900A360010ECF54C025E060A840B8E493A3B9
:101A1900FAE493A3F8E493A3C8C582C8CAC583CAE4
:101A2900F0A3C8C582C8CAC583CADFE9DEE780BE9C
:0119160000D0
:0C083D00E6FC08E6FD08E6FE08E6FF22E7
:0C084900E0FCA3E0FDA3E0FEA3E0FF2222
:0C085500E2FC08E2FD08E2FE08E2FF22DF
:10086100E493FC740193FD740293FE740393FF22DD
:0D087100E6FB08E6F908E6FA08E6CBF822F7
:0C087E00E0F8A3E0F9A3E0FAA3E0FB22FD
:0D088A00E2FB08E2F908E2FA08E2CBF822EE
:10089700E493F8740193F9740293FA740393FB22B7
:0C08A700ECF608EDF608EEF608EFF6227D
:0C08B300ECF208EDF208EEF208EFF22281
:00000001FF
