:100CA100696E697420646F6E650A0A0000000000B5
:100CB1000000000000000000000000000000000033
:0C0CC10000000000000000000000000027
:100A4F00015E00016000015F00016100025C0000B7
:100A5F00025600000258000002620000026400000B
:0A0A6F00025A0000430009010203CF
:03002300020AB41A
:100AB400C0E0C083C082C0D0C0AC75AC0030992700
:100AC400C299E55FB56104C20C801C742C2561F5E4
:100AD40082E43400F583E0F599D20C0561E561C345
:100AE4009420400375610030981CC298740C255EF4
:100AF400F582E43400F583E599F0055EE55EC39480
:100B0400204003755E00D0ACD0D0D082D083D0E03A
:010B140032AE
:03000B000208A93F
:1008A900C0E0C0F0C083C082C0D075D000C000C015
:1008B90001C002C003C004C005C006C007758CF89A
:1008C900758A30055BE55B7002055A055DE55D706B
:1008D90002055CC394E7E55C9403400E755C007502
:1008E9005D000557E55770020556C3E557943BE58A
:1008F90056940040267556007557000563E56370E8
:10090900020562AE62FFE4FCFD7BFE7AFFF9F8D3D3
:100919001207115006756200756300D007D006D022
:1009290005D004D003D002D001D000D0D0D082D0DD
:0609390083D0F0D0E03293
:100C1000200C0EE4F561755F0190002CEFF0D29985
:100C200022AE5F742C2EF582E43400F583EFF00ED3
:100C3000EEC394204002E4FEEE656160FBC2AC8E20
:030C40005FD2ACD4
:010C4300228E
:10000E001206B9FF600C120C10740129F9E43AFAC9
:03001E0080EE224F
:070EA1007FC8120EA87FC8F4
:100EA800EF601100000000000000000000000000DA
:050EB800001F80EC2288
:100E8300AD07AC06ED4C601543E110120EA1120E36
:0E0E9300A17FC8120EA8ED1D70EA1C80E72298
:100B6F004391A053925F43914043924053B1F74357
:100B7F00B20853B1FC53B2FC43B11043B21075AC81
:100B8F000153B5FD75AC035392FDE4F5AC5395EFEE
:100B9F0075AC01439210F5AC43950475AC015392BB
:100BAF00FBF5AC75AC0143B50375AC035392FCF583
:020BBF00AC2266
:070ED400D2A9D2ACD2AF227B
:100E1F00439C01539CEFC29FD29ED29C43B9305347
:100E2F00877F439C4043B940759AF3759BF343B951
:020E3F0080220F
:100D4500E58954FC4401F58953A4FE53A3FB53895B
:100D5500FB5389F775AC0653A4EFE4F5AC758A30FF
:060D6500758CF8D28C220F
:100E4100A2AF92098FE3E4F5E4C2AF75E50375E75C
:100E51008075E64675E6B900F5E5F5E7A20992AFBA
:010E6100226E
:100DB600A2AF920AC2AFE4F5E38FE48DE275E504D3
:100DC60075E78075E64675E6B900F5E5F5E7A20A2A
:020DD60092AFDA
:010DD80022F8
:040CF700AB07AA0697
:100CFB00A2AF920B8DE28AE38BE4C2AF75E502756E
:100D0B00E78075E64675E6B900E4F5E5F5E7A20B75
:020D1B0092AF95
:010D1D0022B3
:100CCD00E4FC7D347F03120DB67F34120E41EC240B
:100CDD0000FFE43434FE74002CF582E43400F58317
:090CED00E0FD120CF70CBC09E556
:010CF60022DB
:060EDB00EF90340093FFCC
:010EE10022EE
:100DD900438540438590E58554FC4403F585E4F556
:100DE900845385F75385DF43850475AC0753A4EF16
:030DF900F5AC2234
:0D0EBD008F86E58430E7FB438480AF8622FA
:100DFC0075C7507F64120EA875E780E4F5E375E4BF
:100E0C004075E50475E21475E64675E6B900F5E53E
:030E1C00F5E722D5
:100E6200120B6F120DFC120DD9120D45120E1F122C
:100E72000ED4E5E154F84406F5E143E18043E12074
:010E8200224D
:060BC1008B248A25892621
:100BC700784C7C007D017BFF7A0C79AD7E007F201D
:100BD70012069375360175370075384C75390075EF
:100BE7003A00753B2785243C85253D85263E85397A
:100BF7003F853A40853B41AB36AA37A938120C737B
:090C07007B017A00794C02000E19
:08000300C2B3120EBDD2B322FC
:100D91008B7A8A7B897CAB7AAA7BA97C1206B960A3
:100DA10013057CE57C7002057B14F91206B9FF126C
:050DB100000380E222B6
:100D6B00120E62E4F55EF560F55FF561C20C7FE88B
:100D7B007E03120E837BFF7A0C79A112000E43E1E6
:060D8B001012038280F843
:1009CB006E6861206769750A00616E20312070685E
:1009DB0061740A00616E20676975206E650A0031CB
:1009EB0020706861740A003220706861740A0033E9
:1009FB0020706861740A00646174612073656E64B1
:100A0B003A200030782530325820000A00446174B7
:100A1B00612072656320726567203078253032580B
:100A2B003A20000000000000000000000000000061
:100A3B000000000000000000000000000023000088
:040A4B00035A5A5A96
:100A790042006C0000420070000042007900004210
:100A89000076000042007D000042007B000041002A
:100A990078004100720041006E0041006F00410082
:0A0AA9007300410074004100750065
:090ECA00E4FF20F90280027F011F
:010ED30022FC
:050EE200AE5AAF5B22D7
:10038200E4F522F523120EE28E228F2343E1109030
:100392000070E522F0A3E523F0D390006DE09523F1
:1003A20090006CE09522400F900070E0FFA3E09077
:1003B200006CCFF0A3EFF090006CE0FEA3E0FFC36F
:1003C200900071E09FFF900070E09EFED3EF940AD0
:1003D200EE940050030204E0120ECA900072EFF095
:1003E200701990006EE0B40112900079E522F0A33A
:1003F200E523F090006F7401F0805D900072E0647C
:1004020001705590006EE0704F900076E0FEA3E020
:10041200FFC39423EE9400401DEF9458EE940250D3
:1004220015900074E0B40102801B9000757401F015
:10043200900073F0801DC3900077E094589000768E
:10044200E09402400E7BFF7A0979CB120BC1E49053
:100452000074F0E490006FF090006FE0606990002B
:1004620079E0FEA3E0FFD39523EE9522401874FFB6
:100472009FFF74FF9EFEE5232FFFE5223E9000764C
:10048200F0A3EFF08017900079E0FEA3E0FFC3E550
:10049200239F900077F0E5229E900076F0C39000B3
:1004A20077E094B0900076E09404401B900075745D
:1004B20001F090007304F0E523244490007AF0E503
:1004C2002234FD900079F0900072E090006EF0907E
:1004D2000070E0FFA3E090006CCFF0A3EFF090007B
:1004E20075E06044900073E0B401197BFF7A0979EA
:1004F200D4120BC190007DE522F0A3E523F0900019
:1005020078E08018900073E0B402187BFF7A0979D2
:10051200DF120BC1E4900078F090007404F0E490D4
:100522000073F0E4900075F090007DE0FEA3E0FF20
:10053200D39523EE9522401874FF9FFF74FF9EFE11
:10054200E5232FFFE5223E90007BF0A3EFF080171A
:1005520090007DE0FEA3E0FFC3E5239F90007CF0C6
:10056200E5229E90007BF0900078E0FF6048D390F7
:10057200007CE0945890007BE094024043EFB40189
:10058200087BFF7A0979EA801C900078E0B40208BF
:100592007BFF7A0979F2800D900078E0B403097B41
:1005A200FF7A0979FA120BC1E4900078F090007B8F
:1005B200F0A3F0A3800390007DE522F0A3E523F0F1
:0105C2002216
:100C440078197C007D007BFF7A0A792E7E007F066E
:100C5400120693741AF4FF7519A8751A1DE4F51B8E
:0F0C6400F51C751D558F1EFB7A007919020D9135
:08075D008F668B678A688969C9
:10076500E4F56A786B7C00FD7BFF7A0A7934FE7FBD
:1007750006120693AB67AA68A9699000011206D212
:10078500FF7E001206B9FD7C00E56624A8FBE43374
:10079500CB2DFDEC3BCD2FFFEE3DFEAB6790000270
:1007A5001206D22FFFEFF4FF756BA885666C120653
:1007B500B9F56D9000011206D2F56E900002120691
:1007C500D2F56F8F707B007A00796B120D917BFFEC
:1007D5007A0A7902120BC1E4F56A7BFF7A0A790E6F
:1007E500746B256AF8E6752700F528120BC1056AB2
:1007F500E56AC3940640E37BFF7A0A7916020BC1CA
:020805008F085A
:10080700E4F509780D7C00FD7BFF7A0A793AFE7FD3
:100817000612069378137C007D007BFF7A0A7940E5
:100827007E007F06120693E5082458FFE433EFF4B1
:10083700FF751358850814E4F515F516F5178F1885
:10084700F50A750B00750C0DFB7A007913120D91E3
:10085700AF86EF6015AB0A050CE50CAA0B70020515
:100867000B14F9E5861206FF80E67BFF7A0A7918F2
:10087700752700850828120BC1E4F5097BFF7A0A62
:10088700790E740D2509F8E6752700F528120BC1B6
:100897000509E509C3940640E37BFF7A0A79160246
:0208A7000BC183
:100B150078717C007D007BFF7A0A79467E007F0331
:100B250012069378747C007D007BFF7A0A79497EF2
:100B3500007F0312069378777C007D007BFF7A0A9D
:100B4500794C7E007F031206937B007A0079747FCF
:100B55001A12075D7B007A0079777F1C12075D7B8F
:0A0B6500007A0079717F1802075D25
:0300000002093FB3
:0C093F00787FE4F6D8FD75817C02098603
:1005C300E709F608DFFA8046E709F208DFFA803E1A
:1005D30088828C83E709F0A3DFFA8032E309F60807
:1005E300DFFA8078E309F208DFFA807088828C836F
:1005F300E309F0A3DFFA806489828A83E0A3F60823
:10060300DFFA805889828A83E0A3F208DFFA804CFC
:1006130080D280FA80C680D4806980F280338010D3
:1006230080A680EA809A80A880DA80E280CA80333C
:1006330089828A83ECFAE493A3C8C582C8CCC583B4
:10064300CCF0A3C8C582C8CCC583CCDFE9DEE78084
:100653000D89828A83E493A3F608DFF9ECFAA9F003
:10066300EDFB2289828A83ECFAE0A3C8C582C8CC59
:10067300C583CCF0A3C8C582C8CCC583CCDFEADE72
:10068300E880DB89828A83E493A3F208DFF980CCD4
:1006930088F0EF60010E4E60C388F0ED2402B404CD
:1006A3000050B9F582EB2402B4040050AF23234574
:0606B30082239006137380
:1006B900BB010689828A83E0225002E722BBFE023F
:0906C900E32289828A83E4932272
:1006D200BB010CE58229F582E5833AF583E02250DD
:1006E20006E92582F8E622BBFE06E92582F8E22227
:0D06F200E58229F582E5833AF583E4932241
:1006FF00BB010689828A83F0225002F722BBFE01DA
:02070F00F322D3
:10071100EB9FF5F0EA9E42F0E99D42F0EC6480C85F
:0607210064809845F022FF
:100C7300853C45853D46853E47EBC53FFBEAC54080
:100C8300FAE9C541F97F0978481206B9F60809E976
:0E0C930070010ADFF4AB3FAA40A941020082C3
:10094B00020D6BE493A3F8E493A34003F68001F24A
:10095B0008DFF48029E493A3F85407240CC8C333AD
:10096B00C4540F4420C8834004F456800146F6DF7C
:10097B00E4800B0102040810204080900A4FE47EB3
:10098B00019360BCA3FF543F30E509541FFEE49371
:10099B00A360010ECF54C025E060A840B8E493A338
:1009AB00FAE493A3F8E493A3C8C582C8CAC583CA63
:1009BB00F0A3C8C582C8CAC583CADFE9DEE780BE1B
:010AB3000042
:10002600E5512445F8E60551227842300702784525
:10003600E475F0011207270206B92000EB7F2ED2E5
:10004600008018EF540F2490D43440D4FF30040BB2
:10005600EF24BFB41A0050032461FFE55260021575
:10006600520555E5557002055430070D7842E47582
:10007600F001120727EF0206FF020D1E7403D207D6
:100086008003E4C207F5518B428A438944E4F55262
:10009600F554F555E55260077F2012006180F5752D
:1000A60053FFC201C200C202C203C205C206C20891
:1000B60012002FFF700D3007057F00120072AF553A
:1000C600AE5422B4255FC2D5C20412002FFF24D03D
:1000D600B40A00501A75F00A785230D50508B6FFF2
:1000E6000106C6A426F620D5047002D20380D924C0
:1000F600CFB41A00EF5004C2E5D204020272D20154
:1001060080C6D20080C0D20280BCD2D580BAD205C9
:1001160080B47F201200612002077401B5520040AE
:10012600F1120026FF12006102009AD208D2068060
:1001360095120026FB120026FA120026F94A4B7089
:100146000679437A037BFF20022EE552602A7E0061
:100156008E827583001206D260060EEE655370F02D
:10016600C2D5EBC0E0EAC0E0E9C0E0EE1202B9D0C9
:10017600E0F9D0E0FAD0E0FB1206B9FF60AAEBC0C6
:10018600E0EAC0E0E9C0E0120061D0E02401F9D065
:10019600E03400FAD0E0FBE5530460DCD553D980A7
:1001A600877BFF7A0279B5D202809C79108002792A
:1001B60008C206C2088008D2D5790A8004790AC224
:1001C600D5E553047002F553E4FAFDFEFF1200264E
:1001D600FC7B08200113120026FD7B1030000A125A
:1001E6000026FE120026FF7B20EC3382D592D550E6
:1001F60013C3E43000069FFFE49EFEE42001039D46
:10020600FDE49CFCE4CBF8C201EC700CCFCECDCC67
:10021600E824F8F870F38017C3EF33FFEE33FEEDF2
:1002260033FDEC33FCEB33FB994002FB0FD8E9EBD3
:10023600300105F8D0E0C448B201C0E00AEC4D4EEA
:100246004F78207B0070C2EAB5530040BCC0E01274
:1002560002BBD0F0D0E0200104C4C0E0C4B201C0AB
:10026600F012004AD0F0D5F0EB02009A12073701DF
:10027600375301B15801084C01044201B54F01BD85
:0F0286004401BD49011D4301C35501A74601A70E
:100295004501A747036350010C2D01102E01332B97
:1002A500011423013120034C2A00CC480000012B06
:1002B5003F3F3F00790AA2D5200314300509B91044
:1002C500020404B9080104A2D52006025001042045
:1002D50002689202B552005034C0E07F2030031905
:1002E5007F30A20272067205500F120312C202C2BB
:1002F50006C205C2087F30800F300503E9C0E01251
:100305000061300503D0E0F9D0E0B552CC300517D7
:100315007F30B9100C1200617F583004077F788058
:1003250003B908031200613002057F2D0200617FC9
:10033500202008F87F2B2006F322920280CF286E1A
:10034500756C6C2900D2011200263001F8C20178C3
:100355005230D50108F60200CC2D50434958120001
:10036500262403B405004001E490035E9312005275
:0D037500743A120052D2037552040201B115
:10072700FAE6FB0808E6F925F0F618E6CA3AF622D3
:10073700D083D082F8E4937012740193700DA3A351
:1007470093F8740193F5828883E473740293686065
:06075700EFA3A3A380DF65
:100D1E00EFB40A07740D120D29740A309811A899B0
:100D2E00B8130CC2983098FDA899C298B811F63035
:070D3E0099FDC299F599220D
:00000001FF
