:10074C0068656C6C6F0A006172723A202564202512
:10075C00642025642025642025642025640A006813
:10076C00656C6C6F6161610A0A000000000000009A
:10077C00000000000000000000000000000000006D
:0A078C000000000000000000000063
:10080E00011200011400011300011500020E000078
:10081E0002080000020A0000021600000218000082
:10082E00020C0000021000004600090C7B0F101194
:01083E0012A7
:030023000206468C
:10064600C0E0C083C082C0D0C0AC75AC0030992772
:10065600C299E513B51504C20C801C742F2515F537
:1006660082E43400F583E0F599D20C0515E515C34F
:100676009420400375150030981CC298740F2512FB
:10068600F582E43400F583E599F00512E512C3948A
:10069600204003751200D0ACD0D0D082D083D0E0F9
:0106A6003221
:03000B0002051CCF
:10051C00C0E0C0F0C083C082C0D075D000C000C0A5
:10052C0001C002C003C004C005C006C007758CF82A
:10053C00758A30050DE50D7002050C0511E511707D
:10054C00020510050FE50F7002050EC394E7E50ECA
:10055C009403400E750E00750F000509E509700235
:10056C000508C3E509943BE508940040267508008E
:10057C007509000517E51770020516AE16FFE4FCA9
:10058C00FD7BFE7AFFF9F8D3120491500675160024
:10059C00751700D007D006D005D004D003D002D0F8
:0E05AC0001D000D0D0D082D083D0F0D0E03289
:1007DA00200C0EE4F51575130190002FEFF0D29955
:1007EA0022AE13742F2EF582E43400F583EFF00E57
:1007FA00EEC394204002E4FEEE651560FBC2AC8EA7
:03080A0013D2AC5A
:01080D0022C8
:10000E00120478FF600C1207DA740129F9E43AFA47
:03001E0080EE224F
:070A1C007FC8120A237FC806
:100A2300EF60110000000000000000000000000063
:050A3300001F80EC2211
:1009FE00AD07AC06ED4C601543E110120A1C120A4D
:0E0A0E001C7FC8120A23ED1D70EA1C80E7222F
:100796004391A053925F43914043924053B1F74334
:1007A600B20853B1FC53B2FC43B11043B210539597
:1007B600EF75AC01439210E4F5AC43950475AC01BA
:1007C6005392FBF5AC75AC0143B50375AC0353927C
:0407D600FCF5AC2260
:070A4500D2A9D2ACD2AF220E
:10099A00439C01539CEFC29FD29ED29C43B93053D1
:1009AA00877F439C4043B940759AF3759BF343B9DB
:0209BA00802299
:1008E600E58954FC4401F58953A4FE53A3FB5389BF
:1008F600FB5389F775AC0653A4EFE4F5AC758A3063
:06090600758CF8D28C2272
:1009BC00A2AF92098FE3E4F5E4C2AF75E50375E7E6
:1009CC008075E64675E6B900F5E5F5E7A20992AF44
:0109DC0022F8
:10093100A2AF920AC2AFE4F5E38FE48DE275E5045C
:1009410075E78075E64675E6B900F5E5F5E7A20AB3
:0209510092AF63
:010953002281
:04089800AB07AA06FA
:10089C00A2AF920B8DE28AE38BE4C2AF75E50275D1
:1008AC00E78075E64675E6B900E4F5E5F5E7A20BD9
:0208BC0092AFF9
:0108BE002217
:10086E00E4FC7D347F031209317F341209BCEC2481
:10087E0000FFE43434FE74002CF582E43400F5837A
:09088E00E0FD1208980CBC09E51C
:01089700223E
:060A4C00EF90340093FF5F
:010A52002281
:10095400438540438590E58554FC4403F585E4F5DF
:10096400845385F75385DF43850475AC0753A4EF9F
:03097400F5AC22BD
:0D0A38008F86E58430E7FB438480AF862283
:1009770075C7507F64120A2375E780E4F5E375E4D1
:100987004075E50475E21475E64675E6B900F5E5C8
:03099700F5E7225F
:1009DD001207961209771209541208E612099A1293
:1009ED000A45E5E154F84406F5E143E18043E12091
:0109FD0022D7
:0606FD008B228A238924F0
:10070300784F7C007D017BFF7A0779767E007F201E
:1007130012045275340175350075364F75370075FF
:10072300380075392585223A85233B85243C853756
:100733003D85383E85393FAB34AA35A9361208408A
:090743007B017A00794F02000EDF
:08000300C2B3120A38D2B32285
:10090C008B1A8A1B891CAB1AAA1BA91C12047860AF
:10091C0013051CE51C7002051B14F9120478FF1258
:05092C00000380E2223F
:1006A7001209DDE4F512F514F513F515C20C7FE810
:1006B7007E031209FE7BFF7A07794C12000E43E195
:1006C700107BFF7A077953900009E0F525A3E0F541
:1006D70026A3E0F527A3E0F528A3E0F529A3E0F595
:1006E7002A1206FD7BFF7A07796B1206FD7FDC7EF7
:0606F700051209FE80C897
:030000000205BA3C
:0C05BA00787FE4F6D8FD7581530206013D
:10038200E709F608DFFA8046E709F208DFFA803E5D
:1003920088828C83E709F0A3DFFA8032E309F6084A
:1003A200DFFA8078E309F208DFFA807088828C83B2
:1003B200E309F0A3DFFA806489828A83E0A3F60866
:1003C200DFFA805889828A83E0A3F208DFFA804C40
:1003D20080D280FA80C680D4806980F28033801017
:1003E20080A680EA809A80A880DA80E280CA803380
:1003F20089828A83ECFAE493A3C8C582C8CCC583F8
:10040200CCF0A3C8C582C8CCC583CCDFE9DEE780C7
:100412000D89828A83E493A3F608DFF9ECFAA9F046
:10042200EDFB2289828A83ECFAE0A3C8C582C8CC9C
:10043200C583CCF0A3C8C582C8CCC583CCDFEADEB5
:10044200E880DB89828A83E493A3F208DFF980CC17
:1004520088F0EF60010E4E60C388F0ED2402B40410
:100462000050B9F582EB2402B4040050AF232345B7
:0604720082239003D27307
:10047800BB010689828A83E0225002E722BBFE0282
:09048800E32289828A83E49322B5
:10049100EB9FF5F0EA9E42F0E99D42F0EC6480C8E2
:0604A10064809845F02282
:10084000853A43853B44853C45EBC53DFBEAC53EC7
:10085000FAE9C53FF97F097846120478F60809E9F4
:0E08600070010ADFF4AB3DAA3EA93F02008200
:1005C6000206A7E493A3F8E493A34003F68001F29E
:1005D60008DFF48029E493A3F85407240CC8C33336
:1005E600C4540F4420C8834004F456800146F6DF05
:1005F600E4800B010204081020408090080EE47E7F
:10060600019360BCA3FF543F30E509541FFEE493F9
:10061600A360010ECF54C025E060A840B8E493A3C0
:10062600FAE493A3F8E493A3C8C582C8CAC583CAEB
:10063600F0A3C8C582C8CAC583CADFE9DEE780BEA3
:01083F0000B8
:10002600E54F2443F8E6054F22784030070278432F
:10003600E475F0011204E60204782000EB7F2ED26C
:10004600008018EF540F2490D43440D4FF30040BB2
:10005600EF24BFB41A0050032461FFE55060021577
:10006600500553E5537002055230070D7840E4758C
:10007600F0011204E6EF0204D40208BF7403D207AB
:100086008003E4C207F54F8B408A418942E4F5506C
:10009600F552F553E55060077F2012006180F57533
:1000A60051FFC201C200C202C203C205C206C20893
:1000B60012002FFF700D3007057F00120072AF533C
:1000C600AE5222B4255FC2D5C20412002FFF24D03F
:1000D600B40A00501A75F00A785030D50508B6FFF4
:1000E6000106C6A426F620D5047002D20380D924C0
:1000F600CFB41A00EF5004C2E5D204020272D20154
:1001060080C6D20080C0D20280BCD2D580BAD205C9
:1001160080B47F201200612002077401B5500040B0
:10012600F1120026FF12006102009AD208D2068060
:1001360095120026FB120026FA120026F94A4B7089
:100146000679437A037BFF20022EE550602A7E0063
:100156008E827583001204A760060EEE655170F05C
:10016600C2D5EBC0E0EAC0E0E9C0E0EE1202B9D0C9
:10017600E0F9D0E0FAD0E0FB120478FF60AAEBC009
:10018600E0EAC0E0E9C0E0120061D0E02401F9D065
:10019600E03400FAD0E0FBE5510460DCD551D980AB
:1001A600877BFF7A0279B5D202809C79108002792A
:1001B60008C206C2088008D2D5790A8004790AC224
:1001C600D5E551047002F551E4FAFDFEFF12002652
:1001D600FC7B08200113120026FD7B1030000A125A
:1001E6000026FE120026FF7B20EC3382D592D550E6
:1001F60013C3E43000069FFFE49EFEE42001039D46
:10020600FDE49CFCE4CBF8C201EC700CCFCECDCC67
:10021600E824F8F870F38017C3EF33FFEE33FEEDF2
:1002260033FDEC33FCEB33FB994002FB0FD8E9EBD3
:10023600300105F8D0E0C448B201C0E00AEC4D4EEA
:100246004F78207B0070C2EAB5510040BCC0E01276
:1002560002BBD0F0D0E0200104C4C0E0C4B201C0AB
:10026600F012004AD0F0D5F0EB02009A1204F60123
:10027600375301B15801084C01044201B54F01BD85
:0F0286004401BD49011D4301C35501A74601A70E
:100295004501A747036350010C2D01102E01332B97
:1002A500011423013120034C2A00CC480000012B06
:1002B5003F3F3F00790AA2D5200314300509B91044
:1002C500020404B9080104A2D52006025001042045
:1002D50002689202B550005034C0E07F2030031907
:1002E5007F30A20272067205500F120312C202C2BB
:1002F50006C205C2087F30800F300503E9C0E01251
:100305000061300503D0E0F9D0E0B550CC300517D9
:100315007F30B9100C1200617F583004077F788058
:1003250003B908031200613002057F2D0200617FC9
:10033500202008F87F2B2006F322920280CF286E1A
:10034500756C6C2900D2011200263001F8C20178C3
:100355005030D50108F60200CC2D50434958120003
:10036500262403B405004001E490035E9312005275
:0D037500743A120052D2037550040201B117
:1004A700BB010CE58229F582E5833AF583E022500A
:1004B70006E92582F8E622BBFE06E92582F8E22254
:0D04C700E58229F582E5833AF583E493226E
:1004D400BB010689828A83F0225002F722BBFE0107
:0204E400F32201
:1004E600FAE6FB0808E6F925F0F618E6CA3AF62217
:1004F600D083D082F8E4937012740193700DA3A395
:1005060093F8740193F5828883E4737402936860A8
:06051600EFA3A3A380DFA8
:1008BF00EFB40A07740D1208CA740A309811A89978
:1008CF00B8130CC2983098FDA899C298B811F63099
:0708DF0099FDC299F5992271
:00000001FF
