:0E04CC0068656C6C6F0A000000000000000004
:1002FE00011200011400011300011500020E00008E
:10030E0002080000020A0000021600000218000097
:08031E00020C000002100000B7
:03000B00020133BC
:10013300C0E0C0F0C083C082C0D075D000C000C092
:1001430001C002C003C004C005C006C007758CF817
:10015300758A30050DE50D7002050C0511E511706A
:10016300020510050FE50F7002050EC394E7E50EB7
:100173009403400E750E00750F000509E509700222
:100183000508C3E509943BE508940040267508007B
:100193007509000517E51770020516AE16FFE4FC96
:1001A300FD7BFE7AFFF9F8D312011D500675160088
:1001B300751700D007D006D005D004D003D002D0E5
:0E01C30001D000D0D0D082D083D0F0D0E03276
:1002A00020030EE4F515751301900029EFF0D299A3
:1002B00022AE1374292EF582E43400F583EFF00E9C
:1002C000EEC394204002E4FEEE651560FBC2AC8EE6
:0302D00013D2AC9A
:0102D3002208
:1004B900120104FF600C1202A0740129F9E43AFA4E
:0304C90080EE22A0
:070484007FC812048B7FC842
:10048B00EF60110000000000000000000000000001
:05049B00001F80EC22AF
:10046600AD07AC06ED4C601543E11012048412048E
:0E047600847FC812048BED1D70EA1C80E72203
:1004A0004391A053925F43914043924053B1F7432D
:0904B000B20853B1FC53B2FC2266
:0704E700D2A9D2ACD2AF2272
:10040200439C01539CEFC29FD29ED29C43B930536E
:10041200877F439C4043B940759AF3759BF343B978
:02042200802236
:10034E00E58954FC4401F58953A4FE53A3FB53895C
:10035E00FB5389F775AC0653A4EFE4F5AC758A3000
:06036E00758CF8D28C2210
:10042400A2AF92008FE3E4F5E4C2AF75E50375E78C
:100434008075E64675E6B900F5E5F5E7A20092AFEA
:010444002295
:10039900A2AF9201C2AFE4F5E38FE48DE275E50403
:1003A90075E78075E64675E6B900F5E5F5E7A2015A
:0203B90092AF01
:0103BB00221F
:04032700AB07AA0670
:10032B00A2AF92028DE28AE38BE4C2AF75E5027550
:10033B00E78075E64675E6B900E4F5E5F5E7A20258
:02034B0092AF6F
:01034D00228D
:1002D400E4FC7D347F031203997F34120424EC245C
:1002E40000FFE43434FE74002CF582E43400F5831A
:0902F400E0FD1203270CBC09E532
:0102FD0022DE
:0604EE00EF90340093FFC3
:0104F40022E5
:1003BC00438540438590E58554FC4403F585E4F57D
:1003CC00845385F75385DF43850475AC0753A4EF3D
:0303DC00F5AC225B
:0D04DA008F86E58430E7FB438480AF8622E7
:1003DF0075C7507F6412048B75E780E4F5E375E40D
:1003EF004075E50475E21475E64675E6B900F5E566
:0303FF00F5E722FD
:100445001204A01203DF1203BC12034E120402129F
:1004550004E7E5E154F84406F5E143E18043E12092
:010465002274
:0304F5000204B945
:08000300C2B31204DAD2B322E9
:100374008B288A29892AAB28AA29A92A1201046070
:1003840013052AE52A7002052914F9120104FF1243
:05039400000380E222DD
:10025D00120445E4F512F514F513F515C2037FE804
:05026D007E031204668F
:1002720078217C007D007BFF7A0479D37E007F07A2
:100282001200DE7B007A0079211203747BFF7A046C
:0C02920079CC1204F57FE87E03120466AC
:02029E0080D20C
:030000000201D129
:0C01D100787FE4F6D8FD75812A02021840
:10000E00E709F608DFFA8046E709F208DFFA803ED4
:10001E0088828C83E709F0A3DFFA8032E309F608C1
:10002E00DFFA8078E309F208DFFA807088828C8329
:10003E00E309F0A3DFFA806489828A83E0A3F608DD
:10004E00DFFA805889828A83E0A3F208DFFA804CB7
:10005E0080D280FA80C680D4806980F2803380108E
:10006E0080A680EA809A80A880DA80E280CA8033F7
:10007E0089828A83ECFAE493A3C8C582C8CCC5836F
:10008E00CCF0A3C8C582C8CCC583CCDFE9DEE7803F
:10009E000D89828A83E493A3F608DFF9ECFAA9F0BE
:1000AE00EDFB2289828A83ECFAE0A3C8C582C8CC14
:1000BE00C583CCF0A3C8C582C8CCC583CCDFEADE2D
:1000CE00E880DB89828A83E493A3F208DFF980CC8F
:1000DE0088F0EF60010E4E60C388F0ED2402B40488
:1000EE000050B9F582EB2402B4040050AF2323452F
:0600FE00822390005E73F6
:10010400BB010689828A83E0225002E722BBFE02F9
:09011400E32289828A83E493222C
:10011D00EB9FF5F0EA9E42F0E99D42F0EC6480C859
:06012D0064809845F022F9
:1001DD0002025DE493A3F8E493A34003F68001F2D9
:1001ED0008DFF48029E493A3F85407240CC8C33323
:1001FD00C4540F4420C8834004F456800146F6DFF2
:10020D00E4800B01020408102040809002FEE47E81
:10021D00019360BCA3FF543F30E509541FFEE493E6
:10022D00A360010ECF54C025E060A840B8E493A3AD
:10023D00FAE493A3F8E493A3C8C582C8CAC583CAD8
:10024D00F0A3C8C582C8CAC583CADFE9DEE780BE90
:0103260000D6
:00000001FF
