:10141500696E697420646F6E650A0A000000000039
:1014250000000000000000000000000000000000B7
:0C143500000000000000000000000000AB
:10118F00011000011200011100011300020E0000F6
:10119F0002080000020A00000214000002160000FC
:0411AF00020C00002E
:03003B000215D0DB
:0915D000C0E0C0D075D000C007D6
:0915D900AF86438480EF04F5861F
:0715E200D007D0D0D0E032A9
:030023000211FACD
:1011FA00C0E0C083C082C0D0C0AC75AC00309927B3
:10120A00C299E511B51304C20C801C74292513F583
:10121A0082E43400F583E0F599D20C0513E513C393
:10122A009420400375130030981CC2987409251045
:10123A00F582E43400F583E599F00510E510C394CE
:10124A00204003751000D0ACD0D0D082D083D0E03B
:01125A003261
:03000B0002106D73
:10106D00C0E0C0F0C083C082C0D075D000C000C049
:10107D0001C002C003C004C005C006C007758CFCCA
:10108D00758A18050DE50D7002050C050FE50F703D
:10109D0002050EC394E7E50E9403400E750E007520
:1010AD000F000509E50970020508C3E509943BE544
:1010BD0008940040267508007509000515E51570A2
:1010CD00020514AE14FFE4FCFD7BFE7AFFF9F8D3A4
:1010DD001206995006751400751500D007D006D06C
:1010ED0005D004D003D002D001D000D0D0D082D012
:0610FD0083D0F0D0E032C8
:10138400200C0EE4F513751101900029EFF0D299A9
:1013940022AE1174292EF582E43400F583EFF00EA9
:1013A400EEC394204002E4FEEE651360FBC2AC8EF3
:0313B40011D2ACA7
:0113B7002213
:10002600120633FF600C121384740129F9E43AFABC
:0300360080EE2237
:0715E9007FC81215F07FC856
:0815F000EF6004001F80F922E6
:1015B200AD07AC06ED4C601543E1101215E91215AA
:0E15C200E97FC81215F0ED1D70EA1C80E722CB
:101304004391A053925F43914043924053B1F743BA
:10131400B20853B1FC53B2FC43B11043B21053951D
:10132400EF75AC01439210E4F5AC43950475AC0140
:101334005392FBF5AC75AC0143B50375AC03539202
:04134400FCF5AC22E6
:07000300D2A9D2ACD2AF225A
:10154E00439C01539CEFC29FD29ED29C43B9305311
:10155E00877F439C4043B940759AB2759BB243B99D
:02156E008022D9
:1014E200E58954FC4401F58953A4FE53A3FB5389B7
:1014F200FB5389F775AC0653A4EFE4F5AC758A1873
:06150200758CFCD28C2266
:10157000A2AF92098FE3E4F5E4C2AF75E50375E726
:101580008075E64675E6B900F5E5F5E7A20992AF84
:011590002238
:10150800A2AF920AC2AFE4F5E38FE48DE275E50479
:1015180075E78075E64675E6B900F5E5F5E7A20AD0
:0215280092AF80
:01152A00229E
:04149400AB07AA06F2
:10149800A2AF920B8DE28AE38BE4C2AF75E50275C9
:1014A800E78075E64675E6B900E4F5E5F5E7A20BD1
:0214B80092AFF1
:0114BA00220F
:10144100E4FC7D347F031215087F34121570EC24FF
:1014510000FFE43434FE74002CF582E43400F5839B
:09146100E0FD1214940CBC09E535
:01146A00225F
:06160F00EF90340093FF90
:0116150022B2
:10152B00438540438590E58554FC4402F585E4F5FD
:10153B00845385F75385DF43850475AC0753A4EFBC
:03154B00F5AC22DA
:0D15F8008F86E58430E7FB438480AF8622B8
:04161B00E4F5C72209
:1015910012130412161B12152B1214E212154E12FD
:1015A1000003E5E154F84406F5E143E18043E1201D
:0115B1002217
:0612B5008B378A388939ED
:1012BB0078497C007D017BFF7A1479217E007F20A9
:1012CB0012060D754901754A00754B49754C007531
:1012DB004D00754E3A85374F853850853951854CC1
:1012EB0052854D53854E54AB49AA4AA94B1213E76D
:0912FB007B017A0079490200260A
:03161F000215F8B9
:06146B008B378A38893935
:10147100E4FEC2B3AB37AA38A9398E827583001254
:10148100064CFF1215F874712EF8A6070EBE06E47D
:02149100D2B3D4
:011493002236
:10134800121591E4F510F512F511F513C20C7FE8AA
:101358007E031215B27BFF7A147915120026D2F893
:10136800C2F97FF47E011215B243E11012000E7F1C
:0C137800B87E0B1215B2B2F8B2F980ED8D
:100F0B006E6861206769750A00616E203120706818
:100F1B0061740A00616E20676975206E650A003185
:100F2B0020706861740A003220706861740A0033A3
:100F3B0020706861740A00646174612073656E646B
:100F4B003A200030782530325820000A0044617472
:100F5B0061207265632072656720307825303258C6
:100F6B003A200056524D53203D20256C750A0055F2
:100F7B0020686965752064756E67203A20256C645E
:100F8B002056000A2D2D2D2D2D2D2D2D2D2D2D2DBA
:100F9B002D2D2D2D2D2D2D2D2D2D2D2D0A0A000016
:100FAB000000000000000000000000000000000036
:0A0FBB00000000230000035A5A5AF8
:1011B300420069000042006D0000420077000042D7
:1011C3000074000042007B000042007900004100EF
:1011D300760041006F0041006B0041006C0041004C
:1011E30070004100720041007300410071000671FC
:0611F300000000000000F6
:09160500E4FF20B40280027F0121
:01160E0022B9
:05161600AE0CAF0D2237
:100B9300E4F51EF51F1216168E1E8F1F43E11090EB
:100BA300006DE51EF0A3E51FF0D390006AE0951FEA
:100BB300900069E0951E400F90006DE0FFA3E09068
:100BC3000069CFF0A3EFF0900069E0FEA3E0FFC35C
:100BD30090006EE09FFF90006DE09EFED3EF940ABD
:100BE300EE94005003020CF112160590006FEFF023
:100BF300701990006BE0B40112900077E51EF0A32A
:100C0300E51FF090006C7401F0805D90006FE0646C
:100C130001705590006BE0704F900074E0FEA3E00C
:100C2300FFC39423EE9400401DEF9458EE940250BA
:100C330015900072E0B40102801B9000737401F000
:100C4300900070F0801DC3900075E094589000747C
:100C5300E09402400E7BFF7A0F790B1212B5E490F9
:100C63000072F0E490006CF090006CE0606990001A
:100C730077E0FEA3E0FFD3951FEE951E401874FFA7
:100C83009FFF74FF9EFEE51F2FFFE51E3E9000743D
:100C9300F0A3EFF08017900077E0FEA3E0FFC3E539
:100CA3001F9F900075F0E51E9E900074F0C39000A6
:100CB30075E094B0900074E09404401B900073744A
:100CC30001F090007004F0E51F2444900078F0E5F3
:100CD3001E34FD900077F090006FE090006BF09071
:100CE300006DE0FFA3E0900069CFF0A3EFF0900068
:100CF30073E06044900070E0B401197BFF7A0F79D0
:100D0300141212B590007BE51EF0A3E51FF09000CE
:100D130076E08018900070E0B402187BFF7A0F79B8
:100D23001F1212B5E4900076F090007204F0E49084
:100D33000070F0E4900073F090007BE0FEA3E0FF0E
:100D4300D3951FEE951E401874FF9FFF74FF9EFE00
:100D5300E51F2FFFE51E3E900079F0A3EFF080170B
:100D630090007BE0FEA3E0FFC3E51F9F90007AF0B5
:100D7300E51E9E900079F0900076E0FF6048D390E6
:100D8300007AE09458900079E094024043EFB40174
:100D9300087BFF7A0F792A801C900076E0B4020862
:100DA3007BFF7A0F7932800D900076E0B403097BE4
:100DB300FF7A0F793A1212B5E4900076F090007939
:100DC300F0A3F0A3800390007BE51EF0A3E51FF0E2
:010DD30022FD
:1013B80078187C007D007BFF7A0F79AA7E007F0673
:1013C80012060D741AF4FF7518A875191DE4F51A9C
:0F13D800F51B751C558F1DFB7A00791802146BDD
:080FC5008F2B8B2C8A2D892E45
:100FCD00E4F52F78307C00FD7BFF7A0F79B0FE7F42
:100FDD000612060DAB2CAA2DA92E90000112064C5F
:100FED00FF7E00120633FD7C00E52B24A8FBE433C5
:100FFD00CB2DFDEC3BCD2FFFEE3DFEAB2C9000023B
:10100D0012064C2FFFEFF4FF7530A8852B31120619
:10101D0033F53290000112064CF5339000021206A2
:10102D004CF5348F357B007A00793012146B7BFFD1
:10103D007A0F79421212B5E4F52F7BFF7A0F794EB4
:10104D007430252FF8E6753A00F53B1212B5052FD1
:10105D00E52FC3940640E37BFF7A0F79560212B554
:020DD4008F226C
:100DD600E4F526F525F524F523F52AF529F528F574
:100DE60027F52EF52DF52CF52BF52F78307C00FD0B
:100DF6007BFF7A0F79B6FE7F0612060DE522245890
:100E0600FFE433EFF4F536753058852231E4F532D8
:100E1600F533F534F535FB7A00793012146B7BFF28
:100E26007A0F7958753A0085223B1212B5E4F52FF0
:100E36007BFF7A0F794E7471252FF8E6753A00F527
:100E46003B1212B5052FE52FC3940640E37BFF7ACC
:100E56000F79561212B5AF74E4FCFDFE780812063F
:100E6600AFC004C005C006C007AF73E4FCFDFE7842
:100E7600101206AFD003D002D001D000EF4BFBEE2C
:100E86004AFAED49F9EC48F8EB4575F526EAF525F9
:100E9600E9F524E8F523752AE1752908752884758E
:100EA6002738AF26AE25AD24FCE4120144AB2AAAAE
:100EB60029A928A82712003E1201828F2E8E2D8D79
:100EC6002C8C2B7BFF7A0F796E85263D85253C85FC
:100ED600243B85233A1212B57BFF7A0F797A852E49
:100EE6003D852D3C852C3B852B3A1212B57BFF7A2E
:100EF6000F798E1212B57E007F067D007B007A0088
:050F060079710206F8FC
:10125B0078227C007D007BFF7A0F79BC7E007F03B8
:10126B0012060D78257C007D007BFF7A0F79BF7EFF
:10127B00007F0312060D78287C007D007BFF7A0F20
:10128B0079C27E007F0312060D7B007A0079257FE1
:10129B001A120FC57B007A0079287F1C120FC57BB1
:0A12AB00007A0079227F18020FC5B7
:10000E00900071E0700912125B9000717401F07F24
:04001E0004020DD4F7
:10003E00EC4D6011E8497017ED33EC3304600DE4BC
:10004E00FCFFFEFD22E933E8330470F80201EE12E4
:10005E0001B958046009E4CC2481500628500902E5
:10006E0001F82840030201F5C0E0EB4A7044B98064
:10007E0006D0E0FB0201E4EF4E701CBD8008EBFFE2
:10008E00EAFEE9FD80EBE98DF0A4FEE5F002012722
:10009E00E9CDF9EAFEEBFFEF89F0A4FCE5F0CE899D
:1000AE00F0A42EFFE435F0CD89F0A42DFEE435F05A
:1000BE008067EF4E7005BD80D780C3EF8BF0A4AC88
:1000CE00F0EE8BF0A42CFCE435F0F8EF8AF0A42CC3
:1000DE00E5F038FCE433CB8DF0A42CFCE5F03BF8D6
:1000EE00EE8AF0A42CFCE5F038F8E433CF89F0A4C6
:1000FE002CFCE5F038CF3400CE89F0A42FFFE5F0CC
:10010E003EFEE433C98DF0A42EFEE5F039CD8AF023
:10011E00A42FFFE5F03EFEE43DFD33D0E0FB50079B
:10012E000BBB000F0201F8EC2CFCEF33FFEE33FE9D
:06013E00ED33FD0201D0CB
:1001440075F020800E75F010800575F0087D007E36
:10015400007F003392D530D50312068BEC33401068
:10016400EF33FFEE33FEED33FDEC33FCD5F0ED223F
:0E017400E5F0247EA2D513CC92E7CDCEFF227B
:10018200EDD2E7CD33EC3392D524814006E4FFFE75
:10019200FDFC22FCE4CFCECDCC24E0501174FF80D4
:1001A200EDC3CC13CCCD13CDCE13CECF13CF047071
:0701B200F030D5DE02068BE0
:1013E700854F5885505985515AEBC552FBEAC5536D
:1013F700FAE9C554F97F09785B120633F60809E95B
:0E14070070010ADFF4AB52AA53A95402078009
:1001B900E9D2E7C933E833F892D5EDD2E7CD33EC8C
:0701C90033FC5002B2D52205
:1001D000EC30E7100FBF000C0EBE00080DBD000490
:1001E0000BEB6014A2D5EB13FCED92E7FD2274FF3C
:1001F000FCFDFEFF22E480F8A2D574FF13FC7D8095
:03020000E480EFA8
:10072400E56C2458F8E6056C2278553007027858B1
:10073400E475F0011206C20206332000EB7F2ED2CC
:10074400008018EF540F2490D43440D4FF30040BAD
:10075400EF24BFB41A0050032461FFE56D60021555
:100764006D0570E5707002056F30070D7855E475FE
:10077400F0011206C2EF0206790214BB7403D20719
:100784008003E4C207F56C8B558A568957E4F56DEE
:10079400F56FF570E56D60077F2012075F80F575D2
:1007A4006EFFC201C200C202C203C205C206C20871
:1007B40012072DFF700D3007057F00120770AF7010
:1007C400AE6F22B4255FC2D5C20412072DFF24D018
:1007D400B40A00501A75F00A786D30D50508B6FFD2
:1007E4000106C6A426F620D5047002D20380D924BB
:1007F400CFB41A00EF5004C2E5D204020A5DD2015C
:1008040080C6D20080C0D20280BCD2D580BAD205C4
:1008140080B47F2012075F2002077401B56D004089
:10082400F1120724FF12075F020798D208D206804C
:1008340095120724FB120724FA120724F94A4B7075
:100844000679547A0B7BFF20022EE56D602A7E0028
:100854008E8275830012064C60060EEE656E70F093
:10086400C2D5EBC0E0EAC0E0E9C0E0EE120ABDD0B8
:10087400E0F9D0E0FAD0E0FB120633FF60AAEBC047
:10088400E0EAC0E0E9C0E012075FD0E02401F9D05B
:10089400E03400FAD0E0FBE56E0460DCD56ED9806C
:1008A40087D20280A2120AA060F7E56E70010412DA
:1008B4000203A96E600DE56E600914F56E120B4714
:1008C400EF60F3EA30E702F404C3995077EAF425C1
:1008D4006E0430E701E404F56E800D120AA060C1D5
:1008E400EA056E256E120203EA786BF630E701E43E
:1008F400256E04D56E0420050114120ABDE4C0E07F
:10090400120B47786BE6601320E70714F6120747CB
:10091400802204F6D0E014C0E07F00120747E56EA1
:10092400600712073E156E800B30050312073ED098
:10093400E0020798D0E00480C5120AA060A0E56E2A
:1009440004120203786BEAF6E56E200502600104E6
:050954002404120ABD9D
:1009590074FF04C0E0120B47120747E56E20050239
:10096900600312073ED0E0B56EE87F451207517863
:100979006BE67F2B30E7047F2DF404C0E012075F9C
:10098900D0E075F00A84C0F0120748D0E012074899
:10099900020798791080027908C206C2088008D235
:1009A900D5790A8004790AC2D5E56E047002F56E1C
:1009B900E4FAFDFEFF120724FC7B0820011312074D
:1009C90024FD7B1030000A120724FE120724FF7B46
:1009D90020EC3382D592D55013C3E43000069FFF33
:1009E900E49EFEE42001039DFDE49CFCE4CBF8C2F7
:1009F90001EC700CCFCECDCCE824F8F870F3801759
:100A0900C3EF33FFEE33FEED33FDEC33FCEB33FB89
:100A1900994002FB0FD8E9EB300105F8D0E0C44852
:100A2900B201C0E00AEC4D4E4F78207B0070C2EA5B
:100A3900B56E0040BCC0E0120ABFD0F0D0E0200182
:100A490004C4C0E0C4B201C0F0120748D0F0D5F028
:100A5900EB0207981206D2083553099C5808064C30
:100A690008024209A04F09A84409A849081B4309DB
:100A7900AE5508DF46093D4508A9470B7450080AD9
:100A89002D080E2E08312B081223082F200B5D2A62
:100A990007CA4800000829E56EB4FF03756E0612FF
:100AA9000724FC120724FD120724FE120724FF78ED
:100AB90064020232790AA2D5200314300509B9105B
:100AC900020404B9080104A2D52006025001042039
:100AD90002689202B56D005034C0E07F20300319DE
:100AE9007F30A20272067205500F120B16C202C2A3
:100AF90006C205C2087F30800F300503E9C0E01245
:100B0900075F300503D0E0F9D0E0B56DCC300517AB
:100B19007F30B9100C12075F7F583004077F788047
:100B290003B9080312075F3002057F2D02075F7FB3
:100B3900202008F87F2B2006F322920280CF7F0025
:100B4900B4070050052464F8E6FF22286E756C6C22
:100B59002900D2011207243001F8C201786D30D57D
:100B69000108F60207CA2D504349581207242403E5
:100B7900B405004001E4900B6F93120750743A12C8
:0A0B89000750D203756D0402099CA9
:10020300F920E72824F950037907E4F42402FB18C2
:10021300DBFDE624FB5014E9600DE4F618E604F672
:0F022300B40A08E4F6D9F57401F60A22C2D5220E
:10023200ED33EC3392D5FA602AB4FF33EDC2E77B9B
:10024200FF60067A027957E4227A02796020D504A7
:100252007A02795B224E614E002B494E46002D49AF
:100262004E4600E47A08F608DAFC7B00740722E8BE
:10027200C0E0ECC0E0EDC0E0EEC0E0EFC0E0EA7547
:10028200F010A4CAABF075F04DA42BFBE435F0FCE2
:10029200EA2410FAEB34C5FBEC34D9FCEDC2E7FFDB
:1002A20075F056A4F42411C5F0F434C58FF0A42AD5
:1002B200E5F03BE43CF620E7141204FDD0E0FFD069
:1002C200E0FED0E0FDD0E0FC1204308014F4041211
:1002D20004FDD0E0FFD0E0FED0E0FDD0E0FC120053
:1002E2003ED0E0F8E6FAEDD2E7CD33EC332482FBE0
:1002F200E4C3CF33CFCE33CECD33CD33DBF37B0765
:1003020075F00A846004F6081B0AE5F0F6088FF01F
:10031200740AA4FFACF08EF0740AA42CFEACF05068
:10032200010C8DF0740AA42CFDE435F0F608DBDE36
:030332007407222B
:100335000201EEE86480F8E933E83360110460F007
:10034500ED33EC337009E8FCE9FDEAFEEBFF22042E
:1003550060DED3EB9FEA9EE99DE8C2E78CF0C2F729
:1003650095F0400CE8CCF8E9CDF9EACEFAEBCFFBF5
:100375001201B985D0F05804700320D5B3E8047094
:10038500075002B2D50201F892D5EC0460F7E4CC2F
:10039500C0E0C398F8603B94186008400DD0E0FBBE
:1003A5000201D0E4FBFAC9FC8028E830E406E4C980
:1003B500FBE4CAFCE830E305E4C9CACBFCE8540712
:1003C5006010F8C3E913F9EA13FAEB13FBEC13FC1D
:1003D500D8F130F52FC3E49CFCEF9BFFEE9AFEEDC0
:1003E50099FDD0E0FBEF4E4D4C701222DB0302016C
:1003F500F5EC2CFCEF33FFEE33FEED33FDED30E78E
:10040500EB0201D0EF2BFFEE3AFEED39FDD0E0FB1C
:1004150050130BBB00030201F8ED13FDEE13FEEFC5
:0804250013FFEC13FC0201D0EF
:10042D000201F8EC5D046005E8590470030201EE69
:10043D001201B9580460F6EC4860F2EC7004FDFE50
:10044D00FF22C860DB2481C85009C39860025006A2
:10045D000201F59850CAF582E9294B4A7005AB8225
:10046D000201E475F0007C1A7880C3EF9BEE9AEDE3
:10047D0099400DC3EF9BFFEE9AFEED99FDE842F01A
:10048D00DC23ACF0D0E0FFD0E0FED0E0FDAB82206D
:10049D00E7101BEB60BAEC2CFCEF33FFEE33FEEDF7
:1004AD0033FD0201D0E803F830E705C0F075F00028
:1004BD00EF2FFFEE33FEED33FD40B830E7C280AADB
:1004CD003F8000004120000042C80000447A000037
:1004DD00461C400047C35000497424004B189680B9
:1004ED004CBEBC205A0E1BCA6753C21C749DC5AEB0
:1004FD00FB60065407601C232312052BEB54386058
:10050D000912051712052612003EECF8EDF9EEFA68
:10051D00EFCB22EB12052680F1543803241C9004F6
:10052D00CDFE93FC0EEE93FD0EEE930ECE93FF22B9
:03000000021103E7
:0C110300787FE4F6D8FD75817602114A71
:10053D00E709F608DFFA8046E709F208DFFA803EA0
:10054D0088828C83E709F0A3DFFA8032E309F6088D
:10055D00DFFA8078E309F208DFFA807088828C83F5
:10056D00E309F0A3DFFA806489828A83E0A3F608A9
:10057D00DFFA805889828A83E0A3F208DFFA804C83
:10058D0080D280FA80C680D4806980F2803380105A
:10059D0080A680EA809A80A880DA80E280CA8033C3
:1005AD0089828A83ECFAE493A3C8C582C8CCC5833B
:1005BD00CCF0A3C8C582C8CCC583CCDFE9DEE7800B
:1005CD000D89828A83E493A3F608DFF9ECFAA9F08A
:1005DD00EDFB2289828A83ECFAE0A3C8C582C8CCE0
:1005ED00C583CCF0A3C8C582C8CCC583CCDFEADEF9
:1005FD00E880DB89828A83E493A3F208DFF980CC5B
:10060D0088F0EF60010E4E60C388F0ED2402B40453
:10061D000050B9F582EB2402B4040050AF232345FA
:06062D00822390058D738D
:10063300BB010689828A83E0225002E722BBFE02C5
:09064300E32289828A83E49322F8
:10064C00BB010CE58229F582E5833AF583E0225063
:10065C0006E92582F8E622BBFE06E92582F8E222AD
:0D066C00E58229F582E5833AF583E49322C7
:10067900BB010689828A83F0225002F722BBFE0160
:02068900F3225A
:0E068B00C3E49FFFE49EFEE49DFDE49CFC2280
:10069900EB9FF5F0EA9E42F0E99D42F0EC6480C8D8
:0606A90064809845F02278
:1006AF00E8600FEFC333FFEE33FEED33FDEC33FCA9
:0306BF00D8F1224D
:1006C200FAE6FB0808E6F925F0F618E6CA3AF62239
:1006D200D083D082F8E4937012740193700DA3A3B7
:1006E20093F8740193F5828883E4737402936860CB
:0606F200EFA3A3A380DFCB
:1014BB00EFB40A07740D1214C6740A309811A89968
:1014CB00B8130CC2983098FDA899C298B811F63091
:0714DB0099FDC299F5992269
:1006F800EF4E6012EF60010EEDBB010B89828A8319
:10070800F0A3DFFCDEFA2289F05007F709DFFCA925
:0C071800F022BBFEFCF309DFFCA9F0227C
:10110F00021348E493A3F8E493A34003F68001F29B
:10111F0008DFF48029E493A3F85407240CC8C333E1
:10112F00C4540F4420C8834004F456800146F6DFB0
:10113F00E4800B010204081020408090118FE47EA0
:10114F00019360BCA3FF543F30E509541FFEE493A5
:10115F00A360010ECF54C025E060A840B8E493A36C
:10116F00FAE493A3F8E493A3C8C582C8CAC583CA97
:10117F00F0A3C8C582C8CAC583CADFE9DEE780BE4F
:0111F90000F5
:00000001FF
