:10177F00696E697420646F6E652C2073697A6520B9
:10178F00666C6173682025750A0A0000000000006E
:10179F00000000000000000000000000000000003A
:0B17AF0000000000000000000000002F
:1014D8000110000112000111000113005A00000060
:1014E80000000000000000000000000000000000F4
:1014F800000000000000000000020E0000020800CA
:1015080000020A00000214000002160000020C008B
:0115180000D2
:03003B00021A594D
:091A5900C0E0C0D075D000C00748
:091A6200AF86438480EF04F58691
:071A6B00D007D0D0D0E0321B
:030023000216447E
:10164400C0E0C083C082C0D0C0AC75AC0030992764
:10165400C299E511B51304C209801C743A2513F527
:1016640082E43400F583E0F599D2090513E513C348
:101674009420400375130030981CC298741A2510E6
:10168400F582E43400F583E599F00510E510C39480
:10169400204003751000D0ACD0D0D082D083D0E0ED
:0116A4003213
:03000B0002132BB2
:10132B00C0E0C0F0C083C082C0D075D000C000C088
:10133B0001C002C003C004C005C006C007758CF510
:10134B00758A96050DE50D7002050C050FE50F70FE
:10135B0002050EC394E7E50E9403400E750E00755F
:10136B000F000509E50970020508C3E509943BE583
:10137B0008940040267508007509000515E51570E1
:10138B00020514AE14FFE4FCFD7BFE7AFFF9F8D3E3
:10139B001206385006751400751500D007D006D00C
:1013AB0005D004D003D002D001D000D0D0D082D051
:0613BB0083D0F0D0E03207
:1017F40020090EE4F51375110190003AEFF0D29927
:1018040022AE11743A2EF582E43400F583EFF00E23
:10181400EEC394204002E4FEEE651360FBC2AC8E7E
:0318240011D2AC32
:01182700229E
:10000E001205BEFF600C1217F4740129F9E43AFAD6
:03001E0080EE224F
:07194C007FC81219537FC888
:10195300EF6019000000000000000000000000001C
:0D1963000000000000000000001F80E422D2
:101A3B00AD07AC06ED4C601543E11012194C1219B1
:0E1A4B004C7FC8121953ED1D70EA1C80E72273
:10173B004391A053925F43914043924053B1F7437F
:10174B00B20853B1FC53B2FC43B11043B2105395E2
:10175B00EF75AC01439210E4F5AC43950475AC0105
:10176B005392FBF5AC75AC0143B50375AC035392C7
:04177B00FCF5AC22AB
:07000300D2A9D2ACD2AF225A
:1019B600439C01539CEFC29FD29ED29C43B93053A5
:1019C600877F439C4043B940759AEF759BEF43B9B7
:0219D60080226D
:10192600E58954FC4401F58953A4FE53A3FB53896E
:10193600FB5389F775AC0653A4EFE4F5AC758A96AC
:06194600758CF5D28C2225
:1019D800A2AF92008FE3E4F5E4C2AF75E50375E7C3
:1019E8008075E64675E6B900F5E5F5E7A20092AF21
:0119F80022CC
:10197000A2AF9200C2AFE4F5E38FE48DE275E50417
:1019800075E78075E64675E6B900F5E5F5E7A2006E
:0219900092AF14
:011992002232
:0418D800AB07AA06AA
:1018DC00A2AF92008DE28AE38BE4C2AF75E502758C
:1018EC00E78075E64675E6B900E4F5E5F5E7A20094
:0218FC0092AFA9
:0118FE0022C7
:10188500E4FC7D347F031219707F341219D8EC24DF
:1018950000FFE43434FE74002CF582E43400F58353
:0918A500E0FD1218D80CBC1AE594
:0118AE002217
:06003300EF90340093FF82
:0100390022A4
:1019F900E4FEAF0612003374002EF582E43400F5DC
:101A090083EFF00EBE1AEB756F01757000757100EA
:011A190022AA
:10199300438540438590E58554FC4403F585E4F590
:1019A300845385F75385DF43850475AC0753A4EF50
:0319B300F5AC226E
:0D0026008F86E58430E7FB438480AF86229F
:1016F40075E780E4F5E375E44C75E50575E6467534
:10170400E6B90043E2A075E50475E64675E6B9005E
:10171400F5E5F5E775C7507F6412195375E780E462
:10172400F5E375E44075E50475E21875E64675E67B
:07173400B900F5E5F5E7221D
:101A1A0012173B1216F41219931219261219B6123A
:101A2A000003E5E154F84406F5E143E18043E1208F
:011A3A002289
:0C1A7200E4F510F512F511F513C209227D
:0616A5008B2F8A30893111
:1016AB00787A7C007D017BFF7A17799A7E007F2008
:1016BB0012059875410175420075437A75440075A2
:1016CB004500754632852F4785304885314985441D
:1016DB004A85454B85464CAB41AA42A94312185744
:0916EB007B017A00797A02000EFD
:0618AF008B418A428943CF
:1018B500E4FEC2B3AB41AA42A9438E8275830012EE
:1018C50005D7FF12002674692EF8A6070EBE06E49A
:0218D500D2B38C
:0118D70022EE
:1017BA00121A1A121A727FE87E03121A3B7BFF7AF8
:1017CA0017797F75320075331A1216A5C2F8D2F945
:1017DA007F887E13121A3B43E110120F0C7F887E1A
:0A17EA0013121A3BB2F8B2F980EDB9
:101086006865616465723A200030782530325820F0
:10109600007461696C3A20000A00696E6974206602
:1010A60061696C0A006E6861206769750A00616E85
:1010B600203120706861740A00616E2067697520AE
:1010C6006E650A003120706861740A00322070680B
:1010D60061740A003320706861740A005345542015
:1010E6005550204F4B210A0A0A00552068643A20C1
:1010F600252E326620562C200074656D705F5520B3
:101106003D20252E37660A00492068643A20252EA0
:10111600346620412C200074656D705F49203D20A7
:10112600252E37660A005020686965752064756E3D
:10113600673A20252E33662057200A00436F732016
:10114600706869203A20252E3366200A0A000000BE
:101156000000000000000000000000000000000089
:0F1166000000000000000000230000035A5A5A46
:1015190042005E0000420066000042007400004282
:10152900007100004200780000420076000041008E
:10153900730041006C0041006000410061004100FE
:101549006D0041006F004100700041006E000669A6
:061559000000000000008C
:10144D001219F97BFF7A1079861216A5AB6FAA7067
:10145D00A9711205BE753200F5337BFF7A10798FB5
:10146D001216A57BFF7A1079971216A5AB6FAA708D
:10147D00A9719000191205D7753200F5337BFF7AEB
:10148D0010798F1216A57BFF7A10799E1216A5ABD7
:10149D006FAA70A9711205BE6455602C90001912C7
:1014AD0005D764AA60227BFF7A1079A01216A5AB2E
:1014BD006FAA70A9717455120604AB6FAA70A97149
:0B14CD0090001974AA12061602188580
:091A7E00E4FF20B40280027F01A4
:011A8700223C
:051A8800AE0CAF0D22C1
:100CCB00E4F518F519121A888E188F1943E1109054
:100CDB000066E518F0A3E519F0D390005FE09519D5
:100CEB0090005EE09518400F900066E0FFA3E09047
:100CFB00005ECFF0A3EFF090005EE0FEA3E0FFC339
:100D0B00900067E09FFF900066E09EFED3EF940A91
:100D1B00EE94005003020E29121A7E90006CEFF035
:100D2B007019900060E0B40112900074E518F0A304
:100D3B00E519F09000617401F0805D90006CE06447
:100D4B00017055900060E0704F900071E0FEA3E0E1
:100D5B00FFC39423EE9400401DEF9458EE94025081
:100D6B001590006FE0B40102801B9000707401F0CD
:100D7B0090006DF0801DC3900072E094589000714C
:100D8B00E09402400E7BFF7A1079AB1216A5E4902B
:100D9B00006FF0E4900061F0900061E060699000FA
:100DAB0074E0FEA3E0FFD39519EE9518401874FF7D
:100DBB009FFF74FF9EFEE5192FFFE5183E90007113
:100DCB00F0A3EFF08017900074E0FEA3E0FFC3E503
:100DDB00199F900072F0E5189E900071F0C390007F
:100DEB0072E094B0900071E09404401B900070741A
:100DFB0001F090006D04F0E5192444900075F0E5C6
:100E0B001834FD900074F090006CE0900060F0904E
:100E1B000066E0FFA3E090005ECFF0A3EFF0900040
:100E2B0070E0604490006DE0B401197BFF7A10799B
:100E3B00B41216A5900078E518F0A3E519F0900010
:100E4B0073E0801890006DE0B402187BFF7A107984
:100E5B00BF1216A5E4900073F090006F04F0E490BD
:100E6B00006DF0E4900070F0900078E0FEA3E0FFDE
:100E7B00D39519EE9518401874FF9FFF74FF9EFED3
:100E8B00E5192FFFE5183E900076F0A3EFF08017E1
:100E9B00900078E0FEA3E0FFC3E5199F900077F088
:100EAB00E5189E900076F0900073E0FF6048D390B9
:100EBB000077E09458900076E094024043EFB40141
:100ECB00087BFF7A1079CA801C900073E0B402088B
:100EDB007BFF7A1079D2800D900073E0B403097B0D
:100EEB00FF7A1079DA1216A5E4900073F090007671
:100EFB00F0A3F0A38003900078E518F0A3E519F0B8
:010F0B0022C3
:10182800783B7C007D007BFF7A1179547E007F062F
:10183800120598741AF4FF753BA8753C1DE4F53D34
:0F184800F53E753F558F40FB7A00793B0218AF94
:081560008F2F8B308A31893294
:10156800E4F53378347C00FD7BFF7A11795AFE7FED
:1015780006120598AB30AA31A9329000011205D79E
:10158800FF7E001205BEFD7C00E52F24A8FBE43396
:10159800CB2DFDEC3BCD2FFFEE3DFEAB3090000296
:1015A8001205D72FFFEFF4F53A1218287534A885DD
:1015B8002F35AB30AA31A9321205BEF5369000019D
:1015C8001205D7F5379000021205D7F538853A3954
:0915D8007B007A0079340218AF9F
:021175008F26C3
:10117700E4F52AF529F528F527F52B782C7C00FDD1
:101187007BFF7A117960FE7F06120598E5262458C1
:10119700FFE433FEEFF4FD752C5885262DE4F52E7C
:1011A700F52FF530F531FB7A00792C1218AFE526CB
:1011B7002458FFE433FE7C00EF256BFFEC3EFEEF87
:1011C700256CFFEC3EFEEF256DFFEC3EEFF4656E00
:1011D700706EAF6CFDFE780812064EC004C005C0E5
:1011E70006C007AF6BE4FCFDFE781012064ED00375
:1011F700D002D001D000EF4BFBEE4AFAED49F9ECF3
:1012070048F8EB456DF52AEAF529E9F528E8F527C9
:101217007E007F067D007B007A00796912074BE527
:10122700285480FDED6010E52AF52AE529F529E522
:1012370028F52874FFF527AF2AAE29AD28AC272259
:101247007E007F067D007B007A00796912074BE4F8
:04125700FFFEFDFC9D
:01125B002270
:02125C008F26DB
:10125E00E4F52AF529F528F527F52B782C7C00FDE9
:10126E007BFF7A117966FE7F06120598E5262458D3
:10127E00FFE433FEEFF4FD752C5885262DE4F52E94
:10128E00F52FF530F531FB7A00792C1218AFE526E3
:10129E002458FFE433FE7C00EF256BFFEC3EFEEF9F
:1012AE00256CFFEC3EFEEF256DFFEC3EEFF4656E18
:1012BE007056AF6CFDFE780812064EC004C005C015
:1012CE0006C007AF6BE4FCFDFE781012064ED0038D
:1012DE00D002D001D000EF4BFBEE4AFAED49F9EC0B
:1012EE0048F8EB456DF52AEAF529E9F528E8F527E2
:1012FE007E007F067D007B007A00796912074BAF76
:10130E002AAE29AD28AC27227E007F067D007B0009
:0C131E007A00796912074BE4FFFEFDFC29
:01132A0022A0
:1015E10078267C007D007BFF7A11796C7E007F0379
:1015F10012059878297C007D007BFF7A11796F7E36
:10160100007F03120598782C7C007D007BFF7A1106
:1016110079727E007F031205987B007A0079297F19
:101621001A1215607B007A00792C7F1C1215607BE1
:10163100007A0079267F181215607BFF7A1079E213
:031641000216A5E9
:100F0C0090006EE0700C12144D1215E190006E748E
:100F1C0001F07F0412125C9000681206E57525E161
:100F2C00752408752384752238AB6FAA70A971904B
:100F3C0000011206F1435C3AE1AB6FAA70A9719003
:100F4C0000011206618F358E348D338C327BFF7A23
:100F5C001079F01216A57BFF7A1079FF852535855F
:100F6C0024348523338522321216A57F647E001229
:100F7C001A3B7F0312125C90005A1206E57525C5C8
:100F8C00752491752385752236AB6FAA70A9719063
:100F9C0000051206F13D8F5C29AB6FAA70A9719008
:100FAC0000051206618F358E348D338C327BFF7ABF
:100FBC0011790E1216A57BFF7A11791D85253585C1
:100FCC0024348523338522321216A57F647E0012C9
:100FDC001A3B7F061211759000621206E5752567A3
:100FEC007524417523D275223AAB6FAA70A9719002
:100FFC0000091206F140FBD70AAB6FAA70A97190D9
:10100C0000091206618F358E348D338C327BFF7A5A
:10101C0011792C1216A57F647E00121A3BAB6FAAB5
:10102C0070A9719000051206619000011206B512AC
:10103C00003EC004C005C006C007AB6FAA70A97102
:10104C00900009120661D003D002D001D000120129
:10105C0047AB6FAA70A97190000D120691AB6FAAE5
:10106C0070A97190000D1206618F358E348D338C02
:0A107C00327BFF7A1179420216A5BB
:10003E00EC4D6011E8497017ED33EC3304600DE4BC
:10004E00FCFFFEFD22E933E8330470F802021912B8
:10005E0001E458046009E4CC2481500628500902BA
:10006E000223284003020220C0E0EB4A7044B9800C
:10007E0006D0E0FB02020FEF4E701CBD8008EBFFB6
:10008E00EAFEE9FD80EBE98DF0A4FEE5F002012722
:10009E00E9CDF9EAFEEBFFEF89F0A4FCE5F0CE899D
:1000AE00F0A42EFFE435F0CD89F0A42DFEE435F05A
:1000BE008067EF4E7005BD80D780C3EF8BF0A4AC88
:1000CE00F0EE8BF0A42CFCE435F0F8EF8AF0A42CC3
:1000DE00E5F038FCE433CB8DF0A42CFCE5F03BF8D6
:1000EE00EE8AF0A42CFCE5F038F8E433CF89F0A4C6
:1000FE002CFCE5F038CF3400CE89F0A42FFFE5F0CC
:10010E003EFEE433C98DF0A42EFEE5F039CD8AF023
:10011E00A42FFFE5F03EFEE43DFD33D0E0FB50079B
:10012E000BBB000F020223EC2CFCEF33FFEE33FE71
:06013E00ED33FD0201FBA0
:10014400020223EC5D046005E859047003020219FD
:100154001201E4580460F6EC4860F2EC7004FDFE11
:10016400FF22C860DB2481C85009C398600250068E
:100174000202209850CAF582E9294B4A7005AB82E5
:1001840002020F75F0007C1A7880C3EF9BEE9AEDA3
:1001940099400DC3EF9BFFEE9AFEED99FDE842F006
:1001A400DC23ACF0D0E0FFD0E0FED0E0FDAB822059
:1001B400E7101BEB60BAEC2CFCEF33FFEE33FEEDE3
:1001C40033FD0201FBE803F830E705C0F075F000E9
:1001D400EF2FFFEE33FEED33FD40B830E7C280AAC7
:10185700854750854851854952EBC54AFBEAC54B38
:10186700FAE9C54CF97F0978531205BEF60809E96C
:0E18770070010ADFF4AB4AAA4BA94C0208B874
:1001E400E9D2E7C933E833F892D5EDD2E7CD33EC61
:0701F40033FC5002B2D522DA
:1001FB00EC30E7100FBF000C0EBE00080DBD000465
:10020B000BEB6014A2D5EB13FCED92E7FD2274FF10
:10021B00FCFDFEFF22E480F8A2D574FF13FC7D8069
:03022B00E480EF7D
:10085C00E5642450F8E6056422784D3007027850A0
:10086C00E475F0011207150205BE2000EB7F2ED2B5
:10087C00008018EF540F2490D43440D4FF30040B74
:10088C00EF24BFB41A0050032461FFE56560021524
:10089C00650568E5687002056730070D784DE475ED
:1008AC00F001120715EF0206040218FF7403D207B9
:1008BC008003E4C207F5648B4D8A4E894FE4F565DD
:1008CC00F567F568E56560077F2012089780F57578
:1008DC0066FFC201C200C202C203C205C206C20840
:1008EC00120865FF700D3007057F001208A8AF686D
:1008FC00AE6722B4255FC2D5C204120865FF24D0AE
:10090C00B40A00501A75F00A786530D50508B6FFA0
:10091C000106C6A426F620D5047002D20380D92481
:10092C00CFB41A00EF5004C2E5D204020B95D201E9
:10093C0080C6D20080C0D20280BCD2D580BAD2058B
:10094C0080B47F201208972002077401B56500401F
:10095C00F112085CFF1208970208D0D208D2068068
:10096C009512085CFB12085CFA12085CF94A4B7091
:10097C0006798C7A0C7BFF20022EE565602A7E00BE
:10098C008E827583001205D760060EEE656670F0D8
:10099C00C2D5EBC0E0EAC0E0E9C0E0EE120BF5D046
:1009AC00E0F9D0E0FAD0E0FB1205BEFF60AAEBC084
:1009BC00E0EAC0E0E9C0E0120897D0E02401F9D0E9
:1009CC00E03400FAD0E0FBE5660460DCD566D98043
:1009DC0087D20280A2120BD860F7E5667001041270
:1009EC00022EA966600DE566600914F566120C7F8F
:1009FC00EF60F3EA30E702F404C3995077EAF42588
:100A0C00660430E701E404F566800D120BD860C172
:100A1C00EA0566256612022EEA7863F630E701E4F1
:100A2C00256604D5660420050114120BF5E4C0E01C
:100A3C00120C7F7863E6601320E70714F612087F28
:100A4C00802204F6D0E014C0E07F0012087FE56637
:100A5C0060071208761566800B300503120876D0F5
:100A6C00E00208D0D0E00480C5120BD860A0E56687
:100A7C000412022E7863EAF6E56620050260010492
:050A8C002404120BF52B
:100A910074FF04C0E0120C7F12087FE56620050296
:100AA1006003120876D0E0B566E87F4512088978C0
:100AB10063E67F2B30E7047F2DF404C0E012089732
:100AC100D0E075F00A84C0F0120880D0E0120880EE
:100AD1000208D0791080027908C206C2088008D2C3
:100AE100D5790A8004790AC2D5E566047002F566F3
:100AF100E4FAFDFEFF12085CFC7B082001131208DA
:100B01005CFD7B1030000A12085CFE12085CFF7B62
:100B110020EC3382D592D55013C3E43000069FFFF9
:100B2100E49EFEE42001039DFDE49CFCE4CBF8C2BD
:100B310001EC700CCFCECDCCE824F8F870F380171F
:100B4100C3EF33FFEE33FEED33FDEC33FCEB33FB50
:100B5100994002FB0FD8E9EB300105F8D0E0C44819
:100B6100B201C0E00AEC4D4E4F78207B0070C2EA22
:100B7100B5660040BCC0E0120BF7D0F0D0E0200118
:100B810004C4C0E0C4B201C0F0120880D0F0D5F0B6
:100B9100EB0208D0120725096D530AD458093E4CBF
:100BA100093A420AD84F0AE0440AE0490953430A84
:100BB100E6550A17460A754509E1470CAC5009424A
:100BC1002D09462E09692B094A230967200C952A0C
:100BD10009024800000961E566B4FF037566061263
:100BE100085CFC12085CFD12085CFE12085CFF78D0
:100BF1005C02025D790AA2D5200314300509B910FF
:100C0100020404B9080104A2D520060250010420FF
:100C110002689202B565005034C0E07F20300319AC
:100C21007F30A20272067205500F120C4EC202C230
:100C310006C205C2087F30800F300503E9C0E0120B
:100C41000897300503D0E0F9D0E0B565CC30051741
:100C51007F30B9100C1208977F583004077F7880D5
:100C610003B908031208973002057F2D0208977F08
:100C7100202008F87F2B2006F322920280CF7F00EC
:100C8100B407005005245CF8E6FF22286E756C6CF1
:100C91002900D20112085C3001F8C201786530D513
:100CA1000108F60209022D5043495812085C240339
:100CB100B405004001E4900CA793120888743A121D
:0A0CC1000888D203756504020AD406
:10022E00F920E72824F950037907E4F42402FB1897
:10023E00DBFDE624FB5014E9600DE4F618E604F647
:0F024E00B40A08E4F6D9F57401F60A22C2D522E3
:10025D00ED33EC3392D5FA602AB4FF33EDC2E77B70
:10026D00FF60067A027982E4227A02798B20D50426
:10027D007A027986224E614E002B494E46002D4959
:10028D004E4600E47A08F608DAFC7B00740722E893
:10029D00C0E0ECC0E0EDC0E0EEC0E0EFC0E0EA751C
:1002AD00F010A4CAABF075F04DA42BFBE435F0FCB7
:1002BD00EA2410FAEB34C5FBEC34D9FCEDC2E7FFB0
:1002CD0075F056A4F42411C5F0F434C58FF0A42AAA
:1002DD00E5F03BE43CF620E714120488D0E0FFD0B3
:1002ED00E0FED0E0FDD0E0FC1201478014F40412D2
:1002FD000488D0E0FFD0E0FED0E0FDD0E0FC12009D
:10030D003ED0E0F8E6FAEDD2E7CD33EC332482FBB4
:10031D00E4C3CF33CFCE33CECD33CD33DBF37B0739
:10032D0075F00A846004F6081B0AE5F0F6088FF0F4
:10033D00740AA4FFACF08EF0740AA42CFEACF0503D
:10034D00010C8DF0740AA42CFDE435F0F608DBDE0B
:03035D0074072200
:10036000020219E86480F8E933E83360110460F0B0
:10037000ED33EC337009E8FCE9FDEAFEEBFF220403
:1003800060DED3EB9FEA9EE99DE8C2E78CF0C2F7FE
:1003900095F0400CE8CCF8E9CDF9EACEFAEBCFFBCA
:1003A0001201E485D0F05804700320D5B3E804703E
:1003B000075002B2D502022392D5EC0460F7E4CCD8
:1003C000C0E0C398F8603B94186008400DD0E0FB93
:1003D0000201FBE4FBFAC9FC8028E830E406E4C92A
:1003E000FBE4CAFCE830E305E4C9CACBFCE85407E7
:1003F0006010F8C3E913F9EA13FAEB13FBEC13FCF2
:10040000D8F130F52FC3E49CFCEF9BFFEE9AFEED94
:1004100099FDD0E0FBEF4E4D4C701222DB0302023F
:1004200020EC2CFCEF33FFEE33FEED33FDED30E737
:10043000EB0201FBEF2BFFEE3AFEED39FDD0E0FBC6
:1004400050130BBB0003020223ED13FDEE13FEEF6E
:0804500013FFEC13FC0201FB99
:100458003F8000004120000042C80000447A0000AC
:10046800461C400047C35000497424004B1896802E
:100478004CBEBC205A0E1BCA6753C21C749DC5AE25
:10048800FB60065407601C23231204B6EB54386043
:10049800091204A21204B112003EECF8EDF9EEFACA
:1004A800EFCB22EB1204B180F1543803241C9004E2
:1004B80058FE93FC0EEE93FD0EEE930ECE93FF22A4
:030000000213C127
:0C13C100787FE4F6D8FD758171021408F5
:1004C800E709F608DFFA8046E709F208DFFA803E16
:1004D80088828C83E709F0A3DFFA8032E309F60803
:1004E800DFFA8078E309F208DFFA807088828C836B
:1004F800E309F0A3DFFA806489828A83E0A3F6081F
:10050800DFFA805889828A83E0A3F208DFFA804CF8
:1005180080D280FA80C680D4806980F280338010CF
:1005280080A680EA809A80A880DA80E280CA803338
:1005380089828A83ECFAE493A3C8C582C8CCC583B0
:10054800CCF0A3C8C582C8CCC583CCDFE9DEE78080
:100558000D89828A83E493A3F608DFF9ECFAA9F0FF
:10056800EDFB2289828A83ECFAE0A3C8C582C8CC55
:10057800C583CCF0A3C8C582C8CCC583CCDFEADE6E
:10058800E880DB89828A83E493A3F208DFF980CCD0
:1005980088F0EF60010E4E60C388F0ED2402B404C9
:1005A8000050B9F582EB2402B4040050AF23234570
:0605B80082239005187378
:1005BE00BB010689828A83E0225002E722BBFE023B
:0905CE00E32289828A83E493226E
:1005D700BB010CE58229F582E5833AF583E02250D9
:1005E70006E92582F8E622BBFE06E92582F8E22223
:0D05F700E58229F582E5833AF583E493223D
:10060400BB010689828A83F0225002F722BBFE01D5
:02061400F322CF
:10061600F8BB010DE58229F582E5833AF583E8F01A
:10062600225006E92582C8F622BBFE05E92582C8C6
:02063600F222AE
:10063800EB9FF5F0EA9E42F0E99D42F0EC6480C839
:0606480064809845F022D9
:10064E00E8600FEFC333FFEE33FEED33FDEC33FC0A
:03065E00D8F122AE
:10066100BB010DE58229F582E5833AF58302078313
:100671005007E92582F8020777BBFE07E92582F8D2
:1006810002078FE58229F582E5833AF58302079B0C
:10069100BB010DE58229F582E5833AF5830206E582
:1006A1005007E92582F80207E1BBFE07E92582F838
:0406B1000207ED222D
:1006B500BB010DE58229F582E5833AF5830207B88A
:1006C5005007E92582F80207ABBBFE07E92582F84A
:1006D5000207C4E58229F582E5833AF5830207D14D
:0C06E500ECF0A3EDF0A3EEF0A3EFF02288
:1006F100BB010DE58229F582E5833AF583020812F3
:100701005007E92582F80207F9BBFE07E92582F8BF
:040711000208432275
:10071500FAE6FB0808E6F925F0F618E6CA3AF622E5
:10072500D083D082F8E4937012740193700DA3A363
:1007350093F8740193F5828883E473740293686077
:06074500EFA3A3A380DF77
:1018FF00EFB40A07740D12190A740A309811A899D7
:10190F00B8130CC2983098FDA899C298B811F63048
:07191F0099FDC299F5992220
:10074B00EF4E6012EF60010EEDBB010B89828A83C5
:10075B00F0A3DFFCDEFA2289F05007F709DFFCA9D2
:0C076B00F022BBFEFCF309DFFCA9F02229
:1013CD000217BAE493A3F8E493A34003F68001F265
:1013DD0008DFF48029E493A3F85407240CC8C33321
:1013ED00C4540F4420C8834004F456800146F6DFF0
:1013FD00E4800B01020408102040809014D8E47E94
:10140D00019360BCA3FF543F30E509541FFEE493E4
:10141D00A360010ECF54C025E060A840B8E493A3AB
:10142D00FAE493A3F8E493A3C8C582C8CAC583CAD6
:10143D00F0A3C8C582C8CAC583CADFE9DEE780BE8E
:01155F00008B
:0C077700E6FC08E6FD08E6FE08E6FF22AE
:0C078300E0FCA3E0FDA3E0FEA3E0FF22E9
:0C078F00E2FC08E2FD08E2FE08E2FF22A6
:10079B00E493FC740193FD740293FE740393FF22A4
:0D07AB00E6FB08E6F908E6FA08E6CBF822BE
:0C07B800E0F8A3E0F9A3E0FAA3E0FB22C4
:0D07C400E2FB08E2F908E2FA08E2CBF822B5
:1007D100E493F8740193F9740293FA740393FB227E
:0C07E100ECF608EDF608EEF608EFF62244
:0C07ED00ECF208EDF208EEF208EFF22248
:1007F900D083D082E493F608740193F608740293C7
:09080900F608740393F6740473FD
:10081200A8828583F0D083D0821208291208291277
:100822000829120829E473E493A3C583C5F0C5839C
:10083200C8C582C8F0A3C583C5F0C583C8C582C830
:010842002293
:10084300D083D082E493F208740193F20874029384
:09085300F208740393F2740473BB
:00000001FF
