:10268D00696E697420646F6E652C2073697A65209C
:10269D00666C6173682025750A0A00000000000051
:1026AD00000000000000000000000000000000001D
:0B26BD00000000000000000000000012
:10230C00011800011A00011900011B00602E0000C9
:10231C0000000000000000000000000000000000B1
:10232C0000000000000000000000000000000000A1
:10233C000000000000000000000000000000021679
:02234C0000008F
:03003B00022A0096
:092A0000C0E0C0D075D000C00791
:092A0900AF86438480EF04F586DA
:072A1200D007D0D0D0E03264
:030023000225397A
:10253900C0E0C083C082C0D0C0AC75AC0030992760
:10254900C299E519B51B04C209801C744E251BF5F7
:1025590082E43400F583E0F599D209051BE51BC334
:1025690094204003751B0030981CC298742E2518BE
:10257900F582E43400F583E599F00518E518C3946C
:10258900204003751800D0ACD0D0D082D083D0E0E1
:01259900320F
:03000B0002000EE2
:10000E00C0E0758CF8758A300517E5177002051675
:03001E00D0E032FD
:1027000020090EE4F51B75190190004EEFF0D299E7
:1027100022AE19744E2EF582E43400F583EFF00EEC
:10272000EEC394204002E4FEEE651B60FBC2AC8E5B
:0327300019D2AC0F
:012733002283
:10002600120669FF600C122700740129F9E43AFAF6
:0300360080EE2237
:0729C8007FC81229CF7FC870
:1029CF00EF60110000000000000000000000000098
:0529DF00001F80EC2246
:1029AA00AD07AC06ED4C601543E1101229C8122997
:0E29BA00C87FC81229CFED1D70EA1C80E722ED
:102649004391A053925F43914043924053B1F74362
:10265900B20853B1FC53B2FC43B11043B2105395C5
:10266900EF75AC01439210E4F5AC43950475AC01E8
:102679005392FBF5AC75AC0143B50375AC035392AA
:04268900FCF5AC228E
:07000300D2A9D2ACD2AF225A
:1028C100439C01539CEFC29FD29ED29C43B930538B
:1028D100877F439C4043B940759AF3759BF343B995
:0228E100802253
:10283200E58954FC4401F58953A4FE53A3FB538953
:10284200FB5389F775AC0653A4EFE4F5AC758A30F7
:06285200758CF8D28C2207
:10292700A2AF92008FE3E4F5E4C2AF75E50375E764
:102937008075E64675E6B900F5E5F5E7A20092AFC2
:01294700226D
:10285800A2AF9200C2AFE4F5E38FE48DE275E50420
:1028680075E78075E64675E6B900F5E5F5E7A20077
:0228780092AF1D
:01287A00223B
:0427E400AB07AA068F
:1027E800A2AF92008DE28AE38BE4C2AF75E5027571
:1027F800E78075E64675E6B900E4F5E5F5E7A20079
:0228080092AF8D
:01280A0022AB
:10279100E4FC7D347F031228587F34122927EC246E
:1027A10000FFE43434FE74002CF582E43400F58338
:0927B100E0FD1227E40CBC2EE54A
:0127BA0022FC
:062A6C00EF90340093FF1F
:012A72002241
:10294800E4FEAF06122A6C74002EF582E43400F51A
:1029580083EFF00EBE2EEB75100175110075120095
:01296800224C
:10287B00438540438590E58554FC4403F585E4F599
:10288B00845385F75385DF43850475AC0753A4EF59
:03289B00F5AC2277
:0D2A2B008F86E58430E7FB438480AF862270
:10289E0075C7507F641229CF75E780E4F5E375E4C0
:1028AE004075E50475E21475E64675E6B900F5E582
:0328BE00F5E72219
:1029690012264912289E12287B1228321228C112D7
:102979000003E5E154F84406F5E143E18043E12031
:01298900222B
:0C2A3800E4F518F51AF519F51BC2092287
:0625FA008B2B8A2C892DB9
:1026000078A67C007D017BFF7A2679A87E007F205A
:10261000120643753D01753E00753FA67540007575
:10262000410075422E852B43852C44852D458540E0
:1026300046854147854248AB3DAA3EA93F122763E4
:092640007B017A0079A602002654
:0627BB008B3D8A3E893FC0
:1027C100E4FEC2B3AB3DAA3EA93F8E8275830012DF
:1027D1000682FF122A2B740A2EF8A6070EBE06E403
:0227E100D2B371
:0127E30022D3
:10298A00122969122A387BFF7A26798D752E0075ED
:10299A002F2E1225FA122A1943E11012224A80F820
:101CA7006865616465723A200030782530325820C3
:101CB700007461696C3A20000A00696E69742066D5
:101CC7006C617368206661696C0A00696E697420CB
:101CD700666C617368204F4B0A006E686120676904
:101CE700750A00616E206E650A004F4E204F46460A
:101CF7000A0073656C6563742046414E5F49443A38
:101D07002025640A0A0A003320706861740A006695
:101D17006C616720737475636B3A2025640A0A0A3D
:101D270000534554205550204F4B210A0A0A0055AD
:101D37002068643A20252E326620562C200A004956
:101D47002068643A20252E346620412C200A005052
:101D570020686965752064756E673A20252E33669D
:101D670020570A00436F7320706869203A20252E98
:101D77003366200A0A00636F6E6669672050206B1E
:101D870065743A20252E336620572C2069643A2043
:101D97002575200A0A0A0049206B65742075703A78
:101DA70020252E336620410A0050206B657420756C
:101DB700703A20252E336620570A0A0049206B65A2
:101DC7007420646F776E3A20252E336620410A000F
:101DD70050206B657420646F776E3A20252E33662A
:101DE70020570A0A00737461727420636865636B15
:101DF70020737475636B0A0A0A0064656C7461204A
:101E0700503A20252E3266200A0056554F54204D51
:101E17005543205049434B4C4542414C4C0A0A0A12
:101E27000066616E5F69643A2025642C2050206B40
:101E3700657420696E69743A20252E336620570A27
:101E4700000000000000000000000000000000008B
:101E57000000000000000000000000230000035AFB
:021E67005A5AC5
:10234E0002140000010900420072000042007C00ED
:10235E00004200A0000042009D00004200A40000C8
:10236E004200A2000041009F004100820041007423
:10237E000041007500410083004100970041009A22
:10238E000041009600060A00000000000042009B7B
:10239E0000004200980000410095004200760000C7
:1023AE00510084000000000000000000000000004A
:0A23BE0000000000011300010800F8
:04259A008F228D23DC
:10259E007DE87C03AF15AE141229E4EF604DE5091A
:1025AE006049E522B40204B2F98012E522B40104B6
:1025BE00B2F88009E522B40304B2F9B2F8050812A4
:1025CE002A738E148F15E4FCFD7BFE7AFFF9F8D387
:1025DE001206F15005E4F514F515E52375F002A485
:0B25EE00B50808E4B5F004F509F50895
:0125F90022BF
:0A2A44007509017D037F0102259A48
:0A2A4E007509027D037F0202259A3C
:0A2A58007509037D037F0302259A30
:1026C800E4F524E51375F016A4AB102512F9E5110D
:1026D80035F0FA900015120682701CC2F9D2F8F58E
:1026E80024B2F97F967E001229AA0524E524C39412
:0726F8000640EED2F9D2F812
:0126FF0022B8
:1028E300E4F524C2F9D2F8F524B2F9B2F87F967E62
:1028F300001229AA0524E524C3940440ECD2F9D29A
:01290300F8DB
:0129040022B0
:10290500E4F522D2F8C2F9F522B2F8B2F97FFA7EDF
:10291500001229AA0522E522C3940640ECD2F8D27A
:01292500F9B8
:01292600228E
:101E6900E4F5221229487BFF7A1C79A71225FAABDF
:101E790010AA11A912120669752E00F52F7BFF7A97
:101E89001C79B01225FA7BFF7A1C79B81225FAABB6
:101E990010AA11A91290002D120682752E00F52F95
:101EA9007BFF7A1C79B01225FA7BFF7A1C79BF1265
:101EB90025FAAB10AA11A91212066964557003021A
:101EC9001F8F90002D12068264AA7003021F8F7B58
:101ED900FF7A1C79C11225FAAB10AA11A9127455FF
:101EE9001206AFAB10AA11A91290002D74AA1206FE
:101EF900C1E4F522E52275F016A4AB102512F9E527
:101F09001135F0FA900015E41206C1900005120788
:101F1900DB0000000090000512071AC006C007E5A3
:101F29002275F016A4AB102512F9E51135F0FA90D7
:101F3900000DD007D00612074A9000091207DB00EE
:101F490000000090000912071AC006C007E52275B3
:101F5900F016A4AB102512F9E51135F0FA9000112D
:101F6900D007D00612074A9000011207DB000000D3
:101F79000090001674011206C10522E52264026070
:101F890003021EFD80097BFF7A1C79D21225FA0211
:021F990027918E
:092A6200E4FF20B40280027F01B0
:012A6B002248
:052A7300AE16AF1722B2
:1017F800E4F522F523122A738E228F2343E11090F9
:10180800007CE522F0A3E523F0D3900073E0952354
:10181800900072E09522400F90007CE0FFA3E090DA
:101828000072CFF0A3EFF0900072E0FEA3E0FFC3D8
:1018380090007DE09FFF90007CE09EFED3EF940A2D
:10184800EE94005003021956122A62900082EFF0BB
:101858007019900074E0B401129000A0E522F0A382
:10186800E523F09000757401F0805D900082E064DB
:10187800017055900074E0704F90009DE0FEA3E069
:10188800FFC39423EE9400401DEF9458EE94025049
:1018980015900097E0B40102801B90009A7401F043
:1018A800900083F0801DC390009EE0945890009DA6
:1018B800E09402400E7BFF7A1C79E11225FAE4904D
:1018C8000097F0E4900075F0900075E06069900072
:1018D800A0E0FEA3E0FFD39523EE9522401874FF05
:1018E8009FFF74FF9EFEE5232FFFE5223E90009D9B
:1018F800F0A3EFF080179000A0E0FEA3E0FFC3E59F
:10190800239F90009EF0E5229E90009DF0C39000DA
:101918009EE094B890009DE0940B401B90009A7450
:1019280001F090008304F0E523240C9000A1F0E579
:101938002234FE9000A0F0900082E0900074F090B5
:10194800007CE0FFA3E0900072CFF0A3EFF09000DE
:101958009AE06067900083E0B401197BFF7A1C79F4
:10196800EA1225FA9000A4E522F0A3E523F09000FE
:101978009FE0803B900083E06402703AE51375F0C5
:1019880016A4AB102512F9E51135F0FA90001512DE
:101998000682701330A210900094E0B40103121A6A
:1019A800D3121F9B1226C8E490009FF09000970462
:1019B800F0E4900083F0E490009AF09000A4E0FE38
:1019C800A3E0FFD39523EE9522401874FF9FFF7480
:1019D800FF9EFEE5232FFFE5223E9000A2F0A3EF35
:1019E800F080179000A4E0FEA3E0FFC3E5239F90DA
:1019F80000A3F0E5229E9000A2F090009FE0FF7007
:101A080003021AC8D39000A3E094589000A2E0946F
:101A1800025003021AD2EF6401703C7BFF7A1C79F2
:101A2800F11225FAB2A2D2F8D2F9E4900095F0E5C5
:101A38001375F016A4AB102512F9E51135F0FA90DC
:101A48000015E41206C190009BE0FFA3E090009807
:101A5800CFF0A3EFF0805B90009FE0B4021905136C
:101A68005313017BFF7A1C79F9752E0085132F1209
:101A780025FA1228E3803B90009FE0640370337BD3
:101A8800FF7A1D790E1225FA900094E070047F0108
:101A980080027F00900094EFF07BFF7A1D79167525
:101AA8002E00F52F1225FAD2F8D2F9122A738E14C5
:101AB8008F15E490009FF09000A2F0A3F0A380039C
:0A1AC8009000A4E522F0A3E523F04E
:011AD20022F1
:1027340078377C007D007BFF7A1E79487E007F0617
:10274400120643741AF4FF7537A875381DE4F53979
:0F275400F53A753B558F3CFB7A0079370227BB6E
:082455008F2B8B2C8A2D892EA0
:10245D00E4F52F78307C00FD7BFF7A1E794EFE7FF0
:10246D0006120643AB2CAA2DA92E9000011206824E
:10247D00FF7E00120669FD7C00E52B24A8FBE433EA
:10248D00CB2DFDEC3BCD2FFFEE3DFEAB2C90000296
:10249D001206822FFFEFF4F5361227347530A8851A
:1024AD002B31AB2CAA2DA92E120669F53290000105
:1024BD00120682F533900002120682F53485363508
:0924CD007B007A0079300227BB84
:022094008F2893
:10209600E4F52CF52BF52AF529F52D782E7C00FD97
:1020A6007BFF7A1E7954FE7F06120643E5282458E4
:1020B600FFE433FEEFF4FD752E5885282FE4F53046
:1020C600F531F532F533FB7A00792E1227BBE52878
:1020D6002458FFE433FE7C00EF250CFFEC3EFEEFB8
:1020E600250DFFEC3EFEEF250EFFEC3EEFF4650FEF
:1020F600706EAF0DFDFE7808120707C004C005C05C
:1021060006C007AF0CE4FCFDFE7810120707D003EB
:10211600D002D001D000EF4BFBEE4AFAED49F9ECC4
:1021260048F8EB450EF52CEAF52BE9F52AE8F529F2
:102136007E007F067D007B007A00790A120835E56D
:102146002A5480FDED6010E52CF52CE52BF52BE5EA
:102156002AF52A74FFF529AF2CAE2BAD2AAC29221D
:102166007E007F067D007B007A00790A120835E43E
:04217600FFFEFDFC6F
:01217A002242
:02217B008F28AB
:10217D00E4F52CF52BF52AF529F52D782E7C00FDAF
:10218D007BFF7A1E795AFE7F06120643E5282458F6
:10219D00FFE433FEEFF4FD752E5885282FE4F5305E
:1021AD00F531F532F533FB7A00792E1227BBE52890
:1021BD002458FFE433FE7C00EF250CFFEC3EFEEFD0
:1021CD00250DFFEC3EFEEF250EFFEC3EEFF4650F07
:1021DD007056AF0DFDFE7808120707C004C005C08C
:1021ED0006C007AF0CE4FCFDFE7810120707D00304
:1021FD00D002D001D000EF4BFBEE4AFAED49F9ECDD
:10220D0048F8EB450EF52CEAF52BE9F52AE8F5290A
:10221D007E007F067D007B007A00790A120835AFBB
:10222D002CAE2BAD2AAC29227E007F067D007B00D3
:0C223D007A00790A120835E4FFFEFDFC6F
:012249002272
:1029E400AB07AA06122A73C3EF9BFFEE9AFEC3EF4E
:0C29F4009DEE9C40047F0180027F0022C9
:1024D60078227C007D007BFF7A1E79607E007F0378
:1024E60012064378257C007D007BFF7A1E79637E89
:1024F600007F0312064378287C007D007BFF7A1E4E
:1025060079667E007F031206437B007A0079257F79
:102516001A1224557B007A0079287F1C1224557BD9
:10252600007A0079227F181224557BFF7A1D7928BC
:032536000225FA81
:101AD3007F0412217B90007E12079E7527E17526F5
:101AE3000875258475243890007EE0FCA3E0FDA3EF
:101AF300E0FEA3E0FFE4120349AB27AA26A925A829
:101B03002412013690008412079E7BFF7A1D7936DA
:101B1300900084E0FCA3E0FDA3E0FEA3E0F5318E9A
:101B2300308D2F8C2E1225FA7F0312217B90006EAD
:101B330012079E7527C575269175258575243690E0
:101B4300006EE0FCA3E0FDA3E0FEA3E0FFE41203CC
:101B530049AB27AA26A925A824120136900088128A
:101B6300079E7BFF7A1D7946900088E0FCA3E0FD89
:101B7300A3E0FEA3E0F5318E308D2F8C2E1225FAD3
:101B83007F177EB77DD17C38900088E0F8A3E0F919
:101B9300A3E0FAA3E0FB1202DC501590008C1207BD
:101BA300AA000000009000901207AA000000002283
:101BB3007F0612209490007812079E75276775267A
:101BC300417525D275243A900078E0FCA3E0FDA38B
:101BD300E0FEA3E0FFEC120349AB27AA26A925A840
:101BE3002412013690008C12079EE4FFFEFDFC9048
:101BF300008CE0F8A3E0F9A3E0FAA3E0FB1202DC17
:101C0300401D7F007E407D1C7C4690008CE0F8A345
:101C1300E0F9A3E0FAA3E0FB1202DC600C400A90B7
:101C2300008C1207AA000000007BFF7A1D795690F2
:101C3300008CE0FCA3E0FDA3E0FEA3E0F5318E30D1
:101C43008D2F8C2E1225FA900088E0FCA3E0FDA3D3
:101C5300E0FEA3E0FF900084E0F8A3E0F9A3E0FA3C
:101C6300A3E0FB120136A804A905AA06AB0790005E
:101C73008CE0FCA3E0FDA3E0FEA3E0FF12023F9093
:101C8300009012079E7BFF7A1D796B900090E0FC19
:101C9300A3E0FDA3E0FEA3E0F5318E308D2F8C2E63
:031CA3001225FA0D
:011CA600221B
:101F9B0090008CE0FCA3E0FDA3E0FEA3E0FFC006F5
:101FAB00C007E51375F016A4AB102512F9E5113532
:101FBB00F0FA900005D007D00612074A90000512E0
:101FCB00071AC006C007E51375F016A4AB1025124F
:101FDB00F9E51135F0FA90000DD007D00612074A3B
:101FEB00900088E0FCA3E0FDA3E0FEA3E0FFC006A9
:101FFB00C007E51375F016A4AB102512F9E51135E2
:10200B00F0FA900009D007D00612074A9000091287
:10201B00071AC006C007E51375F016A4AB102512FE
:10202B00F9E51135F0FA900011D007D00612074AE6
:10203B00900084E0FCA3E0FDA3E0FEA3E0FFC0065C
:10204B00C007E51375F016A4AB102512F9E5113591
:10205B00F0FA900001D007D00612074A122791E53B
:10206B001375F016A4AB102512F9E51135F0FA90A3
:10207B00000D12071A8F318E308D2F8C2E85133257
:09208B007BFF7A1D797D0225FA24
:10091500900088E0FCA3E0FDA3E0FEA3E0FF9000CB
:1009250084E0F8A3E0F9A3E0FAA3E0FB120136A8FE
:1009350004A905AA06AB0790008CE0FCA3E0FDA383
:10094500E0FEA3E0FF12023F90009012079EE51320
:1009550075F016A4AB102512F9E51135F0FA9000E3
:100965000112076E900084E0FCA3E0FDA3E0FEA366
:10097500E0FF120041C006C007E51375F016A4ABF1
:10098500102512F9E51135F0FA90000112076ED025
:1009950007D00612023FE4FBFA79C8784212013605
:1009A500E4FBFA794078401202DC4003020CB7E51B
:1009B500136003020AD17FDA7E8C7D537C3A900066
:1009C50084E0F8A3E0F9A3E0FAA3E0FB1201369076
:1009D5000084E0F8A3E0F9A3E0FAA3E0FB120136F6
:1009E500C004C005C006C0077FD87ED37D4E7C3EBF
:1009F500900084E0F8A3E0F9A3E0FAA3E0FB12017C
:100A050036D003D002D001D0001200457B797A2977
:100A150079387842120045E4FBFA797A7844120273
:100A25003FC006C007E51375F016A4AB102512F9F3
:100A3500E51135F0FA900009D007D00612074A9063
:100A4500000912071AC006C007E51375F016A4AB16
:100A5500102512F9E51135F0FA900011D007D006EE
:100A650012074A7FB97E1C7D2F7C3A900084E0F8FE
:100A7500A3E0F9A3E0FAA3E0FB120136900084E0BD
:100A8500F8A3E0F9A3E0FAA3E0FB120136C004C025
:100A950005C006C0077F307E647D757C3D9000846F
:100AA500E0F8A3E0F9A3E0FAA3E0FB120136A804FD
:100AB500A905AA06AB07D007D006D005D0041200B9
:100AC500417B0B7A2479DA7840020BF5E513640152
:100AD5006003020C667F157EE57DD27C3A9000842A
:100AE500E0F8A3E0F9A3E0FAA3E0FB1201369000D9
:100AF50084E0F8A3E0F9A3E0FAA3E0FB120136C015
:100B050004C005C006C0077F647ECC7D5D7C3E9039
:100B15000084E0F8A3E0F9A3E0FAA3E0FB120136B4
:100B2500A804A905AA06AB07D007D006D005D004AE
:100B35001200417BD97ABD798A7842120045E4FBDF
:100B4500FA797A784412023FC006C007E51375F0BA
:100B550016A4AB102512F9E51135F0FA900009D06D
:100B650007D00612074A90000912071AC006C007E7
:100B7500E51375F016A4AB102512F9E51135F0FA59
:100B8500900011D007D00612074A7FB47EA57D33A9
:100B95007C3A900084E0F8A3E0F9A3E0FAA3E0FB37
:100BA500120136900084E0F8A3E0F9A3E0FAA3E08F
:100BB500FB120136C004C005C006C0077F607E1F5A
:100BC5007DDD7C3D900084E0F8A3E0F9A3E0FAA385
:100BD500E0FB120136A804A905AA06AB07D007D089
:100BE50006D005D0041200417B037A09792D78419E
:100BF500120045C006C007E51375F016A4AB102515
:100C050012F9E51135F0FA900005D007D006120764
:100C15004A90000512071AC006C007E51375F016BD
:100C2500A4AB102512F9E51135F0FA90000DD007A7
:100C3500D00612074A900084E0FCA3E0FDA3E0FE85
:100C4500A3E0FFC006C007E51375F016A4AB102599
:100C550012F9E51135F0FA900001D007D006120718
:100C65004A122791E51375F016A4AB102512F9E584
:100C75001135F0FA90001112071A8F318E308D2F31
:100C85008C2E7BFF7A1D799E1225FAE51375F016D9
:100C9500A4AB102512F9E51135F0FA90000D1207F5
:100CA5001A8F318E308D2F8C2E7BFF7A1D79B002F5
:100CB50025FAE51375F016A4AB102512F9E51135E3
:100CC500F0FA90000112071A900084E0F8A3E0F909
:100CD500A3E0FAA3E0FB120041C006C007E51375C7
:100CE500F016A4AB102512F9E51135F0FA900001C4
:100CF50012076ED007D00612023FE4FBFA79C878D6
:100D050042120136E4FBFA794078401202DC4003D6
:100D150002101BE5136003020E357FDA7E8C7D53CE
:100D25007C3A900084E0F8A3E0F9A3E0FAA3E0FBA5
:100D3500120136900084E0F8A3E0F9A3E0FAA3E0FD
:100D4500FB120136C004C005C006C0077FD87ED39C
:100D55007D4E7C3E900084E0F8A3E0F9A3E0FAA381
:100D6500E0FB120136D003D002D001D000120045BD
:100D75007B797A2979387842120045E4FBFA797A49
:100D8500784412023FC006C007E51375F016A4AB00
:100D9500102512F9E51135F0FA900009D007D006B3
:100DA50012074A90000912071AC006C007E5137515
:100DB500F016A4AB102512F9E51135F0FA900011E3
:100DC500D007D00612074A7FB97E1C7D2F7C3A904A
:100DD5000084E0F8A3E0F9A3E0FAA3E0FB120136F2
:100DE500900084E0F8A3E0F9A3E0FAA3E0FB120188
:100DF50036C004C005C006C0077F307E647D757CA3
:100E05003D900084E0F8A3E0F9A3E0FAA3E0FB122B
:100E15000136A804A905AA06AB07D007D006D00558
:100E2500D0041200417B0B7A2479DA7840020F59FD
:100E3500E51364016003020FCA7F157EE57DD27C50
:100E45003A900084E0F8A3E0F9A3E0FAA3E0FB12EE
:100E55000136900084E0F8A3E0F9A3E0FAA3E0FBF3
:100E6500120136C004C005C006C0077F647ECC7D74
:100E75005D7C3E900084E0F8A3E0F9A3E0FAA3E0EE
:100E8500FB120136A804A905AA06AB07D007D006B0
:100E9500D005D0041200417BD97ABD798A784212F7
:100EA5000045E4FBFA797A784412023FC006C00790
:100EB500E51375F016A4AB102512F9E51135F0FA16
:100EC500900009D007D00612074A90000912071AA8
:100ED500C006C007E51375F016A4AB102512F9E599
:100EE5001135F0FA900011D007D00612074A7FB4E9
:100EF5007EA57D337C3A900084E0F8A3E0F9A3E079
:100F0500FAA3E0FB120136900084E0F8A3E0F9A310
:100F1500E0FAA3E0FB120136C004C005C006C00715
:100F25007F607E1F7DDD7C3D900084E0F8A3E0F9C5
:100F3500A3E0FAA3E0FB120136A804A905AA06ABB3
:100F450007D007D006D005D0041200417B037A09EB
:100F5500792D7841120045C006C007E51375F016D6
:100F6500A4AB102512F9E51135F0FA900005D0076C
:100F7500D00612074A90000512071AC006C007E5F9
:100F85001375F016A4AB102512F9E51135F0FA909A
:100F9500000DD007D00612074A900084E0FCA3E0BC
:100FA500FDA3E0FEA3E0FFC006C007E51375F0163C
:100FB500A4AB102512F9E51135F0FA900001D00720
:100FC500D00612074A122791E51375F016A4AB1047
:100FD5002512F9E51135F0FA90001112071A8F3133
:100FE5008E308D2F8C2E7BFF7A1D79C31225FAE565
:100FF5001375F016A4AB102512F9E51135F0FA902A
:10100500000D12071A8F318E308D2F8C2E7BFF7AB3
:071015001D79D71225FA2214
:10148B00E4FFFE7DC87C42900084E0F8A3E0F9A362
:10149B00E0FAA3E0FB1202DC600250030217E3E464
:1014AB00FFFE7DA07C4090008CE0F8A3E0F9A3E068
:1014BB00FAA3E0FB1202DC600250030217E3E51310
:1014CB0075F016A4AB102512F9E51135F0FA900062
:1014DB000512071AE4FBFAF9F81202DC40030217B3
:1014EB00E3900098E0FEA3E0FFE4FCFD7BFA7AFFBB
:1014FB00F9F81206F15007E4900098F0A3F0E51309
:10150B0075F016A4AB102512F9E51135F0FA900021
:10151B001512068260030217D390000512071AE416
:10152B00FBFAF9F81202DC40030217D3900095E0A6
:10153B007033900098E0FEA3E0FF7DC47C09122974
:10154B00E4EF70030217F790009BE0FFA3E090001D
:10155B0098CFF0A3EFF09000957401F07BFF7A1D0C
:05156B0079EC0225FAF5
:10157000E4F525F524F523F522120915E51375F098
:1015800016A4AB102512F9E51135F0FA90000512FA
:10159000071A90008CE0F8A3E0F9A3E0FAA3E0FBBF
:1015A0001202DC600250030216C6E51375F016A4A1
:1015B000AB102512F9E51135F0FA90000912071A5F
:1015C000900088E0F8A3E0F9A3E0FAA3E0FB1202A0
:1015D000DC605C405AE51375F016A4AB102512F9D7
:1015E000E51135F0FA90000512076E90008CE0FCD2
:1015F000A3E0FDA3E0FEA3E0FF120041C006C00788
:10160000E51375F016A4AB102512F9E51135F0FAC3
:1016100090000D12076ED007D00612023FE4FBFACD
:1016200079C878421201368F258E248D238C22E5CD
:101630001375F016A4AB102512F9E51135F0FA90E8
:10164000000D12071A90008CE0F8A3E0F9A3E0FA6D
:10165000A3E0FB1202DC6002500302177DE5137564
:10166000F016A4AB102512F9E51135F0FA9000112F
:1016700012071A900088E0F8A3E0F9A3E0FAA3E0CB
:10168000FB1202DC6002500302177DE51375F016B1
:10169000A4AB102512F9E51135F0FA90000D1207F0
:1016A0001AC006C007E51375F016A42512F9E51156
:1016B00035F0FA900005D007D00612074A900011C5
:1016C00012071A02175FE51375F016A4AB10251266
:1016D000F9E51135F0FA90000512071A90008CE038
:1016E000F8A3E0F9A3E0FAA3E0FB120041C006C0B2
:1016F00007E51375F016A4AB102512F9E51135F0C6
:10170000FA90000512076ED007D00612023FE4FBE4
:10171000FA79C87842120136E4FBFAF978401202ED
:10172000DC605A405890008CE0FCA3E0FDA3E0FE92
:10173000A3E0FFC006C007E51375F016A4AB1025A3
:1017400012F9E51135F0FA900005D007D00612071E
:101750004A900088E0FCA3E0FDA3E0FEA3E0FFC008
:1017600006C007E51375F016A4AB102512F9E511B4
:1017700035F0FA900009D007D00612074AE4FFFEC0
:101780007D207C41AB25AA24A923A8221202DC409B
:1017900066E51375F016A4AB102512F9E51135F0C6
:1017A000FA90001574011206C17BFF7A1E7901853B
:1017B000253185243085232F85222E1225FA7BFFA3
:1017C0007A1E79111225FAC2A2D2F9122A738E1446
:0217D0008F1573
:1017D2002290009BE0FFA3E0900098CFF0A3EFF0EF
:1017E2002290009BE0FFA3E0900098CFF0A3EFF0DF
:0617F200E4900095F022D6
:102A1900D2A21229057FE87E031229AAE490009424
:022A2900F02299
:10224A00122A7390009BEEF0A3EFF0900096E070D4
:10225A0044121E691224D6122A73900076EEF0A355
:10226A00EFF09000967401F0752E0085132FE51398
:10227A0075F016A4AB102512F9E51135F0FA9000A5
:10228A000D12071A8F338E328D318C307BFF7A1EF6
:10229A0079281225FA1217F8900094E070609000DD
:1022AA0076E0FEA3E0FF7DF47C011229E4EF602FC3
:1022BA00900076E0FEA3E0FFE41CFD7BFA7AFFF9CA
:1022CA00F8D31206F15007E4900076F0A3F0122A30
:1022DA0073900076EEF0A3EFF0121AD312148BE586
:1022EA001375F016A4AB102512F9E51135F0FA9022
:1022FA000015120682B40103022A44022A4E122A47
:02230A00582257
:10003E000203BCE86480F8E933E83360110460F031
:10004E00ED33EC337009E8FCE9FDEAFEEBFF220428
:10005E0060DED3EB9FEA9EE99DE8C2E78CF0C2F723
:10006E0095F0400CE8CCF8E9CDF9EACEFAEBCFFBEF
:10007E0012038785D0F05804700320D5B3E80470BE
:10008E00075002B2D50203C692D5EC0460F7E4CC59
:10009E00C0E0C398F8603B94186008400DD0E0FBB8
:1000AE0002039EE4FBFAC9FC8028E830E406E4C9AA
:1000BE00FBE4CAFCE830E305E4C9CACBFCE854070C
:1000CE006010F8C3E913F9EA13FAEB13FBEC13FC17
:1000DE00D8F130F52FC3E49CFCEF9BFFEE9AFEEDBA
:1000EE0099FDD0E0FBEF4E4D4C701222DB03020364
:1000FE00C3EC2CFCEF33FFEE33FEED33FDED30E7BA
:10010E00EB02039EEF2BFFEE3AFEED39FDD0E0FB46
:10011E0050130BBB00030203C6ED13FDEE13FEEFEF
:08012E0013FFEC13FC02039E19
:10013600EC4D6011E8497017ED33EC3304600DE4C3
:10014600FCFFFEFD22E933E8330470F80203BC121B
:10015600038758046009E4CC24815006285009021C
:1001660003C62840030203C3C0E0EB4A7044B980CB
:1001760006D0E0FB0203B2EF4E701CBD8008EBFF19
:10018600EAFEE9FD80EBE98DF0A4FEE5F002021F30
:10019600E9CDF9EAFEEBFFEF89F0A4FCE5F0CE89A4
:1001A600F0A42EFFE435F0CD89F0A42DFEE435F061
:1001B6008067EF4E7005BD80D780C3EF8BF0A4AC8F
:1001C600F0EE8BF0A42CFCE435F0F8EF8AF0A42CCA
:1001D600E5F038FCE433CB8DF0A42CFCE5F03BF8DD
:1001E600EE8AF0A42CFCE5F038F8E433CF89F0A4CD
:1001F6002CFCE5F038CF3400CE89F0A42FFFE5F0D3
:100206003EFEE433C98DF0A42EFEE5F039CD8AF02A
:10021600A42FFFE5F03EFEE43DFD33D0E0FB5007A2
:100226000BBB000F0203C6EC2CFCEF33FFEE33FED4
:06023600ED33FD02039E02
:10023C000203C6EC5D046005E8590470030203BCBC
:10024C00120387580460F6EC4860F2EC7004FDFE73
:10025C00FF22C860DB2481C85009C3986002500695
:10026C000203C39850CAF582E9294B4A7005AB8248
:10027C000203B275F0007C1A7880C3EF9BEE9AED06
:10028C0099400DC3EF9BFFEE9AFEED99FDE842F00D
:10029C00DC23ACF0D0E0FFD0E0FED0E0FDAB822060
:1002AC00E7101BEB60BAEC2CFCEF33FFEE33FEEDEA
:1002BC0033FD02039EE803F830E705C0F075F0004B
:1002CC00EF2FFFEE33FEED33FD40B830E7C280AACE
:1002DC0074F8CC6480CCC86480C8F582046043C3D5
:1002EC00EB9FF5F0EA9E42F0E99D42F0E89C45F068
:1002FC0060305018E5825FFFE582F42B5582FB508D
:10030C00210ABA001D09B90019088016E5825BFBA9
:10031C00E582F42F5582FF50090EBE00050DBD007D
:10032C00010CC3EB9FF5F0EA9E42F0E99D42F0E828
:0D033C009C45F06007CC4820E701B3EC229F
:1003490075F020800E75F010800575F0087D007E2F
:10035900007F003392D530D5031206E3EC33401009
:10036900EF33FFEE33FEED33FDEC33FCD5F0ED2238
:0E037900E5F0247EA2D513CC92E7CDCEFF2274
:1027630085434C85444D85454EEBC546FBEAC5473D
:10277300FAE9C548F97F09784F120669F60809E9AD
:0E27830070010ADFF4AB46AA47A9480210789D
:10038700E9D2E7C933E833F892D5EDD2E7CD33ECBC
:0703970033FC5002B2D52235
:10039E00EC30E7100FBF000C0EBE00080DBD0004C0
:1003AE000BEB6014A2D5EB13FCED92E7FD2274FF6C
:1003BE00FCFDFEFF22E480F8A2D574FF13FC7D80C5
:0303CE00E480EFD9
:10101C00E560244CF8E60560227849300702784CEC
:10102C00E475F0011207FF0206692000EB7F2ED257
:10103C00008018EF540F2490D43440D4FF30040BAC
:10104C00EF24BFB41A0050032461FFE56160021560
:10105C00610564E5647002056330070D7849E47539
:10106C00F0011207FFEF0206AF02280B7403D20740
:10107C008003E4C207F5608B498A4A894BE4F56129
:10108C00F563F564E56160077F2012105780F575F4
:10109C0062FFC201C200C202C203C205C206C2087C
:1010AC00121025FF700D3007057F00121068AF6419
:1010BC00AE6322B4255FC2D5C204121025FF24D022
:1010CC00B40A00501A75F00A786130D50508B6FFDD
:1010DC000106C6A426F620D5047002D20380D924BA
:1010EC00CFB41A00EF5004C2E5D204021355D2015A
:1010FC0080C6D20080C0D20280BCD2D580BAD205C4
:10110C0080B47F201210572002077401B561004093
:10111C00F112101CFF121057021090D208D2068048
:10112C009512101CFB12101CFA12101CF94A4B7071
:10113C0006794C7A147BFF20022EE561602A7E0032
:10114C008E8275830012068260060EEE656270F068
:10115C00C2D5EBC0E0EAC0E0E9C0E0EE1213B5D0B6
:10116C00E0F9D0E0FAD0E0FB120669FF60AAEBC010
:10117C00E0EAC0E0E9C0E0121057D0E02401F9D059
:10118C00E03400FAD0E0FBE5620460DCD562D98083
:10119C0087D20280A212139860F7E56270010412E4
:1011AC0003D1A962600DE562600914F56212143F67
:1011BC00EF60F3EA30E702F404C3995077EAF425C0
:1011CC00620430E701E404F562800D12139860C1EB
:1011DC00EA056225621203D1EA785FF630E701E492
:1011EC00256204D56204200501141213B5E4C0E095
:1011FC0012143F785FE6601320E70714F612103FD5
:10120C00802204F6D0E014C0E07F0012103FE562AB
:10121C0060071210361562800B300503121036D0A1
:10122C00E0021090D0E00480C512139860A0E56233
:10123C00041203D1785FEAF6E5622005026001042E
:05124C0024041213B59B
:1012510074FF04C0E012143F12103FE56220050242
:101261006003121036D0E0B562E87F45121049786C
:101271005FE67F2B30E7047F2DF404C0E0121057A6
:10128100D0E075F00A84C0F0121040D0E012104096
:10129100021090791080027908C206C2088008D233
:1012A100D5790A8004790AC2D5E562047002F56233
:1012B100E4FAFDFEFF12101CFC7B08200113121042
:1012C1001CFD7B1030000A12101CFE12101CFF7B4B
:1012D10020EC3382D592D55013C3E43000069FFF32
:1012E100E49EFEE42001039DFDE49CFCE4CBF8C2F6
:1012F10001EC700CCFCECDCCE824F8F870F3801758
:10130100C3EF33FFEE33FEED33FDEC33FCEB33FB88
:10131100994002FB0FD8E9EB300105F8D0E0C44851
:10132100B201C0E00AEC4D4E4F78207B0070C2EA5A
:10133100B5620040BCC0E01213B7D0F0D0E020018C
:1013410004C4C0E0C4B201C0F0121040D0F0D5F026
:10135100EB02109012080F112D5312945810FE4CED
:1013610010FA4212984F12A04412A04911134312CD
:10137100A65511D74612354511A147146C501102DB
:101381002D11062E11292B110A2311272014552A5C
:1013910010C24800001121E562B4FF037562061214
:1013A100101CFC12101CFD12101CFE12101CFF78E8
:1013B10058020400790AA2D5200314300509B91096
:1013C100020404B9080104A2D52006025001042038
:1013D10002689202B561005034C0E07F20300319E9
:1013E1007F30A20272067205500F12140EC202C2A1
:1013F10006C205C2087F30800F300503E9C0E01244
:101401001057300503D0E0F9D0E0B561CC300517B5
:101411007F30B9100C1210577F583004077F788045
:1014210003B908031210573002057F2D0210577FB0
:10143100202008F87F2B2006F322920280CF7F0024
:10144100B4070050052458F8E6FF22286E756C6C2D
:101451002900D20112101C3001F8C201786130D587
:101461000108F60210C22D5043495812101C2403E2
:10147100B405004001E490146793121048743A12C5
:0A1481001048D203756104021294B2
:1003D100F920E72824F950037907E4F42402FB18F3
:1003E100DBFDE624FB5014E9600DE4F618E604F6A3
:0F03F100B40A08E4F6D9F57401F60A22C2D5223F
:10040000ED33EC3392D5FA602AB4FF33EDC2E77BCB
:10041000FF60067A047925E4227A04792E20D50437
:100420007A047929224E614E002B494E46002D490F
:100430004E4600E47A08F608DAFC7B00740722E8EE
:10044000C0E0ECC0E0EDC0E0EEC0E0EFC0E0EA7577
:10045000F010A4CAABF075F04DA42BFBE435F0FC12
:10046000EA2410FAEB34C5FBEC34D9FCEDC2E7FF0B
:1004700075F056A4F42411C5F0F434C58FF0A42A05
:10048000E5F03BE43CF620E714120533D0E0FFD062
:10049000E0FED0E0FDD0E0FC12023F8014F4041234
:1004A0000533D0E0FFD0E0FED0E0FDD0E0FC12014B
:1004B00036D0E0F8E6FAEDD2E7CD33EC332482FB18
:1004C000E4C3CF33CFCE33CECD33CD33DBF37B0795
:1004D00075F00A846004F6081B0AE5F0F6088FF050
:1004E000740AA4FFACF08EF0740AA42CFEACF05099
:1004F000010C8DF0740AA42CFDE435F0F608DBDE67
:030500007407225B
:100503003F8000004120000042C80000447A000000
:10051300461C400047C35000497424004B18968082
:100523004CBEBC205A0E1BCA6753C21C749DC5AE79
:10053300FB60065407601C2323120561EB543860EB
:100543000912054D12055C120136ECF8EDF9EEFACD
:10055300EFCB22EB12055C80F1543803241C900589
:1005630003FE93FC0EEE93FD0EEE930ECE93FF224D
:030000000223C90F
:0C23C900787FE4F6D8FD758164022410D2
:10057300E709F608DFFA8046E709F208DFFA803E6A
:1005830088828C83E709F0A3DFFA8032E309F60857
:10059300DFFA8078E309F208DFFA807088828C83BF
:1005A300E309F0A3DFFA806489828A83E0A3F60873
:1005B300DFFA805889828A83E0A3F208DFFA804C4D
:1005C30080D280FA80C680D4806980F28033801024
:1005D30080A680EA809A80A880DA80E280CA80338D
:1005E30089828A83ECFAE493A3C8C582C8CCC58305
:1005F300CCF0A3C8C582C8CCC583CCDFE9DEE780D5
:100603000D89828A83E493A3F608DFF9ECFAA9F053
:10061300EDFB2289828A83ECFAE0A3C8C582C8CCA9
:10062300C583CCF0A3C8C582C8CCC583CCDFEADEC2
:10063300E880DB89828A83E493A3F208DFF980CC24
:1006430088F0EF60010E4E60C388F0ED2402B4041D
:100653000050B9F582EB2402B4040050AF232345C4
:0606630082239005C37321
:10066900BB010689828A83E0225002E722BBFE028F
:09067900E32289828A83E49322C2
:10068200BB010CE58229F582E5833AF583E022502D
:1006920006E92582F8E622BBFE06E92582F8E22277
:0D06A200E58229F582E5833AF583E4932291
:1006AF00BB010689828A83F0225002F722BBFE012A
:0206BF00F32224
:1006C100F8BB010DE58229F582E5833AF583E8F06F
:1006D100225006E92582C8F622BBFE05E92582C81B
:0206E100F22203
:0E06E300C3E49FFFE49EFEE49DFDE49CFC2228
:1006F100EB9FF5F0EA9E42F0E99D42F0EC6480C880
:0607010064809845F0221F
:10070700E8600FEFC333FFEE33FEED33FDEC33FC50
:03071700D8F122F4
:10071A00BB010DE58229F582E5833AF58302086D6E
:10072A005007E92582F8020861BBFE07E92582F82D
:10073A00020879E58229F582E5833AF5830208857C
:10074A00BB010DE58229F582E5833AF58302079E0E
:10075A005007E92582F80208CBBBFE07E92582F893
:04076A000208D72288
:10076E00BB010DE58229F582E5833AF5830208A2E5
:10077E005007E92582F8020895BBFE07E92582F8A5
:10078E000208AEE58229F582E5833AF5830208BBBD
:0C079E00ECF0A3EDF0A3EEF0A3EFF022CE
:1007AA00A8828583F0D083D0821207C11207C112B2
:1007BA0007C11207C1E473E493A3C583C5F0C583D7
:1007CA00C8C582C8F0A3C583C5F0C583C8C582C899
:0107DA0022FC
:1007DB00BB010DE58229F582E5833AF5830207AA71
:1007EB005007E92582F80208E3BBFE07E92582F8EA
:0407FB000208FC22D2
:1007FF00FAE6FB0808E6F925F0F618E6CA3AF622FB
:10080F00D083D082F8E4937012740193700DA3A378
:10081F0093F8740193F5828883E47374029368608C
:06082F00EFA3A3A380DF8C
:10280B00EFB40A07740D122816740A309811A899A0
:10281B00B8130CC2983098FDA899C298B811F6302D
:07282B0099FDC299F5992205
:10083500EF4E6012EF60010EEDBB010B89828A83DA
:10084500F0A3DFFCDEFA2289F05007F709DFFCA9E7
:0C085500F022BBFEFCF309DFFCA9F0223E
:1023D50002298AE493A3F8E493A34003F68001F26B
:1023E50008DFF48029E493A3F85407240CC8C33309
:1023F500C4540F4420C8834004F456800146F6DFD8
:10240500E4800B010204081020408090230CE47E38
:10241500019360BCA3FF543F30E509541FFEE493CC
:10242500A360010ECF54C025E060A840B8E493A393
:10243500FAE493A3F8E493A3C8C582C8CAC583CABE
:10244500F0A3C8C582C8CAC583CADFE9DEE780BE76
:0123C8000014
:0C086100E6FC08E6FD08E6FE08E6FF22C3
:0C086D00E0FCA3E0FDA3E0FEA3E0FF22FE
:0C087900E2FC08E2FD08E2FE08E2FF22BB
:10088500E493FC740193FD740293FE740393FF22B9
:0D089500E6FB08E6F908E6FA08E6CBF822D3
:0C08A200E0F8A3E0F9A3E0FAA3E0FB22D9
:0D08AE00E2FB08E2F908E2FA08E2CBF822CA
:1008BB00E493F8740193F9740293FA740393FB2293
:0C08CB00ECF608EDF608EEF608EFF62259
:0C08D700ECF208EDF208EEF208EFF2225D
:1008E300D083D082E493F608740193F608740293DC
:0908F300F608740393F674047313
:1008FC00D083D082E493F208740193F208740293CB
:09090C00F208740393F274047301
:00000001FF
