:10180200696E697420646F6E652C2073697A652035
:10181200666C6173682025750A0A000000000000EA
:1018220000000000000000000000000000000000B6
:0B1832000000000000000000000000AB
:1015FE00011000011200011100011300020E000083
:10160E0002080000020A0000021400000216000088
:04161E00020C0000BA
:03003B00021AC0E6
:091AC000C0E0C0D075D000C007E1
:091AC900AF86438480EF04F5862A
:071AD200D007D0D0D0E032B4
:030023000216CCF6
:1016CC00C0E0C083C082C0D0C0AC75AC00309927DC
:1016DC00C299E511B51304C20C801C743D2513F599
:1016EC0082E43400F583E0F599D20C0513E513C3BD
:1016FC009420400375130030981CC298741D25105B
:10170C00F582E43400F583E599F00510E510C394F7
:10171C00204003751000D0ACD0D0D082D083D0E064
:01172C00328A
:03000B000214DC00
:1014DC00C0E0C0F0C083C082C0D075D000C000C0D6
:1014EC0001C002C003C004C005C006C007758CF85B
:1014FC00758A30050DE50D7002050C050FE50F70B2
:10150C0002050EC394E7E50E9403400E750E0075AC
:10151C000F000509E50970020508C3E509943BE5D0
:10152C0008940040267508007509000515E515702E
:10153C00020514AE14FFE4FCFD7BFE7AFFF9F8D330
:10154C001206625006751400751500D007D006D02F
:10155C0005D004D003D002D001D000D0D0D082D09E
:06156C0083D0F0D0E03254
:10183D00200C0EE4F51375110190003DEFF0D299D7
:10184D0022AE11743D2EF582E43400F583EFF00ED7
:10185D00EEC394204002E4FEEE651360FBC2AC8E35
:03186D0011D2ACE9
:011870002255
:10000E001205FCFF600C12183D740129F9E43AFA4E
:03001E0080EE224F
:071AA4007FC8121AAB7FC8D6
:101AAB00EF601100000000000000000000000000CB
:051ABB00001F80EC2279
:101A8600AD07AC06ED4C601543E110121AA4121A0C
:0E1A9600A47FC8121AABED1D70EA1C80E72277
:10177C004391A053925F43914043924053B1F7433E
:10178C00B20853B1FC53B2FC43B11043B2105395A1
:10179C00EF75AC01439210E4F5AC43950475AC01C4
:1017AC005392FBF5AC75AC0143B50375AC03539286
:0417BC00FCF5AC226A
:07000300D2A9D2ACD2AF225A
:101A2200439C01539CEFC29FD29ED29C43B9305338
:101A3200877F439C4043B940759AF3759BF343B942
:021A4200802200
:10196F00E58954FC4401F58953A4FE53A3FB538925
:10197F00FB5389F775AC0653A4EFE4F5AC758A30C9
:06198F00758CF8D28C22D9
:101A4400A2AF92098FE3E4F5E4C2AF75E50375E74D
:101A54008075E64675E6B900F5E5F5E7A20992AFAB
:011A6400225F
:1019B900A2AF920AC2AFE4F5E38FE48DE275E504C4
:1019C90075E78075E64675E6B900F5E5F5E7A20A1B
:0219D90092AFCB
:0119DB0022E9
:04192100AB07AA0660
:10192500A2AF920B8DE28AE38BE4C2AF75E5027537
:10193500E78075E64675E6B900E4F5E5F5E7A20B3F
:0219450092AF5F
:01194700227D
:1018CE00E4FC7D347F031219B97F34121A44EC24E0
:1018DE0000FFE43434FE74002CF582E43400F5830A
:0918EE00E0FD1219210CBC1DE5FE
:0118F70022CE
:06003300EF90340093FF82
:0100390022A4
:10199500E4FEAF0612003374002EF582E43400F540
:1019A50083EFF00EBE1DEB900000E0757B00757CAB
:0319B50000F57DBD
:0119B800220C
:1019DC00438540438590E58554FC4403F585E4F547
:1019EC00845385F75385DF43850475AC0753A4EF07
:0319FC00F5AC2225
:0D0026008F86E58430E7FB438480AF86229F
:1019FF0075C7507F64121AAB75E780E4F5E375E4A1
:101A0F004075E50475E21475E64675E6B900F5E52F
:031A1F00F5E722C6
:101A650012177C1219FF1219DC12196F121A2212A1
:101A75000003E5E154F84406F5E143E18043E12044
:011A8500223E
:06172D008B3B8A3C893D64
:10173300787D7C007D017BFF7A18791D7E007F20F8
:101743001205D6754D01754E00754F7D75500075A8
:10175300510075523E853B53853C54853D5585501C
:1017630056855157855258AB4DAA4EA94F1218A012
:091773007B017A00797D02000E71
:0618F8008B418A42894386
:1018FE00E4FEC2B3AB41AA42A9438E8275830012A5
:10190E000615FF12002674752EF8A6070EBE06E405
:02191E00D2B342
:0119200022A4
:1017C000121A65E4F510F512F511F513C20C7FE855
:1017D0007E03121A867BFF7A187902753E00753FE8
:1017E0001D12172DD2F8C2F97FB87E0B121A86434C
:1017F000E110120EAF7F887E13121A86B2F8B2F98A
:0218000080ED79
:1012F1006E6861206769750A00616E20312070682F
:1013010061740A00616E20676975206E650A00319B
:1013110020706861740A003220706861740A0033B9
:1013210020706861740A00646174612073656E6481
:101331003A200030782530325820000A0044617488
:1013410061207265632072656720307825303258DC
:101351003A200076616C7565203D20256C64200A79
:10136100002D2D2D2D2D2D2D2D2D2D2D2D2D2D2DD9
:101371002D2D2D2D2D2D2D2D2D2D2D2D2D2D0A00EC
:1013810076616C7565203D20256C750A00534554C6
:10139100205550204F4B210A0A0A00552068643A13
:1013A10020252E326620562C200074656D705F5505
:1013B100203D20252E37660A0A00492068643A201C
:1013C100252E346620412C200074656D705F492004
:1013D1003D20252E37660A0A000A50206869657586
:1013E1002064756E673A20252E336620570A0A005D
:1013F100636F73207068693A20252E33662072610D
:101401006469616E0A0A000000000000000000002B
:1014110000000000000000000000000000000000CB
:0814210000230000035A5A5A8F
:10162200420061000042006900004200770000426F
:101632000074000042007B0000420079000041007B
:10164200760041006F0041006300410064004100E8
:101652007000410072004100730041007100067584
:0616620000000000000082
:01000A0022D3
:091AD900E4FF20B40280027F0149
:011AE20022E1
:051AE300AE0CAF0D2266
:100C6E00E4F518F519121AE38E188F1943E1109056
:100C7E000069E518F0A3E519F0D3900062E095192C
:100C8E00900061E09518400F900069E0FFA3E0909E
:100C9E000061CFF0A3EFF0900061E0FEA3E0FFC390
:100CAE0090006AE09FFF900069E09EFED3EF940AE9
:100CBE00EE94005003020DCC121AD990006FEFF093
:100CCE007019900063E0B40112900077E518F0A35C
:100CDE00E519F09000647401F0805D90006FE0649F
:100CEE00017055900063E0704F900074E0FEA3E039
:100CFE00FFC39423EE9400401DEF9458EE940250DF
:100D0E0015900072E0B40102801B9000737401F024
:100D1E00900070F0801DC3900075E09458900074A0
:100D2E00E09402400E7BFF7A1279F112172DE490B7
:100D3E000072F0E4900064F0900064E0606990004E
:100D4E0077E0FEA3E0FFD39519EE9518401874FFD7
:100D5E009FFF74FF9EFEE5192FFFE5183E9000746D
:100D6E00F0A3EFF08017900077E0FEA3E0FFC3E55D
:100D7E00199F900075F0E5189E900074F0C39000D6
:100D8E0075E094B0900074E09404401B900073746E
:100D9E0001F090007004F0E5192444900078F0E51D
:100DAE001834FD900077F090006FE0900063F090A3
:100DBE000069E0FFA3E0900061CFF0A3EFF0900098
:100DCE0073E06044900070E0B401197BFF7A1279F1
:100DDE00FA12172D90007BE518F0A3E519F090009C
:100DEE0076E08018900070E0B402187BFF7A1379D9
:100DFE000512172DE4900076F090007204F0E49046
:100E0E000070F0E4900073F090007BE0FEA3E0FF32
:100E1E00D39519EE9518401874FF9FFF74FF9EFE30
:100E2E00E5192FFFE5183E900079F0A3EFF080173B
:100E3E0090007BE0FEA3E0FFC3E5199F90007AF0DF
:100E4E00E5189E900079F0900076E0FF6048D39010
:100E5E00007AE09458900079E094024043EFB40198
:100E6E00087BFF7A137910801C900076E0B402089C
:100E7E007BFF7A137918800D900076E0B403097B1E
:100E8E00FF7A13792012172DE4900076F0900079F6
:100E9E00F0A3F0A3800390007BE518F0A3E519F012
:010EAE002221
:10187100783B7C007D007BFF7A1479087E007F062F
:101881001205D6741AF4FF753BA8753C1DE4F53DAD
:0F189100F53E753F558F40FB7A00793B0218F802
:081429008F2F8B308A318932CC
:10143100E4F53378347C00FD7BFF7A14790EFE7F6E
:10144100061205D6AB30AA31A93290000112061559
:10145100FF7E001205FCFD7C00E52F24A8FBE43390
:10146100CB2DFDEC3BCD2FFFEE3DFEAB30900002CE
:101471001206152FFFEFF4F53A1218717534A8858D
:101481002F35AB30AA31A9321205FCF53690000197
:10149100120615F537900002120615F538853A390E
:1014A1007B007A0079341218F87BFF7A13792812BD
:1014B100172DE4F5337BFF7A13793474342533F82F
:1014C100E6753E00F53F12172D0533E533C394064B
:0B14D10040E37BFF7A13793C02172DEB
:02106A008F26CF
:10106C00E4F52AF529F528F527F52B782C7C00FDDD
:10107C007BFF7A147914FE7F061205D6E5262458D8
:10108C00F533E433F532E533F4F534752C58852615
:10109C002DE4F52EF52FF530F531FB7A00792C1275
:1010AC0018F87BFF7A13793E753E0085263F1217A0
:1010BC002DE4F52B7BFF7A1379347475252BF8E628
:1010CC00753E00F53F12172D052BE52BC3940640FA
:1010DC00E37BFF7A13793C12172DE5262458FFE4A5
:1010EC0033FE7C00EF2577FFEC3EFEEF2578FFEC1E
:1010FC003EFEEF2579F533EC3EF532E533F4F5346D
:10110C00657A60030211A4AF78FDFE7808120678A8
:10111C00C004C005C006C007AF77E4FCFDFE781024
:10112C00120678D003D002D001D000EF4BFBEE4A70
:10113C00FAED49F9EC48F8EB4579F52AEAF529E995
:10114C00F528E8F5277E007F067D007B007A007984
:10115C0075120751E4FFFEE5285480FDE4FCED60B8
:10116C0010E52AF52AE529F529E528F52874FFF577
:10117C00277BFF7A137954852A4185294085283F9E
:10118C0085273E12172D7BFF7A13796212172DAF2C
:10119C002AAE29AD28AC27227E007F067D007B007D
:0C11AC007A007975120751E4FFFEFDFC8B
:0111B8002214
:0211B9008F267F
:1011BB00E4F52AF529F528F527F52B782C7C00FD8D
:1011CB007BFF7A14791AFE7F061205D6E526245882
:1011DB00F533E433F532E533F4F534752C588526C5
:1011EB002DE4F52EF52FF530F531FB7A00792C1225
:1011FB0018F87BFF7A13793E753E0085263F121750
:10120B002DE4F52B7BFF7A1379347475252BF8E6D7
:10121B00753E00F53F12172D052BE52BC3940640A9
:10122B00E37BFF7A13793C12172DE5262458FFE454
:10123B0033FE7C00EF2577FFEC3EFEEF2578FFECCD
:10124B003EFEEF2579F533EC3EF532E533F4F5341C
:10125B00657A7074AF78FDFE7808120678C004C00A
:10126B0005C006C007AF77E4FCFDFE7810120678C8
:10127B00D003D002D001D000EF4BFBEE4AFAED4980
:10128B00F9EC48F8EB4579F52AEAF529E9F528E870
:10129B00F5277E007F067D007B007A0079751207AB
:1012AB00517BFF7A137981852A4185294085283F17
:1012BB0085273E12172D7BFF7A13796212172DAFFC
:1012CB002AAE29AD28AC27227BFF7A13796212173D
:1012DB002D7E007F067D007B007A00797512075109
:0512EB00E4FFFEFDFC24
:0112F00022DB
:1016690078267C007D007BFF7A1479207E007F0339
:101679001205D678297C007D007BFF7A1479237EB8
:10168900007F031205D6782C7C007D007BFF7A143D
:1016990079267E007F031205D67B007A0079297F9F
:1016A9001A1214297B007A00792C7F1C1214297BC9
:1016B900007A0079267F181214297BFF7A13798E14
:0316C90002172DD8
:100EAF00900071E0700C12000A12166990007174B4
:100EBF0001F07F041211B990006B12070F7525E135
:100ECF0075240875238475223890006BE0FCA3E02D
:100EDF00FDA3E0FEA3E0FFE41201E4AB25AA24A9E1
:100EEF0023A82212003EAB7BAA7CA97D900004129E
:100EFF0006BBAB7BAA7CA97D90000412068B8F41A9
:100F0F008E408D3F8C3E7BFF7A13799C12172D7B81
:100F1F00FF7A1379AB85254185244085233F8522B0
:100F2F003E12172D7F031211B990005D12070F7536
:100F3F0025C575249175238575223690005DE0FCDB
:100F4F00A3E0FDA3E0FEA3E0FFE41201E4AB25AABA
:100F5F0024A923A82212003E7B3B7A707916784091
:100F6F00120147AB7BAA7CA97D9000081206BBAB90
:100F7F007BAA7CA97D90000812068B8F418E408D35
:100F8F003F8C3E7BFF7A1379BB12172D7BFF7A13B1
:100F9F0079CA85254185244085233F85223E121736
:100FAF002D7F0612106A90006512070F7525677561
:100FBF0024417523D275223A900065E0FCA3E0FD31
:100FCF00A3E0FEA3E0FFEC1201E4AB25AA24A923C2
:100FDF00A82212003EAB7BAA7CA97D9000101206BE
:100FEF00BBAB7BAA7CA97D90001012068B8F418E24
:100FFF00408D3F8C3E7BFF7A1379DA12172DAB7B36
:10100F00AA7CA97D90000812068B9000041206DFBF
:10101F0012003EC004C005C006C007AB7BAA7CA966
:10102F007D90001012068BD003D002D001D0001299
:10103F000147AB7BAA7CA97D9000181206BBAB7B46
:10104F00AA7CA97D90001812068B8F418E408D3F90
:0B105F008C3E7BFF7A1379F102172D05
:10003E00EC4D6011E8497017ED33EC3304600DE4BC
:10004E00FCFFFEFD22E933E8330470F8020257127A
:10005E00022258046009E4CC24815006285009027B
:10006E00026128400302025EC0E0EB4A7044B98090
:10007E0006D0E0FB02024DEF4E701CBD8008EBFF78
:10008E00EAFEE9FD80EBE98DF0A4FEE5F002012722
:10009E00E9CDF9EAFEEBFFEF89F0A4FCE5F0CE899D
:1000AE00F0A42EFFE435F0CD89F0A42DFEE435F05A
:1000BE008067EF4E7005BD80D780C3EF8BF0A4AC88
:1000CE00F0EE8BF0A42CFCE435F0F8EF8AF0A42CC3
:1000DE00E5F038FCE433CB8DF0A42CFCE5F03BF8D6
:1000EE00EE8AF0A42CFCE5F038F8E433CF89F0A4C6
:1000FE002CFCE5F038CF3400CE89F0A42FFFE5F0CC
:10010E003EFEE433C98DF0A42EFEE5F039CD8AF023
:10011E00A42FFFE5F03EFEE43DFD33D0E0FB50079B
:10012E000BBB000F020261EC2CFCEF33FFEE33FE33
:06013E00ED33FD02023961
:10014400020261EC5D046005E85904700302025781
:10015400120222580460F6EC4860F2EC7004FDFED2
:10016400FF22C860DB2481C85009C398600250068E
:1001740002025E9850CAF582E9294B4A7005AB82A7
:1001840002024D75F0007C1A7880C3EF9BEE9AED65
:1001940099400DC3EF9BFFEE9AFEED99FDE842F006
:1001A400DC23ACF0D0E0FFD0E0FED0E0FDAB822059
:1001B400E7101BEB60BAEC2CFCEF33FFEE33FEEDE3
:1001C40033FD020239E803F830E705C0F075F000AA
:1001D400EF2FFFEE33FEED33FD40B830E7C280AAC7
:1001E40075F020800E75F010800575F0087D007E96
:1001F400007F003392D530D503120654EC334010FF
:10020400EF33FFEE33FEED33FDEC33FCD5F0ED229E
:0E021400E5F0247EA2D513CC92E7CDCEFF22DA
:1018A00085535C85545D85555EEBC556FBEAC5578F
:1018B000FAE9C558F97F09785F1205FCF60809E9CD
:0E18C00070010ADFF4AB56AA57A95802085B64
:10022200E9D2E7C933E833F892D5EDD2E7CD33EC22
:0702320033FC5002B2D5229B
:10023900EC30E7100FBF000C0EBE00080DBD000426
:100249000BEB6014A2D5EB13FCED92E7FD2274FFD2
:10025900FCFDFEFF22E480F8A2D574FF13FC7D802B
:03026900E480EF3F
:1007FF00E570245CF8E60570227859300702785CC2
:10080F00E475F00112071B0205FC2000EB7F2ED2CE
:10081F00008018EF540F2490D43440D4FF30040BD1
:10082F00EF24BFB41A0050032461FFE57160021575
:10083F00710574E5747002057330070D7859E4750E
:10084F00F00112071BEF0206420219487403D20788
:10085F008003E4C207F5708B598A5A895BE4F571FE
:10086F00F573F574E57160077F2012083A80F5750E
:10087F0072FFC201C200C202C203C205C206C20891
:10088F00120808FF700D3007057F0012084BAF7478
:10089F00AE7322B4255FC2D5C204120808FF24D05C
:1008AF00B40A00501A75F00A787130D50508B6FFF2
:1008BF000106C6A426F620D5047002D20380D924DF
:1008CF00CFB41A00EF5004C2E5D204020B38D201A4
:1008DF0080C6D20080C0D20280BCD2D580BAD205E9
:1008EF0080B47F2012083A2002077401B5710040CE
:1008FF00F11207FFFF12083A020873D208D20680DE
:10090F00951207FFFB1207FFFA1207FFF94A4B7008
:10091F0006792F7A0C7BFF20022EE571602A7E006C
:10092F008E8275830012061560060EEE657270F0EA
:10093F00C2D5EBC0E0EAC0E0E9C0E0EE120B98D000
:10094F00E0F9D0E0FAD0E0FB1205FCFF60AAEBC0A3
:10095F00E0EAC0E0E9C0E012083AD0E02401F9D0A3
:10096F00E03400FAD0E0FBE5720460DCD572D98088
:10097F0087D20280A2120B7B60F7E572700104121E
:10098F00026CA972600DE572600914F572120C22E7
:10099F00EF60F3EA30E702F404C3995077EAF425E5
:1009AF00720430E701E404F572800D120B7B60C115
:1009BF00EA0572257212026CEA786FF630E701E4ED
:1009CF00257204D5720420050114120B98E4C0E0BF
:1009DF00120C22786FE6601320E70714F612082234
:1009EF00802204F6D0E014C0E07F00120822E572E6
:1009FF0060071208191572800B300503120819D001
:100A0F00E0020873D0E00480C5120B7B60A0E57292
:100A1F000412026C786FEAF6E57220050260010499
:050A2F002404120B98E5
:100A340074FF04C0E0120C22120822E572200502A1
:100A44006003120819D0E0B572E87F4512082C78CB
:100A54006FE67F2B30E7047F2DF404C0E012083AE0
:100A6400D0E075F00A84C0F0120823D0E012082305
:100A7400020873791080027908C206C2088008D27D
:100A8400D5790A8004790AC2D5E572047002F57238
:100A9400E4FAFDFEFF1207FFFC7B08200113120796
:100AA400FFFD7B1030000A1207FFFE1207FFFF7BD9
:100AB40020EC3382D592D55013C3E43000069FFF57
:100AC400E49EFEE42001039DFDE49CFCE4CBF8C21B
:100AD40001EC700CCFCECDCCE824F8F870F380177D
:100AE400C3EF33FFEE33FEED33FDEC33FCEB33FBAE
:100AF400994002FB0FD8E9EB300105F8D0E0C44877
:100B0400B201C0E00AEC4D4E4F78207B0070C2EA7F
:100B1400B5720040BCC0E0120B9AD0F0D0E02001C6
:100B240004C4C0E0C4B201C0F0120823D0F0D5F070
:100B3400EB02087312072B0910530A775808E14C8B
:100B440008DD420A7B4F0A83440A834908F6430AB4
:100B5400895509BA460A18450984470C4F5008E5D7
:100B64002D08E92E090C2B08ED23090A200C382A3C
:100B740008A54800000904E572B4FF037572061263
:100B840007FFFC1207FFFD1207FFFE1207FFFF78A5
:100B94006802029B790AA2D5200314300509B91012
:100BA400020404B9080104A2D5200602500104205D
:100BB40002689202B571005034C0E07F20300319FE
:100BC4007F30A20272067205500F120BF1C202C2EC
:100BD40006C205C2087F30800F300503E9C0E01269
:100BE400083A300503D0E0F9D0E0B571CC300517F0
:100BF4007F30B9100C12083A7F583004077F788090
:100C040003B9080312083A3002057F2D02083A7F1F
:100C1400202008F87F2B2006F322920280CF7F0049
:100C2400B4070050052468F8E6FF22286E756C6C42
:100C34002900D2011207FF3001F8C201787130D5C2
:100C44000108F60208A52D504349581207FF240352
:100C5400B405004001E4900C4A9312082B743A1234
:0A0C6400082BD203757104020A7711
:10026C00F920E72824F950037907E4F42402FB1859
:10027C00DBFDE624FB5014E9600DE4F618E604F609
:0F028C00B40A08E4F6D9F57401F60A22C2D522A5
:10029B00ED33EC3392D5FA602AB4FF33EDC2E77B32
:1002AB00FF60067A0279C0E4227A0279C920D5046C
:1002BB007A0279C4224E614E002B494E46002D49DD
:1002CB004E4600E47A08F608DAFC7B00740722E855
:1002DB00C0E0ECC0E0EDC0E0EEC0E0EFC0E0EA75DE
:1002EB00F010A4CAABF075F04DA42BFBE435F0FC79
:1002FB00EA2410FAEB34C5FBEC34D9FCEDC2E7FF72
:10030B0075F056A4F42411C5F0F434C58FF0A42A6B
:10031B00E5F03BE43CF620E7141204C6D0E0FFD036
:10032B00E0FED0E0FDD0E0FC1201478014F4041293
:10033B0004C6D0E0FFD0E0FED0E0FDD0E0FC120020
:10034B003ED0E0F8E6FAEDD2E7CD33EC332482FB76
:10035B00E4C3CF33CFCE33CECD33CD33DBF37B07FB
:10036B0075F00A846004F6081B0AE5F0F6088FF0B6
:10037B00740AA4FFACF08EF0740AA42CFEACF050FF
:10038B00010C8DF0740AA42CFDE435F0F608DBDECD
:03039B00740722C2
:10039E00020257E86480F8E933E83360110460F034
:1003AE00ED33EC337009E8FCE9FDEAFEEBFF2204C5
:1003BE0060DED3EB9FEA9EE99DE8C2E78CF0C2F7C0
:1003CE0095F0400CE8CCF8E9CDF9EACEFAEBCFFB8C
:1003DE0012022285D0F05804700320D5B3E80470C1
:1003EE00075002B2D502026192D5EC0460F7E4CC5C
:1003FE00C0E0C398F8603B94186008400DD0E0FB55
:10040E00020239E4FBFAC9FC8028E830E406E4C9AC
:10041E00FBE4CAFCE830E305E4C9CACBFCE85407A8
:10042E006010F8C3E913F9EA13FAEB13FBEC13FCB3
:10043E00D8F130F52FC3E49CFCEF9BFFEE9AFEED56
:10044E0099FDD0E0FBEF4E4D4C701222DB03020201
:10045E005EEC2CFCEF33FFEE33FEED33FDED30E7BB
:10046E00EB020239EF2BFFEE3AFEED39FDD0E0FB49
:10047E0050130BBB0003020261ED13FDEE13FEEFF2
:08048E0013FFEC13FC0202391C
:100496003F8000004120000042C80000447A00006E
:1004A600461C400047C35000497424004B189680F0
:1004B6004CBEBC205A0E1BCA6753C21C749DC5AEE7
:1004C600FB60065407601C23231204F4EB543860C7
:1004D600091204E01204EF12003EECF8EDF9EEFA10
:1004E600EFCB22EB1204EF80F1543803241C900466
:1004F60096FE93FC0EEE93FD0EEE930ECE93FF2228
:0300000002157274
:0C157200787FE4F6D8FD75817D0215B984
:10050600E709F608DFFA8046E709F208DFFA803ED7
:1005160088828C83E709F0A3DFFA8032E309F608C4
:10052600DFFA8078E309F208DFFA807088828C832C
:10053600E309F0A3DFFA806489828A83E0A3F608E0
:10054600DFFA805889828A83E0A3F208DFFA804CBA
:1005560080D280FA80C680D4806980F28033801091
:1005660080A680EA809A80A880DA80E280CA8033FA
:1005760089828A83ECFAE493A3C8C582C8CCC58372
:10058600CCF0A3C8C582C8CCC583CCDFE9DEE78042
:100596000D89828A83E493A3F608DFF9ECFAA9F0C1
:1005A600EDFB2289828A83ECFAE0A3C8C582C8CC17
:1005B600C583CCF0A3C8C582C8CCC583CCDFEADE30
:1005C600E880DB89828A83E493A3F208DFF980CC92
:1005D60088F0EF60010E4E60C388F0ED2402B4048B
:1005E6000050B9F582EB2402B4040050AF23234532
:0605F600822390055673FC
:1005FC00BB010689828A83E0225002E722BBFE02FD
:09060C00E32289828A83E493222F
:10061500BB010CE58229F582E5833AF583E022509A
:1006250006E92582F8E622BBFE06E92582F8E222E4
:0D063500E58229F582E5833AF583E49322FE
:10064200BB010689828A83F0225002F722BBFE0197
:02065200F32291
:0E065400C3E49FFFE49EFEE49DFDE49CFC22B7
:10066200EB9FF5F0EA9E42F0E99D42F0EC6480C80F
:0606720064809845F022AF
:10067800E8600FEFC333FFEE33FEED33FDEC33FCE0
:03068800D8F12284
:10068B00BB010DE58229F582E5833AF583020789E3
:10069B005007E92582F802077DBBFE07E92582F8A2
:1006AB00020795E58229F582E5833AF5830207A1D6
:1006BB00BB010DE58229F582E5833AF58302070F2D
:1006CB005007E92582F80207E7BBFE07E92582F808
:0406DB000207F322FD
:1006DF00BB010DE58229F582E5833AF5830207BE5A
:1006EF005007E92582F80207B1BBFE07E92582F81A
:1006FF000207CAE58229F582E5833AF5830207D717
:0C070F00ECF0A3EDF0A3EEF0A3EFF0225D
:10071B00FAE6FB0808E6F925F0F618E6CA3AF622DF
:10072B00D083D082F8E4937012740193700DA3A35D
:10073B0093F8740193F5828883E473740293686071
:06074B00EFA3A3A380DF71
:10194800EFB40A07740D121953740A309811A89944
:10195800B8130CC2983098FDA899C298B811F630FF
:0719680099FDC299F59922D7
:10075100EF4E6012EF60010EEDBB010B89828A83BF
:10076100F0A3DFFCDEFA2289F05007F709DFFCA9CC
:0C077100F022BBFEFCF309DFFCA9F02223
:10157E000217C0E493A3F8E493A34003F68001F2AC
:10158E0008DFF48029E493A3F85407240CC8C3336E
:10159E00C4540F4420C8834004F456800146F6DF3D
:1015AE00E4800B01020408102040809015FEE47EBA
:1015BE00019360BCA3FF543F30E509541FFEE49332
:1015CE00A360010ECF54C025E060A840B8E493A3F9
:1015DE00FAE493A3F8E493A3C8C582C8CAC583CA24
:1015EE00F0A3C8C582C8CAC583CADFE9DEE780BEDC
:011668000081
:0C077D00E6FC08E6FD08E6FE08E6FF22A8
:0C078900E0FCA3E0FDA3E0FEA3E0FF22E3
:0C079500E2FC08E2FD08E2FE08E2FF22A0
:1007A100E493FC740193FD740293FE740393FF229E
:0D07B100E6FB08E6F908E6FA08E6CBF822B8
:0C07BE00E0F8A3E0F9A3E0FAA3E0FB22BE
:0D07CA00E2FB08E2F908E2FA08E2CBF822AF
:1007D700E493F8740193F9740293FA740393FB2278
:0C07E700ECF608EDF608EEF608EFF6223E
:0C07F300ECF208EDF208EEF208EFF22242
:00000001FF
