:101EEE00696E697420646F6E652C2073697A652043
:101EFE00666C6173682025750A0A000000000000F8
:101F0E0000000000000000000000000000000000C3
:0B1F1E000000000000000000000000B8
:101A6100011700011900011800011A005C000000B3
:101A71000000000000000000000000000000000065
:0F1A81000000000000000000000000021500003F
:03003B0002222579
:09222500C0E0C0D075D000C00774
:09222E00AF86438480EF04F586BD
:07223700D007D0D0D0E03247
:03002300021DA516
:101DA500C0E0C083C082C0D0C0AC75AC00309927FC
:101DB500C299E518B51A04C209801C743C251AF5A8
:101DC50082E43400F583E0F599D209051AE51AC3D2
:101DD50094204003751A0030981CC298741C25176E
:101DE500F582E43400F583E599F00517E517C3940A
:101DF500204003751700D0ACD0D0D082D083D0E07E
:011E050032AA
:03000B0002000EE2
:10000E00C0E0758CF8758A300516E5167002051578
:03001E00D0E032FD
:101F290020090EE4F51A75180190003CEFF0D299DA
:101F390022AE18743C2EF582E43400F583EFF00EDE
:101F4900EEC394204002E4FEEE651A60FBC2AC8E3B
:031F590018D2ACEF
:011F5C002262
:10002600120669FF600C121F29740129F9E43AFAD5
:0300360080EE2237
:0721D2007FC81221D97FC86C
:1021D900EF60110000000000000000000000000096
:0521E900001F80EC2244
:10219600AD07AC06ED4C601543E1101221D21221B9
:0E21A600D27FC81221D9ED1D70EA1C80E722FD
:101EAA004391A053925F43914043924053B1F74309
:101EBA00B20853B1FC53B2FC43B11043B21053956C
:101ECA00EF75AC01439210E4F5AC43950475AC018F
:101EDA005392FBF5AC75AC0143B50375AC03539251
:041EEA00FCF5AC2235
:07000300D2A9D2ACD2AF225A
:10211100439C01539CEFC29FD29ED29C43B9305342
:10212100877F439C4043B940759AF3759BF343B94C
:0221310080220A
:10208200E58954FC4401F58953A4FE53A3FB53890B
:10209200FB5389F775AC0653A4EFE4F5AC758A30AF
:0620A200758CF8D28C22BF
:10213300A2AF92008FE3E4F5E4C2AF75E50375E760
:102143008075E64675E6B900F5E5F5E7A20092AFBE
:012153002269
:1020A800A2AF9200C2AFE4F5E38FE48DE275E504D8
:1020B80075E78075E64675E6B900F5E5F5E7A2002F
:0220C80092AFD5
:0120CA0022F3
:04200D00AB07AA066D
:10201100A2AF92008DE28AE38BE4C2AF75E502754F
:10202100E78075E64675E6B900E4F5E5F5E7A20057
:0220310092AF6C
:01203300228A
:101FBA00E4FC7D347F031220A87F34122133EC2401
:101FCA0000FFE43434FE74002CF582E43400F58317
:091FDA00E0FD12200D0CBC1CE519
:011FE30022DB
:06227700EF90340093FF1C
:01227D00223E
:10215400E4FEAF0612227774002EF582E43400F513
:1021640083EFF00EBE1CEB751001751100751200A3
:012174002248
:1020CB00438540438590E58554FC4403F585E4F551
:1020DB00845385F75385DF43850475AC0753A4EF11
:0320EB00F5AC222F
:0D223E008F86E58430E7FB438480AF862265
:1020EE0075C7507F641221D975E780E4F5E375E476
:1020FE004075E50475E21475E64675E6B900F5E53A
:03210E00F5E722D0
:10217500121EAA1220EE1220CB1220821221111259
:102185000003E5E154F84406F5E143E18043E1202D
:012195002227
:0C224B00E4F517F519F518F51AC2092280
:061E5B008B2B8A2C892D5F
:101E610078937C007D017BFF7A1F79097E007F20BA
:101E7100120643753D01753E00753F93754000752F
:101E8100410075422E852B43852C44852D45854087
:101E910046854147854248AB3DAA3EA93F121F8C6A
:091EA1007B017A0079930200260E
:061FE4008B3D8A3E893F9F
:101FEA00E4FEC2B3AB3DAA3EA93F8E8275830012BE
:101FFA000682FF12223E740A2EF8A6070EBE06E4D7
:02200A00D2B34F
:01200C0022B1
:1020340012217512224B7FE87E031221967BFF7AD0
:102044001E79EE752E00752F1C121E5B122257434B
:07205400E110121B9E80F851
:101672006865616465723A200030782530325820FE
:10168200007461696C3A20000A00696E6974206610
:101692006C617368206661696C0A00696E69742006
:1016A200666C617368204F4B0A006E68612067693F
:1016B200750A00616E206E650A00312070686174DF
:1016C2000A003220706861740A00726573657420C2
:1016D20063686970206E650A005345542055502096
:1016E2004F4B210A0A0A00552068643A20252E32FF
:1016F2006620562C200A00492068643A20252E34A0
:101702006620412C200A00502068696575206475A6
:101712006E673A20252E336620570A0A00636F6EE1
:101722006669672050206B65743A20252E33662047
:10173200570A0A0A0050206B65742075703A2025FA
:101742002E336620570A0A0050206B657420646F9E
:10175200776E3A20252E336620570A0A0073746189
:10176200727420636865636B20737475636B0A0A15
:101772000A0064656C746120503A20252E3266207E
:101782000A0056554F54204D5543205049434B4C67
:101792004542414C4C0A0A0A0050206B657420698C
:1017A2006E69743A20252E336620570A0000000025
:1017B2000000000000000000000000000000000027
:0E17C20000000000000000230000035A5A5AE5
:101A900002130000010900420060000042006A00D9
:101AA0000042008D000042008A00004200910000C8
:101AB00042008F000041008C004100700041006234
:101AC0000041006300410071004100840041008733
:101AD0000041008300060A00000000000042008868
:101AE00000004200850000410082004200640000C6
:101AF0005000720000000000000000000000000024
:061B0000000000010800D6
:041E06008F228D2377
:101E0A007DC87C00AF14AE131221EEEF6042E509E3
:101E1A00603EE522B40204B2F98007E522B4010269
:101E2A00B2F8050812227E8E138F14E4FCFD7BFEA5
:101E3A007AFFF9F8D31206F15005E4F513F514E523
:101E4A002375F002A4B50808E4B5F004F509F5080D
:011E5A002265
:0A2263007509017D037F01021E06CC
:10220A00AB10AA11A912900019120682700CE509E6
:0B221A00B402077D037F02121E0622A3
:1021B400E4F522D2F8D2F9F522B2F8B2F97FF47E2E
:0D21C400011221960522E522C3940640EC8D
:0121D10022EB
:1018B7001221547BFF7A167972121E5BAB10AA11A4
:1018C700A912120669752E00F52F7BFF7A16797B10
:1018D700121E5B7BFF7A167983121E5BAB10AA116F
:1018E700A91290001B120682752E00F52F7BFF7A36
:1018F70016797B121E5B7BFF7A16798A121E5BAB09
:1019070010AA11A9121206696455607390001B1280
:10191700068264AA60697BFF7A16798C121E5BAB1C
:1019270010AA11A91274551206AFAB10AA11A91269
:1019370090001B74AA1206C1900019E41206C19008
:1019470000051207DB0000000090000512071A903F
:10195700000D12074A9000091207DB0000000090F3
:10196700000912071A90001112074A900001120786
:10197700DB0000000090001A74011206C180097B89
:0B198700FF7A16799D121E5B021FBA4A
:09226D00E4FF20B40280027F01AD
:012276002245
:05227E00AE15AF1622B1
:10104700E4F522F52312227E8E228F2343E11090AE
:10105700006AE522F0A3E523F0D3900061E0952331
:10106700900060E09522400F90006AE0FFA3E090B7
:101077000060CFF0A3EFF0900060E0FEA3E0FFC3B5
:1010870090006BE09FFF90006AE09EFED3EF940A0A
:10109700EE940050030211A512226D900070EFF03C
:1010A7007019900062E0B4011290008DE522F0A360
:1010B700E523F09000637401F0805D900070E064B8
:1010C700017055900062E0704F90008AE0FEA3E047
:1010D700FFC39423EE9400401DEF9458EE94025002
:1010E70015900084E0B40102801B9000877401F022
:1010F700900071F0801DC390008BE0945890008A97
:10110700E09402400E7BFF7A1679AC121E5BE490E6
:101117000084F0E4900063F0900063E06069900061
:101127008DE0FEA3E0FFD39523EE9522401874FFD0
:101137009FFF74FF9EFEE5232FFFE5223E90008A66
:10114700F0A3EFF0801790008DE0FEA3E0FFC3E56A
:10115700239F90008BF0E5229E90008AF0C39000B9
:101167008BE094B890008AE0940B401B9000877442
:1011770001F090007104F0E523241890008EF0E54B
:101187002234FC90008DF0900070E0900062F090A7
:10119700006AE0FFA3E0900060CFF0A3EFF09000BB
:1011A70087E06041900071E0B401197BFF7A1679FE
:1011B700B5121E5B900091E522F0A3E523F09000A5
:1011C7008CE08015900071E0B40215121B077509B9
:1011D70002E490008CF090008404F0E4900071F039
:1011E700E4900087F0900091E0FEA3E0FFD3952301
:1011F700EE9522401874FF9FFF74FF9EFEE5232F94
:10120700FFE5223E90008FF0A3EFF080179000914A
:10121700E0FEA3E0FFC3E5239F900090F0E5229E48
:1012270090008FF090008CE0FF6064D3900090E016
:10123700945890008FE09402405FEFB401087BFF61
:101247007A1679BC800D90008CE0B4020B7BFF7A94
:101257001679C4121E5B802990008CE0B403227BB0
:10126700FF7A1679CC121E5B750901AB10AA11A97A
:1012770012900019E41206C1E4900082F0D2F8D26D
:10128700A2E490008CF090008FF0A3F0A38003906D
:091297000091E522F0A3E523F02B
:0112A000222B
:101F5D0078377C007D007BFF7A1779AF7E007F0696
:101F6D00120643741AF4FF7537A875381DE4F53958
:0F1F7D00F53A753B558F3CFB7A007937021FE42C
:081CC1008F2B8B2C8A2D892E3C
:101CC900E4F52F78307C00FD7BFF7A1779B5FE7F2C
:101CD90006120643AB2CAA2DA92E900001120682EA
:101CE900FF7E00120669FD7C00E52B24A8FBE43386
:101CF900CB2DFDEC3BCD2FFFEE3DFEAB2C90000232
:101D09001206822FFFEFF4F536121F5D7530A88594
:101D19002B31AB2CAA2DA92E120669F532900001A0
:101D2900120682F533900002120682F534853635A3
:091D39007B007A007930021FE4FE
:0217D0008F2662
:1017D200E4F52AF529F528F527F52B782C7C00FD70
:1017E2007BFF7A1779BBFE7F06120643E526245853
:1017F200FFE433FEEFF4FD752C5885262DE4F52E1B
:10180200F52FF530F531FB7A00792C121FE4E5262D
:101812002458FFE433FE7C00EF250CFFEC3EFEEF84
:10182200250DFFEC3EFEEF250EFFEC3EEFF4650FBB
:10183200706EAF0DFDFE7808120707C004C005C028
:1018420006C007AF0CE4FCFDFE7810120707D003B8
:10185200D002D001D000EF4BFBEE4AFAED49F9EC91
:1018620048F8EB450EF52AEAF529E9F528E8F527C7
:101872007E007F067D007B007A00790A120835E53A
:10188200285480FDED6010E52AF52AE529F529E5C1
:1018920028F52874FFF527AF2AAE29AD28AC2722F8
:1018A2007E007F067D007B007A00790A120835E40B
:0418B200FFFEFDFC3C
:0118B600220F
:021992008F269E
:10199400E4F52AF529F528F527F52B782C7C00FDAC
:1019A4007BFF7A1779C1FE7F06120643E526245889
:1019B400FFE433FEEFF4FD752C5885262DE4F52E57
:1019C400F52FF530F531FB7A00792C121FE4E5266A
:1019D4002458FFE433FE7C00EF250CFFEC3EFEEFC1
:1019E400250DFFEC3EFEEF250EFFEC3EEFF4650FF8
:1019F4007056AF0DFDFE7808120707C004C005C07D
:101A040006C007AF0CE4FCFDFE7810120707D003F4
:101A1400D002D001D000EF4BFBEE4AFAED49F9ECCD
:101A240048F8EB450EF52AEAF529E9F528E8F52703
:101A34007E007F067D007B007A00790A120835AFAC
:101A44002AAE29AD28AC27227E007F067D007B00CC
:0C1A54007A00790A120835E4FFFEFDFC60
:011A60002263
:1021EE00AB07AA0612227EC3EF9BFFEE9AFEC3EF49
:0C21FE009DEE9C40047F0180027F0022C7
:101D420078227C007D007BFF7A1779C77E007F03B3
:101D520012064378257C007D007BFF7A1779CA7EC4
:101D6200007F0312064378287C007D007BFF7A17F0
:101D720079CD7E007F031206437B007A0079257FAE
:101D82001A121CC17B007A0079287F1C121CC17BAD
:101D9200007A0079227F18121CC17BFF7A1679DB48
:031DA200021E5BC3
:1014FA007F0412199290006C12079E7525E17524DB
:10150A000875238475223890006CE0FCA3E0FDA3E3
:10151A00E0FEA3E0FFE4120349AB25AA24A923A80D
:10152A002212013690007212079E7BFF7A1679E921
:10153A00900072E0FCA3E0FDA3E0FEA3E0F5318E8B
:10154A00308D2F8C2E121E5B7F0312199290005C35
:10155A0012079E7525C575249175238575223690C7
:10156A00005CE0FCA3E0FDA3E0FEA3E0FFE41203BD
:10157A0049AB25AA24A923A8221201369000761283
:10158A00079E7BFF7A1679F9900076E0FCA3E0FDCE
:10159A00A3E0FEA3E0F5318E308D2F8C2E121E5B58
:1015AA007F177EB77DD17C38900076E0F8A3E0F90A
:1015BA00A3E0FAA3E0FB1202DC501590007A1207AE
:1015CA00AA0000000090007E1207AA000000002274
:1015DA007F061217D090006612079E75256775243C
:1015EA00417523D275223A900066E0FCA3E0FDA380
:1015FA00E0FEA3E0FFEC120349AB25AA24A923A825
:10160A002212013690007A12079EE4FFFEFDFC903A
:10161A00007AE0F8A3E0F9A3E0FAA3E0FB1202DC07
:10162A00401D7F007E407D1C7C4690007AE0F8A336
:10163A00E0F9A3E0FAA3E0FB1202DC600C400A9096
:10164A00007A1207AA000000007BFF7A1779099036
:10165A00007AE0FCA3E0FDA3E0FEA3E0F5318E30C2
:07166A008D2F8C2E121E5B78
:011671002256
:101B070090007AE0FCA3E0FDA3E0FEA3E0FFAB10AA
:101B1700AA11A91290000512074A90000512071A88
:101B270090000D12074A900076E0FCA3E0FDA3E0C9
:101B3700FEA3E0FF90000912074A90000912071A56
:101B470090001112074A900072E0FCA3E0FDA3E0A9
:101B5700FEA3E0FF90000112074A900076E0F8A389
:101B6700E0F9A3E0FAA3E0FB12023FAB10AA11A928
:101B77001290001512074A121FBAAB10AA11A91228
:101B870090000D12071A8F318E308D2F8C2E7BFF10
:071B97007A17791F021E5BA3
:1012A100900076E0FCA3E0FDA3E0FEA3E0FF900048
:1012B10072E0F8A3E0F9A3E0FAA3E0FB120136A87B
:1012C10004A905AA06AB0790007AE0FCA3E0FDA300
:1012D100E0FEA3E0FF12023F90007E12079EAB10DA
:1012E100AA11A91290000112076E900072E0FCA3EE
:1012F100E0FDA3E0FEA3E0FF120041AB10AA11A99B
:101301001290000112076E12023FE4FBFA79C878CD
:1013110042120136E4FBFA79A078401202DC507ADD
:10132100900076E0FCA3E0FDA3E0FEA3E0FFAB109C
:10133100AA11A91290000912074A90000912071A6E
:1013410090001112074A90007AE0FCA3E0FDA3E0AF
:10135100FEA3E0FF90000512074A90000512071A4C
:1013610090000D12074A900072E0FCA3E0FDA3E09B
:10137100FEA3E0FF90000112074A121FBAAB10AAA8
:1013810011A91290000D12071A8F318E308D2F8CFA
:101391002E7BFF7A177937021454AB10AA11A912C8
:1013A10090000112071A900072E0F8A3E0F9A3E09F
:1013B100FAA3E0FB120041AB10AA11A9129000019F
:1013C10012076E12023FE4FBFA79C8784212013625
:1013D100E4FBFA79A078401202DC507A900076E0C2
:1013E100FCA3E0FDA3E0FEA3E0FFAB10AA11A9124C
:1013F10090000912074A90000912071A9000111271
:10140100074A90007AE0FCA3E0FDA3E0FEA3E0FF21
:1014110090000512074A90000512071A90000D125C
:10142100074A900072E0FCA3E0FDA3E0FEA3E0FF09
:1014310090000112074A121FBAAB10AA11A912900B
:10144100000D12071A8F318E308D2F8C2E7BFF7A73
:1014510017794A021E5BAB10AA11A9129000011262
:10146100076E900072E0FCA3E0FDA3E0FEA3E0FFA5
:10147100120041AB10AA11A91290000112076E12BD
:10148100023FE4FBFA79C87842120136E4FBFA79AB
:1014910080783F1202DC60025044AB10AA11A912FD
:1014A10090000112071A900072E0F8A3E0F9A3E09E
:1014B100FAA3E0FB120041AB10AA11A9129000019E
:1014C10012076E12023FE4FBFA79C8784212013624
:1014D100E4FBFA7980783F1202DC601C401A90002C
:1014E10072E0FCA3E0FDA3E0FEA3E0FFAB10AA11B4
:0914F100A91290000112074A2221
:100D8400E4FFFE7D207C4190007AE0F8A3E0F9A323
:100D9400E0FAA3E0FB1202DC60025003021032AB63
:100DA40010AA11A91290000512071AE4FBFAF9F827
:100DB4001202DC4003021032900085E0FEA3E0FF43
:100DC400E4FCFD7BFA7AFFF9F81206F15007E4908F
:100DD4000085F0A3F0AB10AA11A912900019120615
:100DE40082600302102290000512071AE4FBFAF94C
:100DF400F81202DC4003021022900082E07033906B
:100E04000085E0FEA3E0FF7DDC7C051221EEEF709F
:100E140003021046900088E0FFA3E0900085CFF025
:100E2400A3EFF09000827401F07BFF7A17795F02E0
:020E34001E5B43
:100E3600E4F525F524F523F5221212A1AB10AA112B
:100E4600A91290000512071A90007AE0F8A3E0F9BB
:100E5600A3E0FAA3E0FB1202DC60025003020F6E6D
:100E6600AB10AA11A91290000912071A900076E099
:100E7600F8A3E0F9A3E0FAA3E0FB1202DC6002505B
:100E860003020F0CAB10AA11A91290000912076EEB
:100E9600900076E0FCA3E0FDA3E0FEA3E0FF1200D5
:100EA60041AB10AA11A91290001112076E12023F4F
:100EB600E4FBFA79C87842120136E4FBFA798078C5
:100EC6003F1202DC6002503EAB10AA11A91290003C
:100ED6000512076E90007AE0FCA3E0FDA3E0FEA3F6
:100EE600E0FF120041AB10AA11A91290000D1207E3
:100EF6006E12023FE4FBFA79C878421201368F255A
:100F06008E248D238C22AB10AA11A91290000D12EB
:100F1600071A90007AE0F8A3E0F9A3E0FAA3E0FB51
:100F26001202DC60025003020FDFAB10AA11A912F5
:100F360090001112071A900076E0F8A3E0F9A3E0FA
:100F4600FAA3E0FB1202DC60025003020FDFAB10D3
:100F5600AA11A91290000D12071A90000512074A4D
:100F660090001112071A806BAB10AA11A9129000FB
:100F76000512071A90007AE0F8A3E0F9A3E0FAA3B5
:100F8600E0FB120041AB10AA11A91290000512074E
:100F96006E12023FE4FBFA79C87842120136E4FB8E
:100FA600FAF978401202DC6030402E90007AE0FCBC
:100FB600A3E0FDA3E0FEA3E0FFAB10AA11A91290E7
:100FC600000512074A900076E0FCA3E0FDA3E0FED0
:100FD600A3E0FF90000912074AE4FFFE7DA07C41D2
:100FE600AB25AA24A923A8221202DC4053AB10AADF
:100FF60011A91290001974011206C17BFF7A1779A4
:101006007485253185243085232F85222E121E5B7B
:0B1016007BFF7A177984121E5BC2A2D8
:1010210022900088E0FFA3E0900085CFF0A3EFF0CD
:1010310022900088E0FFA3E0900085CFF0A3EFF0BD
:06104100E4900082F022A1
:0C225700D2A21221B47FB87E0B022196A7
:101B9E0012227E900088EEF0A3EFF0900083E070AA
:101BAE00341218B7121D4212227E900064EEF0A37A
:101BBE00EFF09000837401F0AB10AA11A9129000FF
:101BCE000D12071A8F318E308D2F8C2E7BFF7A17C8
:101BDE00799B121E5B12104712220A900064E0FEDF
:101BEE00A3E0FF7DE87C031221EEEF60271214FACA
:101BFE00120D8412227E900064EEF0A3EFF0E4FC4E
:101C0E00FD7BFA7AFFF9F8D31206F15007E4900043
:101C1E0064F0A3F0AB10AA11A9129000191206825B
:071C2E00B40103122263223E
:10003E000203BCE86480F8E933E83360110460F031
:10004E00ED33EC337009E8FCE9FDEAFEEBFF220428
:10005E0060DED3EB9FEA9EE99DE8C2E78CF0C2F723
:10006E0095F0400CE8CCF8E9CDF9EACEFAEBCFFBEF
:10007E0012038785D0F05804700320D5B3E80470BE
:10008E00075002B2D50203C692D5EC0460F7E4CC59
:10009E00C0E0C398F8603B94186008400DD0E0FBB8
:1000AE0002039EE4FBFAC9FC8028E830E406E4C9AA
:1000BE00FBE4CAFCE830E305E4C9CACBFCE854070C
:1000CE006010F8C3E913F9EA13FAEB13FBEC13FC17
:1000DE00D8F130F52FC3E49CFCEF9BFFEE9AFEEDBA
:1000EE0099FDD0E0FBEF4E4D4C701222DB03020364
:1000FE00C3EC2CFCEF33FFEE33FEED33FDED30E7BA
:10010E00EB02039EEF2BFFEE3AFEED39FDD0E0FB46
:10011E0050130BBB00030203C6ED13FDEE13FEEFEF
:08012E0013FFEC13FC02039E19
:10013600EC4D6011E8497017ED33EC3304600DE4C3
:10014600FCFFFEFD22E933E8330470F80203BC121B
:10015600038758046009E4CC24815006285009021C
:1001660003C62840030203C3C0E0EB4A7044B980CB
:1001760006D0E0FB0203B2EF4E701CBD8008EBFF19
:10018600EAFEE9FD80EBE98DF0A4FEE5F002021F30
:10019600E9CDF9EAFEEBFFEF89F0A4FCE5F0CE89A4
:1001A600F0A42EFFE435F0CD89F0A42DFEE435F061
:1001B6008067EF4E7005BD80D780C3EF8BF0A4AC8F
:1001C600F0EE8BF0A42CFCE435F0F8EF8AF0A42CCA
:1001D600E5F038FCE433CB8DF0A42CFCE5F03BF8DD
:1001E600EE8AF0A42CFCE5F038F8E433CF89F0A4CD
:1001F6002CFCE5F038CF3400CE89F0A42FFFE5F0D3
:100206003EFEE433C98DF0A42EFEE5F039CD8AF02A
:10021600A42FFFE5F03EFEE43DFD33D0E0FB5007A2
:100226000BBB000F0203C6EC2CFCEF33FFEE33FED4
:06023600ED33FD02039E02
:10023C000203C6EC5D046005E8590470030203BCBC
:10024C00120387580460F6EC4860F2EC7004FDFE73
:10025C00FF22C860DB2481C85009C3986002500695
:10026C000203C39850CAF582E9294B4A7005AB8248
:10027C000203B275F0007C1A7880C3EF9BEE9AED06
:10028C0099400DC3EF9BFFEE9AFEED99FDE842F00D
:10029C00DC23ACF0D0E0FFD0E0FED0E0FDAB822060
:1002AC00E7101BEB60BAEC2CFCEF33FFEE33FEEDEA
:1002BC0033FD02039EE803F830E705C0F075F0004B
:1002CC00EF2FFFEE33FEED33FD40B830E7C280AACE
:1002DC0074F8CC6480CCC86480C8F582046043C3D5
:1002EC00EB9FF5F0EA9E42F0E99D42F0E89C45F068
:1002FC0060305018E5825FFFE582F42B5582FB508D
:10030C00210ABA001D09B90019088016E5825BFBA9
:10031C00E582F42F5582FF50090EBE00050DBD007D
:10032C00010CC3EB9FF5F0EA9E42F0E99D42F0E828
:0D033C009C45F06007CC4820E701B3EC229F
:1003490075F020800E75F010800575F0087D007E2F
:10035900007F003392D530D5031206E3EC33401009
:10036900EF33FFEE33FEED33FDEC33FCD5F0ED2238
:0E037900E5F0247EA2D513CC92E7CDCEFF2274
:101F8C0085434C85444D85454EEBC546FBEAC5471C
:101F9C00FAE9C548F97F09784F120669F60809E98C
:0E1FAC0070010ADFF4AB46AA47A9480209718A
:10038700E9D2E7C933E833F892D5EDD2E7CD33ECBC
:0703970033FC5002B2D52235
:10039E00EC30E7100FBF000C0EBE00080DBD0004C0
:1003AE000BEB6014A2D5EB13FCED92E7FD2274FF6C
:1003BE00FCFDFEFF22E480F8A2D574FF13FC7D80C5
:0303CE00E480EFD9
:10091500E560244CF8E60560227849300702784CFA
:10092500E475F0011207FF0206692000EB7F2ED265
:10093500008018EF540F2490D43440D4FF30040BBA
:10094500EF24BFB41A0050032461FFE5616002156E
:10095500610564E5647002056330070D7849E47547
:10096500F0011207FFEF0206AF02205B7403D20706
:100975008003E4C207F5608B498A4A894BE4F56137
:10098500F563F564E56160077F2012095080F57510
:1009950062FFC201C200C202C203C205C206C2088A
:1009A50012091EFF700D3007057F00120961AF6443
:1009B500AE6322B4255FC2D5C20412091EFF24D03E
:1009C500B40A00501A75F00A786130D50508B6FFEB
:1009D5000106C6A426F620D5047002D20380D924C8
:1009E500CFB41A00EF5004C2E5D204020C4ED20176
:1009F50080C6D20080C0D20280BCD2D580BAD205D2
:100A050080B47F201209502002077401B5610040AF
:100A1500F1120915FF120950020989D208D2068080
:100A250095120915FB120915FA120915F94A4B70A9
:100A35000679457A0D7BFF20022EE561602A7E004E
:100A45008E8275830012068260060EEE656270F076
:100A5500C2D5EBC0E0EAC0E0E9C0E0EE120CAED0D2
:100A6500E0F9D0E0FAD0E0FB120669FF60AAEBC01E
:100A7500E0EAC0E0E9C0E0120950D0E02401F9D075
:100A8500E03400FAD0E0FBE5620460DCD562D98091
:100A950087D20280A2120C9160F7E5627001041200
:100AA50003D1A962600DE562600914F562120D3883
:100AB500EF60F3EA30E702F404C3995077EAF425CE
:100AC500620430E701E404F562800D120C9160C107
:100AD500EA056225621203D1EA785FF630E701E4A0
:100AE500256204D5620420050114120CAEE4C0E0B1
:100AF500120D38785FE6601320E70714F6120938FF
:100B0500802204F6D0E014C0E07F00120938E562C7
:100B1500600712092F1562800B30050312092FD0CB
:100B2500E0020989D0E00480C5120C9160A0E5625D
:100B3500041203D1785FEAF6E5622005026001043C
:050B45002404120CAEB7
:100B4A0074FF04C0E0120D38120938E5622005026C
:100B5A00600312092FD0E0B562E87F451209427896
:100B6A005FE67F2B30E7047F2DF404C0E0120950C2
:100B7A00D0E075F00A84C0F0120939D0E0120939C0
:100B8A00020989791080027908C206C2088008D24F
:100B9A00D5790A8004790AC2D5E562047002F56241
:100BAA00E4FAFDFEFF120915FC7B08200113120965
:100BBA0015FD7B1030000A120915FE120915FF7B7C
:100BCA0020EC3382D592D55013C3E43000069FFF40
:100BDA00E49EFEE42001039DFDE49CFCE4CBF8C204
:100BEA0001EC700CCFCECDCCE824F8F870F3801766
:100BFA00C3EF33FFEE33FEED33FDEC33FCEB33FB97
:100C0A00994002FB0FD8E9EB300105F8D0E0C4485F
:100C1A00B201C0E00AEC4D4E4F78207B0070C2EA68
:100C2A00B5620040BCC0E0120CB0D0F0D0E02001A8
:100C3A0004C4C0E0C4B201C0F0120939D0F0D5F042
:100C4A00EB02098912080F0A26530B8D5809F74C33
:100C5A0009F3420B914F0B99440B99490A0C430B28
:100C6A009F550AD0460B2E450A9A470D655009FB37
:100C7A002D09FF2E0A222B0A03230A20200D4E2AB1
:100C8A0009BB4800000A1AE562B4FF03756206123E
:100C9A000915FC120915FD120915FE120915FF782E
:100CAA0058020400790AA2D5200314300509B910A4
:100CBA00020404B9080104A2D52006025001042046
:100CCA0002689202B561005034C0E07F20300319F7
:100CDA007F30A20272067205500F120D07C202C2BD
:100CEA0006C205C2087F30800F300503E9C0E01252
:100CFA000950300503D0E0F9D0E0B561CC300517D2
:100D0A007F30B9100C1209507F583004077F788061
:100D1A0003B908031209503002057F2D0209507FDA
:100D2A00202008F87F2B2006F322920280CF7F0032
:100D3A00B4070050052458F8E6FF22286E756C6C3B
:100D4A002900D2011209153001F8C201786130D5A3
:100D5A000108F60209BB2D5043495812091524030C
:100D6A00B405004001E4900D6093120941743A12EF
:0A0D7A000941D203756104020B8DDC
:1003D100F920E72824F950037907E4F42402FB18F3
:1003E100DBFDE624FB5014E9600DE4F618E604F6A3
:0F03F100B40A08E4F6D9F57401F60A22C2D5223F
:10040000ED33EC3392D5FA602AB4FF33EDC2E77BCB
:10041000FF60067A047925E4227A04792E20D50437
:100420007A047929224E614E002B494E46002D490F
:100430004E4600E47A08F608DAFC7B00740722E8EE
:10044000C0E0ECC0E0EDC0E0EEC0E0EFC0E0EA7577
:10045000F010A4CAABF075F04DA42BFBE435F0FC12
:10046000EA2410FAEB34C5FBEC34D9FCEDC2E7FF0B
:1004700075F056A4F42411C5F0F434C58FF0A42A05
:10048000E5F03BE43CF620E714120533D0E0FFD062
:10049000E0FED0E0FDD0E0FC12023F8014F4041234
:1004A0000533D0E0FFD0E0FED0E0FDD0E0FC12014B
:1004B00036D0E0F8E6FAEDD2E7CD33EC332482FB18
:1004C000E4C3CF33CFCE33CECD33CD33DBF37B0795
:1004D00075F00A846004F6081B0AE5F0F6088FF050
:1004E000740AA4FFACF08EF0740AA42CFEACF05099
:1004F000010C8DF0740AA42CFDE435F0F608DBDE67
:030500007407225B
:100503003F8000004120000042C80000447A000000
:10051300461C400047C35000497424004B18968082
:100523004CBEBC205A0E1BCA6753C21C749DC5AE79
:10053300FB60065407601C2323120561EB543860EB
:100543000912054D12055C120136ECF8EDF9EEFACD
:10055300EFCB22EB12055C80F1543803241C900589
:1005630003FE93FC0EEE93FD0EEE930ECE93FF224D
:03000000021C35AA
:0C1C3500787FE4F6D8FD758164021C7C09
:10057300E709F608DFFA8046E709F208DFFA803E6A
:1005830088828C83E709F0A3DFFA8032E309F60857
:10059300DFFA8078E309F208DFFA807088828C83BF
:1005A300E309F0A3DFFA806489828A83E0A3F60873
:1005B300DFFA805889828A83E0A3F208DFFA804C4D
:1005C30080D280FA80C680D4806980F28033801024
:1005D30080A680EA809A80A880DA80E280CA80338D
:1005E30089828A83ECFAE493A3C8C582C8CCC58305
:1005F300CCF0A3C8C582C8CCC583CCDFE9DEE780D5
:100603000D89828A83E493A3F608DFF9ECFAA9F053
:10061300EDFB2289828A83ECFAE0A3C8C582C8CCA9
:10062300C583CCF0A3C8C582C8CCC583CCDFEADEC2
:10063300E880DB89828A83E493A3F208DFF980CC24
:1006430088F0EF60010E4E60C388F0ED2402B4041D
:100653000050B9F582EB2402B4040050AF232345C4
:0606630082239005C37321
:10066900BB010689828A83E0225002E722BBFE028F
:09067900E32289828A83E49322C2
:10068200BB010CE58229F582E5833AF583E022502D
:1006920006E92582F8E622BBFE06E92582F8E22277
:0D06A200E58229F582E5833AF583E4932291
:1006AF00BB010689828A83F0225002F722BBFE012A
:0206BF00F32224
:1006C100F8BB010DE58229F582E5833AF583E8F06F
:1006D100225006E92582C8F622BBFE05E92582C81B
:0206E100F22203
:0E06E300C3E49FFFE49EFEE49DFDE49CFC2228
:1006F100EB9FF5F0EA9E42F0E99D42F0EC6480C880
:0607010064809845F0221F
:10070700E8600FEFC333FFEE33FEED33FDEC33FC50
:03071700D8F122F4
:10071A00BB010DE58229F582E5833AF58302086D6E
:10072A005007E92582F8020861BBFE07E92582F82D
:10073A00020879E58229F582E5833AF5830208857C
:10074A00BB010DE58229F582E5833AF58302079E0E
:10075A005007E92582F80208CBBBFE07E92582F893
:04076A000208D72288
:10076E00BB010DE58229F582E5833AF5830208A2E5
:10077E005007E92582F8020895BBFE07E92582F8A5
:10078E000208AEE58229F582E5833AF5830208BBBD
:0C079E00ECF0A3EDF0A3EEF0A3EFF022CE
:1007AA00A8828583F0D083D0821207C11207C112B2
:1007BA0007C11207C1E473E493A3C583C5F0C583D7
:1007CA00C8C582C8F0A3C583C5F0C583C8C582C899
:0107DA0022FC
:1007DB00BB010DE58229F582E5833AF5830207AA71
:1007EB005007E92582F80208E3BBFE07E92582F8EA
:0407FB000208FC22D2
:1007FF00FAE6FB0808E6F925F0F618E6CA3AF622FB
:10080F00D083D082F8E4937012740193700DA3A378
:10081F0093F8740193F5828883E47374029368608C
:06082F00EFA3A3A380DF8C
:10205B00EFB40A07740D122066740A309811A89910
:10206B00B8130CC2983098FDA899C298B811F630E5
:07207B0099FDC299F59922BD
:10083500EF4E6012EF60010EEDBB010B89828A83DA
:10084500F0A3DFFCDEFA2289F05007F709DFFCA9E7
:0C085500F022BBFEFCF309DFFCA9F0223E
:101C4100022034E493A3F8E493A34003F68001F265
:101C510008DFF48029E493A3F85407240CC8C333A4
:101C6100C4540F4420C8834004F456800146F6DF73
:101C7100E4800B0102040810204080901A61E47E88
:101C8100019360BCA3FF543F30E509541FFEE49368
:101C9100A360010ECF54C025E060A840B8E493A32F
:101CA100FAE493A3F8E493A3C8C582C8CAC583CA5A
:101CB100F0A3C8C582C8CAC583CADFE9DEE780BE12
:011B060000DE
:0C086100E6FC08E6FD08E6FE08E6FF22C3
:0C086D00E0FCA3E0FDA3E0FEA3E0FF22FE
:0C087900E2FC08E2FD08E2FE08E2FF22BB
:10088500E493FC740193FD740293FE740393FF22B9
:0D089500E6FB08E6F908E6FA08E6CBF822D3
:0C08A200E0F8A3E0F9A3E0FAA3E0FB22D9
:0D08AE00E2FB08E2F908E2FA08E2CBF822CA
:1008BB00E493F8740193F9740293FA740393FB2293
:0C08CB00ECF608EDF608EEF608EFF62259
:0C08D700ECF208EDF208EEF208EFF2225D
:1008E300D083D082E493F608740193F608740293DC
:0908F300F608740393F674047313
:1008FC00D083D082E493F208740193F208740293CB
:09090C00F208740393F274047301
:00000001FF
