:10200200696E697420646F6E652C2073697A65202D
:10201200666C6173682025750A0A000000000000E2
:1020220000000000000000000000000000000000AE
:0B2032000000000000000000000000A3
:101B9400011700011900011800011A005800000083
:101BA4000000000000000000000000000000000031
:0B1BB40000000000000000021500000F
:03003B0002233667
:09233600C0E0C0D075D000C00762
:09233F00AF86438480EF04F586AB
:07234800D007D0D0D0E03235
:03002300021EB703
:101EB700C0E0C083C082C0D0C0AC75AC00309927E9
:101EC700C299E518B51A04C209801C7438251AF599
:101ED70082E43400F583E0F599D209051AE51AC3BF
:101EE70094204003751A0030981CC298741825175F
:101EF700F582E43400F583E599F00517E517C394F7
:101F0700204003751700D0ACD0D0D082D083D0E06A
:011F17003297
:03000B0002000EE2
:10000E00C0E0758CF8758A300516E5167002051578
:03001E00D0E032FD
:10203D0020090EE4F51A751801900038EFF0D299C9
:10204D0022AE1874382EF582E43400F583EFF00ECD
:10205D00EEC394204002E4FEEE651A60FBC2AC8E26
:03206D0018D2ACDA
:01207000224D
:10002600120669FF600C12203D740129F9E43AFAC0
:0300360080EE2237
:0722E3007FC81222EA7FC848
:1022EA00EF60110000000000000000000000000084
:0522FA00001F80EC2232
:1022C500AD07AC06ED4C601543E1101222E3122276
:0E22D500E37FC81222EAED1D70EA1C80E722AA
:101FBE004391A053925F43914043924053B1F743F4
:101FCE00B20853B1FC53B2FC43B11043B210539557
:101FDE00EF75AC01439210E4F5AC43950475AC017A
:101FEE005392FBF5AC75AC0143B50375AC0353923C
:041FFE00FCF5AC2220
:07000300D2A9D2ACD2AF225A
:1021FE00439C01539CEFC29FD29ED29C43B9305355
:10220E00877F439C4043B940759AF3759BF343B95E
:02221E0080221C
:10216F00E58954FC4401F58953A4FE53A3FB53891D
:10217F00FB5389F775AC0653A4EFE4F5AC758A30C1
:06218F00758CF8D28C22D1
:10224200A2AF92008FE3E4F5E4C2AF75E50375E750
:102252008075E64675E6B900F5E5F5E7A20092AFAE
:012262002259
:10219500A2AF9200C2AFE4F5E38FE48DE275E504EA
:1021A50075E78075E64675E6B900F5E5F5E7A20041
:0221B50092AFE7
:0121B7002205
:04212100AB07AA0658
:10212500A2AF92008DE28AE38BE4C2AF75E502753A
:10213500E78075E64675E6B900E4F5E5F5E7A20042
:0221450092AF57
:012147002275
:1020CE00E4FC7D347F031221957F34122242EC24EE
:1020DE0000FFE43434FE74002CF582E43400F58302
:0920EE00E0FD1221210CBC18E5F3
:0120F70022C6
:06238800EF90340093FF0A
:01238E00222C
:10226300E4FEAF0612238874002EF582E43400F5F1
:1022730083EFF00EBE18EB75100175110075120097
:012283002238
:1021B800438540438590E58554FC4403F585E4F563
:1021C800845385F75385DF43850475AC0753A4EF23
:0321D800F5AC2241
:0D234F008F86E58430E7FB438480AF862253
:1021DB0075C7507F641222EA75E780E4F5E375E476
:1021EB004075E50475E21475E64675E6B900F5E54C
:0321FB00F5E722E3
:10228400121FBE1221DB1221B812216F1221FE127D
:102294000003E5E154F84406F5E143E18043E1201D
:0122A4002217
:0C235C00E4F517F519F518F51AC209226E
:061F6F008B2B8A2C892D4A
:101F7500788F7C007D017BFF7A20791D7E007F2094
:101F8500120643753D01753E00753F8F754000751E
:101F9500410075422E852B43852C44852D45854072
:101FA50046854147854248AB3DAA3EA93F1220A040
:091FB5007B017A00798F020026FD
:0620F8008B3D8A3E893F8A
:1020FE00E4FEC2B3AB3DAA3EA93F8E8275830012A9
:10210E000682FF12234F740A2EF8A6070EBE06E4AF
:02211E00D2B33A
:01212000229C
:1022A50012228412235C7BFF7A207902752E007539
:1022B5002F18121F6F12236843E110121C3680F885
:101642006865616465723A2000307825303258202E
:10165200007461696C3A20000A00696E6974206640
:101662006C617368206661696C0A00696E69742036
:10167200666C617368204F4B0A006E68612067696F
:10168200750A00616E206E650A004F4E204F464675
:101692000A003220706861740A00726573657420F2
:1016A2006D6F64756C650A00534554205550204F88
:1016B2004B210A0A0A00552068643A20252E326618
:1016C20020562C200A00492068643A20252E3466D0
:1016D20020412C200A00636F6E6669672050206BE0
:1016E20065743A20252E336620570A0A0A004920DB
:1016F2006B65742075703A20252E336620410A00EE
:1017020050206B65742075703A20252E3366205761
:101712000A0A0049206B657420646F776E3A2025AF
:101722002E336620410A0050206B657420646F7767
:101732006E3A20252E336620570A0A0073746172AE
:101742007420636865636B20737475636B0A0A0A9D
:101752000064656C746120503A20252E3266200A9E
:101762000056554F54204D5543205049434B4C454C
:1017720042414C4C0A0A0A0050206B657420696E83
:1017820069743A20252E336620570A0000000000B3
:101792000000000000000000000000000000000047
:0D17A200000000000000230000035A5A5A06
:101BBF000213000001090042005C000042006600B1
:101BCF00004200890000420086000042008D0000A4
:101BDF0042008B00004100880041006C0041005E14
:101BEF000041005F0041006D004100800041008313
:101BFF000041007F00060A00000000000042008440
:101C0F000000420081000041007E004200600000A1
:101C1F0050006E00000000000000000000000000F7
:061C2F00000000010800A6
:041F18008F228D2364
:101F1C007DC87C00AF14AE131222FFEF6044E509BC
:101F2C006040E522B40204B2F98007E522B4010254
:101F3C00B2F8050812238F8E138F14E4FCFD7BFE80
:101F4C007AFFF9F8D31206F15005E4F513F514E510
:101F5C002375F002A4B5080AE4B5F006D2F9F50928
:021F6C00F50876
:011F6E002250
:0A2374007509017D037F01021F18A7
:10231B00AB10AA11A912900015120682700CE509D8
:0B232B00B402077D037F02121F18227E
:10222000E4F522D2F8C2F9F522B2F8B2F97FFA7ECB
:10223000001222C50522E522C3940640ECD2F8D252
:01224000F9A4
:01224100227A
:1019EA001222637BFF7A167942121F6FAB10AA117B
:1019FA00A912120669752E00F52F7BFF7A16794B0C
:101A0A00121F6F7BFF7A167953121F6FAB10AA1140
:101A1A00A912900017120682752E00F52F7BFF7A05
:101A2A0016794B121F6F7BFF7A16795A121F6FAB0A
:101A3A0010AA11A912120669645560739000171250
:101A4A00068264AA60697BFF7A16795C121F6FAB03
:101A5A0010AA11A91274551206AFAB10AA11A91235
:101A6A0090001774AA1206C1900015E41206C190DC
:101A7A0000051207DB0000000090000512071A900B
:101A8A00000D12074A9000091207DB0000000090BF
:101A9A00000912071A90001112074A900001120752
:101AAA00DB0000000090001674011206C180097B59
:0B1ABA00FF7A16796D121F6F0220CE1C
:09237E00E4FF20B40280027F019B
:012387002233
:05238F00AE15AF16229F
:10110700E4F522F52312238F8E228F2343E11090DB
:101117000066E522F0A3E523F0D390005DE0952378
:1011270090005CE09522400F900066E0FFA3E090FE
:10113700005CCFF0A3EFF090005CE0FEA3E0FFC3FC
:10114700900067E09FFF900066E09EFED3EF940A51
:10115700EE9400500302126512237E90006CEFF0AC
:10116700701990005EE0B40112900089E522F0A3A7
:10117700E523F090005F7401F0805D90006CE064FF
:1011870001705590005EE0704F900086E0FEA3E08E
:10119700FFC39423EE9400401DEF9458EE94025041
:1011A70015900080E0B40102801B9000837401F069
:1011B70090006DF0801DC3900087E09458900086E2
:1011C700E09402400E7BFF7A16797C121F6FE49041
:1011D7000080F0E490005FF090005FE060699000AD
:1011E70089E0FEA3E0FFD39523EE9522401874FF14
:1011F7009FFF74FF9EFEE5232FFFE5223E900086AA
:10120700F0A3EFF08017900089E0FEA3E0FFC3E5AD
:10121700239F900087F0E5229E900086F0C3900000
:1012270087E094B8900086E0940B401B900083748D
:1012370001F090006D04F0E523240C90008AF0E59E
:101247002234FE900089F090006CE090005EF090F0
:101257000066E0FFA3E090005CCFF0A3EFF0900002
:1012670083E0605A90006DE0B401197BFF7A16792C
:1012770085121F6F90008DE522F0A3E523F0900003
:1012870088E0802E90006DE06402702DAB10AA11EB
:10129700A912900015120682701030A20D121DDAE5
:1012A70075090212238F8E138F14E4900088F09033
:1012B700008004F0E490006DF0E4900083F090006B
:1012C7008DE0FEA3E0FFD39523EE9522401874FF2F
:1012D7009FFF74FF9EFEE5232FFFE5223E90008BC4
:1012E700F0A3EFF0801790008DE0FEA3E0FFC3E5C9
:1012F700239F90008CF0E5229E90008BF090008851
:10130700E0FF700302139CD390008CE09458900088
:101317008BE0940250030213A6EFB4012F7BFF7AF0
:1013270016798C121F6FB2A2D2F8E490007EF0AB50
:1013370010AA11A9129000151206C1900084E0FFAF
:10134700A3E0900081CFF0A3EFF0803B900088E00E
:10135700B4020B7BFF7A167994121F6F80299000D5
:1013670088E0B403227BFF7A16799C121F6F7509F8
:1013770001AB10AA11A912900015E41206C1E4905E
:10138700007EF0D2F8D2A2E4900088F090008BF0B3
:0F139700A3F0A3800390008DE522F0A3E523F0DF
:0113A6002224
:1020710078377C007D007BFF7A17798E7E007F06A2
:10208100120643741AF4FF7537A875381DE4F53943
:0F209100F53A753B558F3CFB7A0079370220F802
:081D59008F2B8B2C8A2D892EA3
:101D6100E4F52F78307C00FD7BFF7A177994FE7FB4
:101D710006120643AB2CAA2DA92E90000112068251
:101D8100FF7E00120669FD7C00E52B24A8FBE433ED
:101D9100CB2DFDEC3BCD2FFFEE3DFEAB2C90000299
:101DA1001206822FFFEFF4F5361220717530A885E7
:101DB1002B31AB2CAA2DA92E120669F53290000108
:101DC100120682F533900002120682F5348536350B
:091DD1007B007A0079300220F851
:021903008F262D
:10190500E4F52AF529F528F527F52B782C7C00FD3B
:101915007BFF7A17799AFE7F06120643E52624583F
:10192500FFE433FEEFF4FD752C5885262DE4F52EE6
:10193500F52FF530F531FB7A00792C1220F8E526E4
:101945002458FFE433FE7C00EF250CFFEC3EFEEF50
:10195500250DFFEC3EFEEF250EFFEC3EEFF4650F87
:10196500706EAF0DFDFE7808120707C004C005C0F4
:1019750006C007AF0CE4FCFDFE7810120707D00384
:10198500D002D001D000EF4BFBEE4AFAED49F9EC5D
:1019950048F8EB450EF52AEAF529E9F528E8F52793
:1019A5007E007F067D007B007A00790A120835E506
:1019B500285480FDED6010E52AF52AE529F529E58D
:1019C50028F52874FFF527AF2AAE29AD28AC2722C4
:1019D5007E007F067D007B007A00790A120835E4D7
:0419E500FFFEFDFC08
:0119E90022DB
:021AC5008F266A
:101AC700E4F52AF529F528F527F52B782C7C00FD78
:101AD7007BFF7A1779A0FE7F06120643E526245876
:101AE700FFE433FEEFF4FD752C5885262DE4F52E23
:101AF700F52FF530F531FB7A00792C1220F8E52621
:101B07002458FFE433FE7C00EF250CFFEC3EFEEF8C
:101B1700250DFFEC3EFEEF250EFFEC3EEFF4650FC3
:101B27007056AF0DFDFE7808120707C004C005C048
:101B370006C007AF0CE4FCFDFE7810120707D003C0
:101B4700D002D001D000EF4BFBEE4AFAED49F9EC99
:101B570048F8EB450EF52AEAF529E9F528E8F527CF
:101B67007E007F067D007B007A00790A120835AF78
:101B77002AAE29AD28AC27227E007F067D007B0098
:0C1B87007A00790A120835E4FFFEFDFC2C
:011B9300222F
:1022FF00AB07AA0612238FC3EF9BFFEE9AFEC3EF25
:0C230F009DEE9C40047F0180027F0022B4
:101E540078227C007D007BFF7A1779A67E007F03C1
:101E640012064378257C007D007BFF7A1779A97ED2
:101E7400007F0312064378287C007D007BFF7A17DD
:101E840079AC7E007F031206437B007A0079257FBC
:101E94001A121D597B007A0079287F1C121D597B68
:101EA400007A0079227F18121D597BFF7A1679AACD
:031EB400021F6F9B
:1017AF007F04121AC590006812079E7525E17524F3
:1017BF0008752384752238900068E0FCA3E0FDA330
:1017CF00E0FEA3E0FFE4120349AB25AA24A923A856
:1017DF002212013690006E12079E7BFF7A1679B89F
:1017EF0090006EE0FCA3E0FDA3E0FEA3E0F5318ED8
:1017FF00308D2F8C2E121F6F7F03121AC590005839
:10180F0012079E7525C5752491752385752236900F
:10181F000058E0FCA3E0FDA3E0FEA3E0FFE4120309
:10182F0049AB25AA24A923A82212013690007212CF
:10183F00079E7BFF7A1679C8900072E0FCA3E0FD4B
:10184F00A3E0FEA3E0F5318E308D2F8C2E121F6F8B
:10185F007F177EB77DD17C38900072E0F8A3E0F956
:10186F00A3E0FAA3E0FB1202DC500F900076120700
:10187F00AA0000000090007A80727F061219039070
:10188F00006212079E7525677524417523D2752254
:10189F003A900062E0FCA3E0FDA3E0FEA3E0FFECC2
:1018AF00120349AB25AA24A923A8221201369000BE
:1018BF007612079EE4FFFEFDFC900076E0F8A3E0B1
:1018CF00F9A3E0FAA3E0FB1202DC401D7F007E408B
:1018DF007D1C7C46900076E0F8A3E0F9A3E0FAA324
:1018EF00E0FB1202DC600C400A9000761207AA009F
:0318FF00000000E6
:0119020022C2
:101DDA00900076E0FCA3E0FDA3E0FEA3E0FFAB10D9
:101DEA00AA11A91290000512074A90000512071AB3
:101DFA0090000D12074A900072E0FCA3E0FDA3E0F8
:101E0A00FEA3E0FF90000912074A90000912071A80
:101E1A0090001112074A90006EE0FCA3E0FDA3E0D7
:101E2A00FEA3E0FF90000112074A1220CEAB10AACF
:101E3A0011A91290000D12071A8F318E308D2F8C36
:0A1E4A002E7BFF7A1679D8021F6F75
:100D8400900072E0FCA3E0FDA3E0FEA3E0FF90006E
:100D94006EE0F8A3E0F9A3E0FAA3E0FB120136A8A1
:100DA40004A905AA06AB07900076E0FCA3E0FDA326
:100DB400E0FEA3E0FF12023F90007A12079EAB1000
:100DC400AA11A91290000112076E90006EE0FCA314
:100DD400E0FDA3E0FEA3E0FF120041AB10AA11A9BD
:100DE4001290000112076E12023FE4FBFA79C878F0
:100DF40042120136E4FBFA794078401202DC4003E7
:100E0400020F647F157EE57DD27C3A90006EE0F897
:100E1400A3E0F9A3E0FAA3E0FB12013690006EE030
:100E2400F8A3E0F9A3E0FAA3E0FB120136C004C082
:100E340005C006C0077F647ECC7D5D7C3E90006E5D
:100E4400E0F8A3E0F9A3E0FAA3E0FB120136A8045A
:100E5400A905AA06AB07D007D006D005D004120016
:100E6400417BD97ABD798A7842120045E4FBFA794C
:100E74007A784412023FAB10AA11A9129000091209
:100E8400074A90000912071A90001112074A7FB40A
:100E94007EA57D337C3A90006EE0F8A3E0F9A3E0F0
:100EA400FAA3E0FB12013690006EE0F8A3E0F9A388
:100EB400E0FAA3E0FB120136C004C005C006C00777
:100EC4007F607E1F7DDD7C3D90006EE0F8A3E0F93D
:100ED400A3E0FAA3E0FB120136A804A905AA06AB15
:100EE40007D007D006D005D0041200417B037A094D
:100EF400792D7841120045AB10AA11A91290000572
:100F040012074A90000512071A90000D12074A9022
:100F1400006EE0FCA3E0FDA3E0FEA3E0FF9000016F
:100F240012074A1220CEAB10AA11A9129000111276
:100F3400071A8F318E308D2F8C2E7BFF7A1679F025
:100F4400121F6FAB10AA11A91290000D12071A8F6D
:100F5400318E308D2F8C2E7BFF7A177902021F6F12
:100F6400AB10AA11A91290000112071A90006EE0AA
:100F7400F8A3E0F9A3E0FAA3E0FB120041AB10AA46
:100F840011A91290000112076E12023FE4FBFA79D4
:100F9400C87842120136E4FBFA794078401202DC48
:100FA40040030211067F157EE57DD27C3A90006EE7
:100FB400E0F8A3E0F9A3E0FAA3E0FB120136900005
:100FC4006EE0F8A3E0F9A3E0FAA3E0FB120136C057
:100FD40004C005C006C0077F647ECC7D5D7C3E9066
:100FE400006EE0F8A3E0F9A3E0FAA3E0FB120136F7
:100FF400A804A905AA06AB07D007D006D005D004DB
:101004001200417BD97ABD798A7842120045E4FB0B
:10101400FA797A784412023FAB10AA11A91290000F
:101024000912074A90000912071A90001112074A80
:101034007FB47EA57D337C3A90006EE0F8A3E0F99E
:10104400A3E0FAA3E0FB12013690006EE0F8A3E0FF
:10105400F9A3E0FAA3E0FB120136C004C005C00600
:10106400C0077F607E1F7DDD7C3D90006EE0F8A3AD
:10107400E0F9A3E0FAA3E0FB120136A804A905AA4B
:1010840006AB07D007D006D005D0041200417B037D
:101094007A09792D7841120045AB10AA11A9129052
:1010A400000512074A90000512071A90000D120756
:1010B4004A90006EE0FCA3E0FDA3E0FEA3E0FF90F5
:1010C400000112074A1220CEAB10AA11A9129000F7
:1010D4001112071A8F318E308D2F8C2E7BFF7A17C9
:1010E4007915121F6FAB10AA11A91290000D1207E7
:1010F4001A8F318E308D2F8C2E7BFF7A177929121F
:031104001F6F2238
:1013A700E4FFFE7DC87C4290006EE0F8A3E0F9A35D
:1013B700E0FAA3E0FB1202DC6002500302162DE400
:1013C700FFFE7DA07C40900076E0F8A3E0F9A3E063
:1013D700FAA3E0FB1202DC6002500302162DAB10E9
:1013E700AA11A91290000512071AE4FBFAF9F812DC
:1013F70002DC400302162D900081E0FEA3E0FFE42B
:10140700FCFD7BFA7AFFF9F81206F15007E4900029
:1014170081F0A3F0AB10AA11A91290001512068251
:10142700600302161D90000512071AE4FBFAF9F88B
:101437001202DC400302161D90007EE0703390001C
:1014470081E0FEA3E0FF7DC47C091222FFEF700359
:10145700021641900084E0FFA3E0900081CFF0A343
:10146700EFF090007E7401F07BFF7A17793E021F40
:011477006F05
:10147800E4F525F524F523F522120D84AB10AA1105
:10148800A91290000512071A900076E0F8A3E0F977
:10149800A3E0FAA3E0FB1202DC6002500302156924
:1014A800AB10AA11A91290000912071A900072E055
:1014B800F8A3E0F9A3E0FAA3E0FB1202DC604040E5
:1014C8003EAB10AA11A91290000512076E90007683
:1014D800E0FCA3E0FDA3E0FEA3E0FF120041AB1097
:1014E800AA11A91290000D12076E12023FE4FBFA2E
:1014F80079C878421201368F258E248D238C22AB31
:1015080010AA11A91290000D12071A900076E0F89F
:10151800A3E0F9A3E0FAA3E0FB1202DC60025003A7
:101528000215DAAB10AA11A91290001112071A902D
:101538000072E0F8A3E0F9A3E0FAA3E0FB1202DCF2
:10154800600250030215DAAB10AA11A91290000D1F
:1015580012071A90000512074A90001112071A8004
:101568006BAB10AA11A91290000512071A90007609
:10157800E0F8A3E0F9A3E0FAA3E0FB120041AB1006
:10158800AA11A91290000512076E12023FE4FBFA95
:1015980079C87842120136E4FBFAF978401202DC85
:1015A8006030402E900076E0FCA3E0FDA3E0FEA3AF
:1015B800E0FFAB10AA11A91290000512074A90008B
:1015C80072E0FCA3E0FDA3E0FEA3E0FF9000091297
:1015D800074AE4FFFE7D207C41AB25AA24A923A865
:1015E800221202DC4053AB10AA11A9129000157404
:1015F800011206C17BFF7A1779538525318524307E
:1016080085232F85222E121F6F7BFF7A177963128D
:041618001F6FC2A2DC
:10161C0022900084E0FFA3E0900081CFF0A3EFF0D4
:10162C0022900084E0FFA3E0900081CFF0A3EFF0C4
:06163C00E490007EF022A4
:0C236800D2A21222207FE87E030222C5D0
:101C360012238F900084EEF0A3EFF090007FE07007
:101C4600341219EA121E5412238F900060EEF0A38C
:101C5600EFF090007F7401F0AB10AA11A91290006A
:101C66000D12071A8F318E308D2F8C2E7BFF7A172F
:101C7600797A121F6F121107900060E0FEA3E0FF51
:101C86007DF47C011222FFEF60271217AF1213A713
:101C960012238F900060EEF0A3EFF0E4FCFD7BFAD8
:101CA6007AFFF9F8D31206F15007E4900060F0A32A
:101CB600F0AB10AA11A912900015120682B4010306
:071CC60002237412231B220C
:10003E000203BCE86480F8E933E83360110460F031
:10004E00ED33EC337009E8FCE9FDEAFEEBFF220428
:10005E0060DED3EB9FEA9EE99DE8C2E78CF0C2F723
:10006E0095F0400CE8CCF8E9CDF9EACEFAEBCFFBEF
:10007E0012038785D0F05804700320D5B3E80470BE
:10008E00075002B2D50203C692D5EC0460F7E4CC59
:10009E00C0E0C398F8603B94186008400DD0E0FBB8
:1000AE0002039EE4FBFAC9FC8028E830E406E4C9AA
:1000BE00FBE4CAFCE830E305E4C9CACBFCE854070C
:1000CE006010F8C3E913F9EA13FAEB13FBEC13FC17
:1000DE00D8F130F52FC3E49CFCEF9BFFEE9AFEEDBA
:1000EE0099FDD0E0FBEF4E4D4C701222DB03020364
:1000FE00C3EC2CFCEF33FFEE33FEED33FDED30E7BA
:10010E00EB02039EEF2BFFEE3AFEED39FDD0E0FB46
:10011E0050130BBB00030203C6ED13FDEE13FEEFEF
:08012E0013FFEC13FC02039E19
:10013600EC4D6011E8497017ED33EC3304600DE4C3
:10014600FCFFFEFD22E933E8330470F80203BC121B
:10015600038758046009E4CC24815006285009021C
:1001660003C62840030203C3C0E0EB4A7044B980CB
:1001760006D0E0FB0203B2EF4E701CBD8008EBFF19
:10018600EAFEE9FD80EBE98DF0A4FEE5F002021F30
:10019600E9CDF9EAFEEBFFEF89F0A4FCE5F0CE89A4
:1001A600F0A42EFFE435F0CD89F0A42DFEE435F061
:1001B6008067EF4E7005BD80D780C3EF8BF0A4AC8F
:1001C600F0EE8BF0A42CFCE435F0F8EF8AF0A42CCA
:1001D600E5F038FCE433CB8DF0A42CFCE5F03BF8DD
:1001E600EE8AF0A42CFCE5F038F8E433CF89F0A4CD
:1001F6002CFCE5F038CF3400CE89F0A42FFFE5F0D3
:100206003EFEE433C98DF0A42EFEE5F039CD8AF02A
:10021600A42FFFE5F03EFEE43DFD33D0E0FB5007A2
:100226000BBB000F0203C6EC2CFCEF33FFEE33FED4
:06023600ED33FD02039E02
:10023C000203C6EC5D046005E8590470030203BCBC
:10024C00120387580460F6EC4860F2EC7004FDFE73
:10025C00FF22C860DB2481C85009C3986002500695
:10026C000203C39850CAF582E9294B4A7005AB8248
:10027C000203B275F0007C1A7880C3EF9BEE9AED06
:10028C0099400DC3EF9BFFEE9AFEED99FDE842F00D
:10029C00DC23ACF0D0E0FFD0E0FED0E0FDAB822060
:1002AC00E7101BEB60BAEC2CFCEF33FFEE33FEEDEA
:1002BC0033FD02039EE803F830E705C0F075F0004B
:1002CC00EF2FFFEE33FEED33FD40B830E7C280AACE
:1002DC0074F8CC6480CCC86480C8F582046043C3D5
:1002EC00EB9FF5F0EA9E42F0E99D42F0E89C45F068
:1002FC0060305018E5825FFFE582F42B5582FB508D
:10030C00210ABA001D09B90019088016E5825BFBA9
:10031C00E582F42F5582FF50090EBE00050DBD007D
:10032C00010CC3EB9FF5F0EA9E42F0E99D42F0E828
:0D033C009C45F06007CC4820E701B3EC229F
:1003490075F020800E75F010800575F0087D007E2F
:10035900007F003392D530D5031206E3EC33401009
:10036900EF33FFEE33FEED33FDEC33FCD5F0ED2238
:0E037900E5F0247EA2D513CC92E7CDCEFF2274
:1020A00085434C85444D85454EEBC546FBEAC54707
:1020B000FAE9C548F97F09784F120669F60809E977
:0E20C00070010ADFF4AB46AA47A94802097175
:10038700E9D2E7C933E833F892D5EDD2E7CD33ECBC
:0703970033FC5002B2D52235
:10039E00EC30E7100FBF000C0EBE00080DBD0004C0
:1003AE000BEB6014A2D5EB13FCED92E7FD2274FF6C
:1003BE00FCFDFEFF22E480F8A2D574FF13FC7D80C5
:0303CE00E480EFD9
:10091500E560244CF8E60560227849300702784CFA
:10092500E475F0011207FF0206692000EB7F2ED265
:10093500008018EF540F2490D43440D4FF30040BBA
:10094500EF24BFB41A0050032461FFE5616002156E
:10095500610564E5647002056330070D7849E47547
:10096500F0011207FFEF0206AF0221487403D20718
:100975008003E4C207F5608B498A4A894BE4F56137
:10098500F563F564E56160077F2012095080F57510
:1009950062FFC201C200C202C203C205C206C2088A
:1009A50012091EFF700D3007057F00120961AF6443
:1009B500AE6322B4255FC2D5C20412091EFF24D03E
:1009C500B40A00501A75F00A786130D50508B6FFEB
:1009D5000106C6A426F620D5047002D20380D924C8
:1009E500CFB41A00EF5004C2E5D204020C4ED20176
:1009F50080C6D20080C0D20280BCD2D580BAD205D2
:100A050080B47F201209502002077401B5610040AF
:100A1500F1120915FF120950020989D208D2068080
:100A250095120915FB120915FA120915F94A4B70A9
:100A35000679457A0D7BFF20022EE561602A7E004E
:100A45008E8275830012068260060EEE656270F076
:100A5500C2D5EBC0E0EAC0E0E9C0E0EE120CAED0D2
:100A6500E0F9D0E0FAD0E0FB120669FF60AAEBC01E
:100A7500E0EAC0E0E9C0E0120950D0E02401F9D075
:100A8500E03400FAD0E0FBE5620460DCD562D98091
:100A950087D20280A2120C9160F7E5627001041200
:100AA50003D1A962600DE562600914F562120D3883
:100AB500EF60F3EA30E702F404C3995077EAF425CE
:100AC500620430E701E404F562800D120C9160C107
:100AD500EA056225621203D1EA785FF630E701E4A0
:100AE500256204D5620420050114120CAEE4C0E0B1
:100AF500120D38785FE6601320E70714F6120938FF
:100B0500802204F6D0E014C0E07F00120938E562C7
:100B1500600712092F1562800B30050312092FD0CB
:100B2500E0020989D0E00480C5120C9160A0E5625D
:100B3500041203D1785FEAF6E5622005026001043C
:050B45002404120CAEB7
:100B4A0074FF04C0E0120D38120938E5622005026C
:100B5A00600312092FD0E0B562E87F451209427896
:100B6A005FE67F2B30E7047F2DF404C0E0120950C2
:100B7A00D0E075F00A84C0F0120939D0E0120939C0
:100B8A00020989791080027908C206C2088008D24F
:100B9A00D5790A8004790AC2D5E562047002F56241
:100BAA00E4FAFDFEFF120915FC7B08200113120965
:100BBA0015FD7B1030000A120915FE120915FF7B7C
:100BCA0020EC3382D592D55013C3E43000069FFF40
:100BDA00E49EFEE42001039DFDE49CFCE4CBF8C204
:100BEA0001EC700CCFCECDCCE824F8F870F3801766
:100BFA00C3EF33FFEE33FEED33FDEC33FCEB33FB97
:100C0A00994002FB0FD8E9EB300105F8D0E0C4485F
:100C1A00B201C0E00AEC4D4E4F78207B0070C2EA68
:100C2A00B5620040BCC0E0120CB0D0F0D0E02001A8
:100C3A0004C4C0E0C4B201C0F0120939D0F0D5F042
:100C4A00EB02098912080F0A26530B8D5809F74C33
:100C5A0009F3420B914F0B99440B99490A0C430B28
:100C6A009F550AD0460B2E450A9A470D655009FB37
:100C7A002D09FF2E0A222B0A03230A20200D4E2AB1
:100C8A0009BB4800000A1AE562B4FF03756206123E
:100C9A000915FC120915FD120915FE120915FF782E
:100CAA0058020400790AA2D5200314300509B910A4
:100CBA00020404B9080104A2D52006025001042046
:100CCA0002689202B561005034C0E07F20300319F7
:100CDA007F30A20272067205500F120D07C202C2BD
:100CEA0006C205C2087F30800F300503E9C0E01252
:100CFA000950300503D0E0F9D0E0B561CC300517D2
:100D0A007F30B9100C1209507F583004077F788061
:100D1A0003B908031209503002057F2D0209507FDA
:100D2A00202008F87F2B2006F322920280CF7F0032
:100D3A00B4070050052458F8E6FF22286E756C6C3B
:100D4A002900D2011209153001F8C201786130D5A3
:100D5A000108F60209BB2D5043495812091524030C
:100D6A00B405004001E4900D6093120941743A12EF
:0A0D7A000941D203756104020B8DDC
:1003D100F920E72824F950037907E4F42402FB18F3
:1003E100DBFDE624FB5014E9600DE4F618E604F6A3
:0F03F100B40A08E4F6D9F57401F60A22C2D5223F
:10040000ED33EC3392D5FA602AB4FF33EDC2E77BCB
:10041000FF60067A047925E4227A04792E20D50437
:100420007A047929224E614E002B494E46002D490F
:100430004E4600E47A08F608DAFC7B00740722E8EE
:10044000C0E0ECC0E0EDC0E0EEC0E0EFC0E0EA7577
:10045000F010A4CAABF075F04DA42BFBE435F0FC12
:10046000EA2410FAEB34C5FBEC34D9FCEDC2E7FF0B
:1004700075F056A4F42411C5F0F434C58FF0A42A05
:10048000E5F03BE43CF620E714120533D0E0FFD062
:10049000E0FED0E0FDD0E0FC12023F8014F4041234
:1004A0000533D0E0FFD0E0FED0E0FDD0E0FC12014B
:1004B00036D0E0F8E6FAEDD2E7CD33EC332482FB18
:1004C000E4C3CF33CFCE33CECD33CD33DBF37B0795
:1004D00075F00A846004F6081B0AE5F0F6088FF050
:1004E000740AA4FFACF08EF0740AA42CFEACF05099
:1004F000010C8DF0740AA42CFDE435F0F608DBDE67
:030500007407225B
:100503003F8000004120000042C80000447A000000
:10051300461C400047C35000497424004B18968082
:100523004CBEBC205A0E1BCA6753C21C749DC5AE79
:10053300FB60065407601C2323120561EB543860EB
:100543000912054D12055C120136ECF8EDF9EEFACD
:10055300EFCB22EB12055C80F1543803241C900589
:1005630003FE93FC0EEE93FD0EEE930ECE93FF224D
:03000000021CCD12
:0C1CCD00787FE4F6D8FD758164021D14D8
:10057300E709F608DFFA8046E709F208DFFA803E6A
:1005830088828C83E709F0A3DFFA8032E309F60857
:10059300DFFA8078E309F208DFFA807088828C83BF
:1005A300E309F0A3DFFA806489828A83E0A3F60873
:1005B300DFFA805889828A83E0A3F208DFFA804C4D
:1005C30080D280FA80C680D4806980F28033801024
:1005D30080A680EA809A80A880DA80E280CA80338D
:1005E30089828A83ECFAE493A3C8C582C8CCC58305
:1005F300CCF0A3C8C582C8CCC583CCDFE9DEE780D5
:100603000D89828A83E493A3F608DFF9ECFAA9F053
:10061300EDFB2289828A83ECFAE0A3C8C582C8CCA9
:10062300C583CCF0A3C8C582C8CCC583CCDFEADEC2
:10063300E880DB89828A83E493A3F208DFF980CC24
:1006430088F0EF60010E4E60C388F0ED2402B4041D
:100653000050B9F582EB2402B4040050AF232345C4
:0606630082239005C37321
:10066900BB010689828A83E0225002E722BBFE028F
:09067900E32289828A83E49322C2
:10068200BB010CE58229F582E5833AF583E022502D
:1006920006E92582F8E622BBFE06E92582F8E22277
:0D06A200E58229F582E5833AF583E4932291
:1006AF00BB010689828A83F0225002F722BBFE012A
:0206BF00F32224
:1006C100F8BB010DE58229F582E5833AF583E8F06F
:1006D100225006E92582C8F622BBFE05E92582C81B
:0206E100F22203
:0E06E300C3E49FFFE49EFEE49DFDE49CFC2228
:1006F100EB9FF5F0EA9E42F0E99D42F0EC6480C880
:0607010064809845F0221F
:10070700E8600FEFC333FFEE33FEED33FDEC33FC50
:03071700D8F122F4
:10071A00BB010DE58229F582E5833AF58302086D6E
:10072A005007E92582F8020861BBFE07E92582F82D
:10073A00020879E58229F582E5833AF5830208857C
:10074A00BB010DE58229F582E5833AF58302079E0E
:10075A005007E92582F80208CBBBFE07E92582F893
:04076A000208D72288
:10076E00BB010DE58229F582E5833AF5830208A2E5
:10077E005007E92582F8020895BBFE07E92582F8A5
:10078E000208AEE58229F582E5833AF5830208BBBD
:0C079E00ECF0A3EDF0A3EEF0A3EFF022CE
:1007AA00A8828583F0D083D0821207C11207C112B2
:1007BA0007C11207C1E473E493A3C583C5F0C583D7
:1007CA00C8C582C8F0A3C583C5F0C583C8C582C899
:0107DA0022FC
:1007DB00BB010DE58229F582E5833AF5830207AA71
:1007EB005007E92582F80208E3BBFE07E92582F8EA
:0407FB000208FC22D2
:1007FF00FAE6FB0808E6F925F0F618E6CA3AF622FB
:10080F00D083D082F8E4937012740193700DA3A378
:10081F0093F8740193F5828883E47374029368608C
:06082F00EFA3A3A380DF8C
:10214800EFB40A07740D122153740A309811A89934
:10215800B8130CC2983098FDA899C298B811F630F7
:0721680099FDC299F59922CF
:10083500EF4E6012EF60010EEDBB010B89828A83DA
:10084500F0A3DFFCDEFA2289F05007F709DFFCA9E7
:0C085500F022BBFEFCF309DFFCA9F0223E
:101CD9000222A5E493A3F8E493A34003F68001F25A
:101CE90008DFF48029E493A3F85407240CC8C3330C
:101CF900C4540F4420C8834004F456800146F6DFDB
:101D0900E4800B0102040810204080901B94E47EBB
:101D1900019360BCA3FF543F30E509541FFEE493CF
:101D2900A360010ECF54C025E060A840B8E493A396
:101D3900FAE493A3F8E493A3C8C582C8CAC583CAC1
:101D4900F0A3C8C582C8CAC583CADFE9DEE780BE79
:011C350000AE
:0C086100E6FC08E6FD08E6FE08E6FF22C3
:0C086D00E0FCA3E0FDA3E0FEA3E0FF22FE
:0C087900E2FC08E2FD08E2FE08E2FF22BB
:10088500E493FC740193FD740293FE740393FF22B9
:0D089500E6FB08E6F908E6FA08E6CBF822D3
:0C08A200E0F8A3E0F9A3E0FAA3E0FB22D9
:0D08AE00E2FB08E2F908E2FA08E2CBF822CA
:1008BB00E493F8740193F9740293FA740393FB2293
:0C08CB00ECF608EDF608EEF608EFF62259
:0C08D700ECF208EDF208EEF208EFF2225D
:1008E300D083D082E493F608740193F608740293DC
:0908F300F608740393F674047313
:1008FC00D083D082E493F208740193F208740293CB
:09090C00F208740393F274047301
:00000001FF
