:1020CD00696E697420646F6E652C2073697A652062
:1020DD00666C6173682025750A0A00000000000017
:1020ED0000000000000000000000000000000000E3
:0B20FD000000000000000000000000D8
:101C4C00011700011900011800011A0058000000CA
:101C5C000000000000000000000000000000000078
:0B1C6C00000000000000000215000056
:03003B000224108C
:09241000C0E0C0D075D000C00787
:09241900AF86438480EF04F586D0
:07242200D007D0D0D0E0325A
:03002300021F7940
:101F7900C0E0C083C082C0D0C0AC75AC0030992726
:101F8900C299E518B51A04C209801C7438251AF5D6
:101F990082E43400F583E0F599D209051AE51AC3FC
:101FA90094204003751A0030981CC298741825179C
:101FB900F582E43400F583E599F00517E517C39434
:101FC900204003751700D0ACD0D0D082D083D0E0A8
:011FD90032D5
:03000B0002000EE2
:10000E00C0E0758CF8758A300516E5167002051578
:03001E00D0E032FD
:1021080020090EE4F51A751801900038EFF0D299FD
:1021180022AE1874382EF582E43400F583EFF00E01
:10212800EEC394204002E4FEEE651A60FBC2AC8E5A
:0321380018D2AC0E
:01213B002281
:10002600120669FF600C122108740129F9E43AFAF4
:0300360080EE2237
:0723D8007FC81223DF7FC85C
:1023DF00EF6011000000000000000000000000008E
:0523EF00001F80EC223C
:1023BA00AD07AC06ED4C601543E1101223D8122389
:0E23CA00D87FC81223DFED1D70EA1C80E722C9
:102089004391A053925F43914043924053B1F74328
:10209900B20853B1FC53B2FC43B11043B21053958B
:1020A900EF75AC01439210E4F5AC43950475AC01AE
:1020B9005392FBF5AC75AC0143B50375AC03539270
:0420C900FCF5AC2254
:07000300D2A9D2ACD2AF225A
:1022F300439C01539CEFC29FD29ED29C43B930535F
:10230300877F439C4043B940759AF3759BF343B968
:02231300802226
:10226400E58954FC4401F58953A4FE53A3FB538927
:10227400FB5389F775AC0653A4EFE4F5AC758A30CB
:06228400758CF8D28C22DB
:10233700A2AF92008FE3E4F5E4C2AF75E50375E75A
:102347008075E64675E6B900F5E5F5E7A20092AFB8
:012357002263
:10228A00A2AF9200C2AFE4F5E38FE48DE275E504F4
:10229A0075E78075E64675E6B900F5E5F5E7A2004B
:0222AA0092AFF1
:0122AC00220F
:04221600AB07AA0662
:10221A00A2AF92008DE28AE38BE4C2AF75E5027544
:10222A00E78075E64675E6B900E4F5E5F5E7A2004C
:02223A0092AF61
:01223C00227F
:10219900E4FC7D347F0312228A7F34122337EC2436
:1021A90000FFE43434FE74002CF582E43400F58336
:0921B900E0FD1222160CBC18E531
:0121C20022FA
:06247C00EF90340093FF15
:012482002237
:10235800E4FEAF0612247C74002EF582E43400F506
:1023680083EFF00EBE18EB751001751100751200A1
:012378002242
:1022AD00438540438590E58554FC4403F585E4F56D
:1022BD00845385F75385DF43850475AC0753A4EF2D
:0322CD00F5AC224B
:0D243B008F86E58430E7FB438480AF862266
:1022D00075C7507F641223DF75E780E4F5E375E48A
:1022E0004075E50475E21475E64675E6B900F5E556
:0322F000F5E722ED
:102379001220891222D01222AD1222641222F312E3
:102389000003E5E154F84406F5E143E18043E12027
:012399002221
:0C244800E4F517F519F518F51AC2092281
:06203A008B358A36893760
:1020400078907C007D017BFF7A2079E87E007F20FC
:10205000120643754701754800754990754A007529
:102060004B00754C3885354D85364E85374F854A42
:1020700050854B51854C52AB47AA48A94912216B58
:092080007B017A00799002002630
:0621ED008B3D8A3E893F94
:1021F300E4FEC2B3AB3DAA3EA93F8E8275830012B3
:102203000682FF12243B740A2EF8A6070EBE06E4CC
:02221300D2B344
:0122150022A6
:10239A001223791224487BFF7A2079CD753800758B
:1023AA00391812203A12242943E110121CEF80F83E
:10165C006865616465723A20003078253032582014
:10166C00007461696C3A20000A00696E6974206626
:10167C006C617368206661696C0A00696E6974201C
:10168C00666C617368204F4B0A006E686120676955
:10169C00750A00616E206E650A004F4E204F46465B
:1016AC000A003220706861740A003320706861741B
:1016BC000A00666C616720737475636B3A2025644D
:1016CC000A0A0A00446174612072656320726567BE
:1016DC00203078253032583A20005345542055504C
:1016EC00204F4B210A0A0A00552068643A20252E07
:1016FC00326620562C200A00492068643A20252E98
:10170C00346620412C200A005020686965752064DD
:10171C00756E673A20252E336620570A0A00636FD0
:10172C006E6669672050206B65743A20252E3366EF
:10173C0020570A0A0A0049206B65742075703A20FC
:10174C00252E336620410A0050206B65742075707D
:10175C003A20252E336620570A0A0049206B6574FF
:10176C0020646F776E3A20252E336620410A005094
:10177C00206B657420646F776E3A20252E336620BB
:10178C00570A0A00737461727420636865636B2076
:10179C00737475636B0A0A0A0064656C746120507B
:1017AC003A20252E3266200A0056554F54204D55AE
:1017BC0043205049434B4C4542414C4C0A0A0A00C9
:1017CC0050206B657420696E69743A20252E33663F
:1017DC0020570A000000000000000000000000007C
:1017EC0000000000000000000000000000002300CA
:0517FC0000035A5A5AD7
:101C77000213000001090042005C000042006600F8
:101C87000042008A0000420087000042008E0000E8
:101C970042008C00004100890041006C0041005E59
:101CA7000041005F0041006D004100810041008458
:101CB7000041008000060A00000000000042008585
:101CC7000000420082000041007F004200600000E7
:101CD70051006E000000000000000000000000003E
:071CE70000000000010800ED
:041FDA008F228D23A2
:101FDE007DE87C03AF14AE131223F4EF604DE509D8
:101FEE006049E522B40204B2F98012E522B401047C
:101FFE00B2F88009E522B40304B2F9B2F80508126A
:10200E0024838E138F14E4FCFD7BFE7AFFF9F8D344
:10201E001206F15005E4F513F514E52375F002A44C
:0B202E00B50808E4B5F004F509F5085A
:012039002284
:0A2454007509017D037F01021FDA04
:0A245E007509027D037F02021FDAF8
:0A2468007509037D037F03021FDAEC
:1021C300E4F524AB10AA11A912900015120682702F
:1021D30018C2F9F524B2F97F967E001223BA0524BA
:0921E300E524C3940640EED2F994
:0121EC0022D0
:10231500E4F522D2F8C2F9F522B2F8B2F97FFA7ED5
:10232500001223BA0522E522C3940640ECD2F8D266
:01233500F9AE
:012336002284
:101AA2001223587BFF7A16795C12203AAB10AA11E6
:101AB200A912120669753800F5397BFF7A16796525
:101AC20012203A7BFF7A16796D12203AAB10AA11D6
:101AD200A912900017120682753800F5397BFF7A39
:101AE20016796512203A7BFF7A16797412203AAB86
:101AF20010AA11A912120669645560739000171298
:101B0200068264AA60697BFF7A16797612203AAB64
:101B120010AA11A91274551206AFAB10AA11A9127C
:101B220090001774AA1206C1900015E41206C19023
:101B320000051207DB0000000090000512071A9052
:101B4200000D12074A9000091207DB000000009006
:101B5200000912071A90001112074A900001120799
:101B6200DB0000000090001674011206C180097BA0
:0B1B7200FF7A16798712203A022199B1
:09247200E4FF20B40280027F01A6
:01247B00223E
:05248300AE15AF1622AA
:10110700E4F522F5231224838E228F2343E11090E6
:101117000066E522F0A3E523F0D390005DE0952378
:1011270090005CE09522400F900066E0FFA3E090FE
:10113700005CCFF0A3EFF090005CE0FEA3E0FFC3FC
:10114700900067E09FFF900066E09EFED3EF940A51
:10115700EE9400500302126512247290006CEFF0B7
:10116700701990005EE0B4011290008AE522F0A3A6
:10117700E523F090005F7401F0805D90006CE064FF
:1011870001705590005EE0704F900087E0FEA3E08D
:10119700FFC39423EE9400401DEF9458EE94025041
:1011A70015900081E0B40102801B9000847401F067
:1011B70090006DF0801DC3900088E09458900087E0
:1011C700E09402400E7BFF7A16799612203AE4905B
:1011D7000081F0E490005FF090005FE060699000AC
:1011E7008AE0FEA3E0FFD39523EE9522401874FF13
:1011F7009FFF74FF9EFEE5232FFFE5223E900087A9
:10120700F0A3EFF0801790008AE0FEA3E0FFC3E5AC
:10121700239F900088F0E5229E900087F0C39000FE
:1012270088E094B8900087E0940B401B900084748A
:1012370001F090006D04F0E523240C90008BF0E59D
:101247002234FE90008AF090006CE090005EF090EF
:101257000066E0FFA3E090005CCFF0A3EFF0900002
:1012670084E0605990006DE0B401197BFF7A16792C
:101277009F12203A90008EE522F0A3E523F090001C
:1012870089E0802D90006DE06402702CAB10AA11EC
:10129700A912900015120682700F30A20C90007EE2
:1012A700E07006121E9C1221C3E4900089F09000A2
:1012B7008104F0E490006DF0E4900084F090008EDB
:1012C700E0FEA3E0FFD39523EE9522401874FF9F1D
:1012D700FF74FF9EFEE5232FFFE5223E90008CF072
:1012E700A3EFF0801790008EE0FEA3E0FFC3E52395
:1012F7009F90008DF0E5229E90008CF0900089E091
:10130700FF70030213ADD390008DE0945890008CCA
:10131700E0940250030213B7EF640170317BFF7A48
:101327001679A612203AB2A2D2F8D2F9E490007F39
:10133700F0AB10AA11A9129000151206C1900085F2
:10134700E0FFA3E0900082CFF0A3EFF0804A900087
:1013570089E0B4020B7BFF7A1679AE12203A803807
:10136700900089E0640370307BFF7A1679B612200B
:101377003A90007EE070047F0180027F0090007E3B
:10138700EFF07BFF7A1679BEF53812203AD2F8D201
:10139700F91224838E138F14E4900089F090008C47
:1013A700F0A3F0A3800390008EE522F0A3E523F0DD
:0113B7002213
:10213C0078377C007D007BFF7A1779E07E007F0684
:10214C00120643741AF4FF7537A875381DE4F53977
:0F215C00F53A753B558F3CFB7A0079370221ED40
:081E1B008F2B8B2C8A2D892EE0
:101E2300E4F52F78307C00FD7BFF7A1779E6FE7F9F
:101E330006120643AB2CAA2DA92E9000011206828E
:101E4300FF7E00120669FD7C00E52B24A8FBE4332A
:101E5300CB2DFDEC3BCD2FFFEE3DFEAB2C900002D6
:101E63001206822FFFEFF4F53612213C7530A88558
:101E73002B31AB2CAA2DA92E120669F53290000145
:101E8300120682F533900002120682F53485363548
:091E93007B007A0079300221ED98
:021979008F26B7
:10197B00E4F52AF529F528F527F52B782C7C00FDC5
:10198B007BFF7A1779ECFE7F06120643E526245877
:10199B00F533E433F532E533F4F534752C588526FD
:1019AB002DE4F52EF52FF530F531FB7A00792C125D
:1019BB0021ED7BFF7A1679D07538008526391220F8
:1019CB003AE4F52B7BFF7A167965740A252BF8E63A
:1019DB00753800F53912203A052BE52BC3940640D8
:1019EB00E37BFF7A16797412203AE5262458FFE43C
:1019FB0033FE7C00EF250CFFEC3EFEEF250DFFECDC
:101A0B003EFEEF250EF533EC3EF532E533F4F534BF
:101A1B00650F706EAF0DFDFE7808120707C004C08E
:101A2B0005C006C007AF0CE4FCFDFE7810120707DB
:101A3B00D003D002D001D000EF4BFBEE4AFAED49B8
:101A4B00F9EC48F8EB450EF52AEAF529E9F528E813
:101A5B00F5277E007F067D007B007A00790A12084D
:101A6B0035E5285480FDED6010E52AF52AE529F5CA
:101A7B0029E528F52874FFF527AF2AAE29AD28AC48
:101A8B0027227E007F067D007B007A00790A1208F0
:061A9B0035E4FFFEFDFC36
:011AA1002222
:021B7D008F26B1
:101B7F00E4F52AF529F528F527F52B782C7C00FDBF
:101B8F007BFF7A1779F2FE7F06120643E52624586B
:101B9F00FFE433FEEFF4FD752C5885262DE4F52E6A
:101BAF00F52FF530F531FB7A00792C1221EDE52672
:101BBF002458FFE433FE7C00EF250CFFEC3EFEEFD4
:101BCF00250DFFEC3EFEEF250EFFEC3EEFF4650F0B
:101BDF007056AF0DFDFE7808120707C004C005C090
:101BEF0006C007AF0CE4FCFDFE7810120707D00308
:101BFF00D002D001D000EF4BFBEE4AFAED49F9ECE1
:101C0F0048F8EB450EF52AEAF529E9F528E8F52716
:101C1F007E007F067D007B007A00790A120835AFBF
:101C2F002AAE29AD28AC27227E007F067D007B00DF
:0C1C3F007A00790A120835E4FFFEFDFC73
:011C4B002276
:1023F400AB07AA06122483C3EF9BFFEE9AFEC3EF3A
:0C2404009DEE9C40047F0180027F0022BE
:101F160078227C007D007BFF7A1779F87E007F03AC
:101F260012064378257C007D007BFF7A1779FB7EBD
:101F3600007F0312064378287C007D007BFF7A171A
:101F460079FE7E007F031206437B007A0079257FA7
:101F56001A121E1B7B007A0079287F1C121E1B7B1F
:101F6600007A0079227F18121E1B7BFF7A1679E60B
:031F760002203A0C
:101801007F04121B7D90006812079E7525E17524E7
:1018110008752384752238900068E0FCA3E0FDA3DD
:10182100E0FEA3E0FFE4120349AB25AA24A923A803
:101831002212013690006E12079E7BFF7A1679F410
:1018410090006EE0FCA3E0FDA3E0FEA3E0F53B8E7B
:101851003A8D398C3812203A7F03121B7D90005843
:1018610012079E7525C575249175238575223690BD
:101871000058E0FCA3E0FDA3E0FEA3E0FFE41203B7
:1018810049AB25AA24A923A822120136900072127D
:10189100079E7BFF7A177904900072E0FCA3E0FDBC
:1018A100A3E0FEA3E0F53B8E3A8D398C3812203A45
:1018B1007F177EB77DD17C38900072E0F8A3E0F904
:1018C100A3E0FAA3E0FB1202DC50159000761207A8
:1018D100AA0000000090007A1207AA00000000226E
:1018E1007F0612197990006212079E75256775248B
:1018F100417523D275223A900062E0FCA3E0FDA37A
:10190100E0FEA3E0FFEC120349AB25AA24A923A81A
:101911002212013690007612079EE4FFFEFDFC9034
:101921000076E0F8A3E0F9A3E0FAA3E0FB1202DC01
:10193100401D7F007E407D1C7C46900076E0F8A330
:10194100E0F9A3E0FAA3E0FB1202DC600C400A908C
:1019510000761207AA000000007BFF7A1779149025
:101961000076E0FCA3E0FDA3E0FEA3E0F53B8E3AA8
:071971008D398C3812203A79
:01197800224C
:101E9C00900076E0FCA3E0FDA3E0FEA3E0FFAB1016
:101EAC00AA11A91290000512074A90000512071AF0
:101EBC0090000D12074A900072E0FCA3E0FDA3E035
:101ECC00FEA3E0FF90000912074A90000912071ABE
:101EDC0090001112074A90006EE0FCA3E0FDA3E015
:101EEC00FEA3E0FF90000112074A122199AB10AA41
:101EFC0011A91290000D12071A8F3B8E3A8D398C56
:0A1F0C00387BFF7A17792A02203A89
:100D8400900072E0FCA3E0FDA3E0FEA3E0FF90006E
:100D94006EE0F8A3E0F9A3E0FAA3E0FB120136A8A1
:100DA40004A905AA06AB07900076E0FCA3E0FDA326
:100DB400E0FEA3E0FF12023F90007A12079EAB1000
:100DC400AA11A91290000112076E90006EE0FCA314
:100DD400E0FDA3E0FEA3E0FF120041AB10AA11A9BD
:100DE4001290000112076E12023FE4FBFA79C878F0
:100DF40042120136E4FBFA794078401202DC4003E7
:100E0400020F647F157EE57DD27C3A90006EE0F897
:100E1400A3E0F9A3E0FAA3E0FB12013690006EE030
:100E2400F8A3E0F9A3E0FAA3E0FB120136C004C082
:100E340005C006C0077F647ECC7D5D7C3E90006E5D
:100E4400E0F8A3E0F9A3E0FAA3E0FB120136A8045A
:100E5400A905AA06AB07D007D006D005D004120016
:100E6400417BD97ABD798A7842120045E4FBFA794C
:100E74007A784412023FAB10AA11A9129000091209
:100E8400074A90000912071A90001112074A7FB40A
:100E94007EA57D337C3A90006EE0F8A3E0F9A3E0F0
:100EA400FAA3E0FB12013690006EE0F8A3E0F9A388
:100EB400E0FAA3E0FB120136C004C005C006C00777
:100EC4007F607E1F7DDD7C3D90006EE0F8A3E0F93D
:100ED400A3E0FAA3E0FB120136A804A905AA06AB15
:100EE40007D007D006D005D0041200417B037A094D
:100EF400792D7841120045AB10AA11A91290000572
:100F040012074A90000512071A90000D12074A9022
:100F1400006EE0FCA3E0FDA3E0FEA3E0FF9000016F
:100F240012074A122199AB10AA11A91290001112AA
:100F3400071A8F3B8E3A8D398C387BFF7A177942AA
:100F440012203AAB10AA11A91290000D12071A8FA1
:100F54003B8E3A8D398C387BFF7A17795402203ACC
:100F6400AB10AA11A91290000112071A90006EE0AA
:100F7400F8A3E0F9A3E0FAA3E0FB120041AB10AA46
:100F840011A91290000112076E12023FE4FBFA79D4
:100F9400C87842120136E4FBFA794078401202DC48
:100FA40040030211067F157EE57DD27C3A90006EE7
:100FB400E0F8A3E0F9A3E0FAA3E0FB120136900005
:100FC4006EE0F8A3E0F9A3E0FAA3E0FB120136C057
:100FD40004C005C006C0077F647ECC7D5D7C3E9066
:100FE400006EE0F8A3E0F9A3E0FAA3E0FB120136F7
:100FF400A804A905AA06AB07D007D006D005D004DB
:101004001200417BD97ABD798A7842120045E4FB0B
:10101400FA797A784412023FAB10AA11A91290000F
:101024000912074A90000912071A90001112074A80
:101034007FB47EA57D337C3A90006EE0F8A3E0F99E
:10104400A3E0FAA3E0FB12013690006EE0F8A3E0FF
:10105400F9A3E0FAA3E0FB120136C004C005C00600
:10106400C0077F607E1F7DDD7C3D90006EE0F8A3AD
:10107400E0F9A3E0FAA3E0FB120136A804A905AA4B
:1010840006AB07D007D006D005D0041200417B037D
:101094007A09792D7841120045AB10AA11A9129052
:1010A400000512074A90000512071A90000D120756
:1010B4004A90006EE0FCA3E0FDA3E0FEA3E0FF90F5
:1010C400000112074A122199AB10AA11A91290002B
:1010D4001112071A8F3B8E3A8D398C387BFF7A17A1
:1010E400796712203AAB10AA11A91290000D1207C9
:1010F4001A8F3B8E3A8D398C387BFF7A17797B12A5
:03110400203A226C
:1013B800E4FFFE7DC87C4290006EE0F8A3E0F9A34C
:1013C800E0FAA3E0FB1202DC60025003021647E4D5
:1013D800FFFE7DA07C40900076E0F8A3E0F9A3E052
:1013E800FAA3E0FB1202DC60025003021647AB10BE
:1013F800AA11A91290000512071AE4FBFAF9F812CB
:1014080002DC4003021647900082E0FEA3E0FFE4FE
:10141800FCFD7BFA7AFFF9F81206F15007E4900018
:1014280082F0A3F0AB10AA11A9129000151206823F
:10143800600302163790000512071AE4FBFAF9F860
:101448001202DC400302163790007FE070339000F0
:1014580082E0FEA3E0FF7DC47C091223F4EF700351
:1014680002165B900085E0FFA3E0900082CFF0A316
:10147800EFF090007F7401F07BFF7A1779900220DB
:011488003A29
:10148900E4F525F524F523F522120D84AB10AA11F4
:10149900A91290000512071A900076E0F8A3E0F966
:1014A900A3E0FAA3E0FB1202DC6002500302157A02
:1014B900AB10AA11A91290000912071A900072E044
:1014C900F8A3E0F9A3E0FAA3E0FB1202DC604040D4
:1014D9003EAB10AA11A91290000512076E90007672
:1014E900E0FCA3E0FDA3E0FEA3E0FF120041AB1086
:1014F900AA11A91290000D12076E12023FE4FBFA1D
:1015090079C878421201368F258E248D238C22AB1F
:1015190010AA11A91290000D12071A900076E0F88E
:10152900A3E0F9A3E0FAA3E0FB1202DC6002500396
:101539000215EBAB10AA11A91290001112071A900B
:101549000072E0F8A3E0F9A3E0FAA3E0FB1202DCE1
:10155900600250030215EBAB10AA11A91290000DFD
:1015690012071A90000512074A90001112071A80F3
:101579006BAB10AA11A91290000512071A900076F8
:10158900E0F8A3E0F9A3E0FAA3E0FB120041AB10F5
:10159900AA11A91290000512076E12023FE4FBFA84
:1015A90079C87842120136E4FBFAF978401202DC74
:1015B9006030402E900076E0FCA3E0FDA3E0FEA39E
:1015C900E0FFAB10AA11A91290000512074A90007A
:1015D90072E0FCA3E0FDA3E0FEA3E0FF9000091286
:1015E900074AE4FFFE7D207C41AB25AA24A923A854
:1015F900221202DC405CAB10AA11A91290001574EA
:10160900011206C17BFF7A1779A585253B85243A06
:1016190085233985223812203A7BFF7A1779B5124A
:0D162900203AC2A2D2F91224838E138F142E
:1016360022900085E0FFA3E0900082CFF0A3EFF0B8
:1016460022900085E0FFA3E0900082CFF0A3EFF0A8
:06165600E490007FF02289
:10242900D2A21223157FE87E031223BAE490007E1C
:02243900F0228F
:101CEF00122483900085EEF0A3EFF0900080E07057
:101CFF0034121AA2121F16122483900060EEF0A362
:101D0F00EFF09000807401F0AB10AA11A9129000AF
:101D1F000D12071A8F3B8E3A8D398C387BFF7A174D
:101D2F0079CC12203A12110790007EE0704E90008D
:101D3F0060E0FEA3E0FF7DF47C011223F4EF602747
:101D4F001218011213B8122483900060EEF0A3EF63
:101D5F00F0E4FCFD7BFA7AFFF9F8D31206F1500795
:101D6F00E4900060F0A3F0AB10AA11A91290001537
:101D7F00120682B4010302245402245E1224682244
:10003E000203BCE86480F8E933E83360110460F031
:10004E00ED33EC337009E8FCE9FDEAFEEBFF220428
:10005E0060DED3EB9FEA9EE99DE8C2E78CF0C2F723
:10006E0095F0400CE8CCF8E9CDF9EACEFAEBCFFBEF
:10007E0012038785D0F05804700320D5B3E80470BE
:10008E00075002B2D50203C692D5EC0460F7E4CC59
:10009E00C0E0C398F8603B94186008400DD0E0FBB8
:1000AE0002039EE4FBFAC9FC8028E830E406E4C9AA
:1000BE00FBE4CAFCE830E305E4C9CACBFCE854070C
:1000CE006010F8C3E913F9EA13FAEB13FBEC13FC17
:1000DE00D8F130F52FC3E49CFCEF9BFFEE9AFEEDBA
:1000EE0099FDD0E0FBEF4E4D4C701222DB03020364
:1000FE00C3EC2CFCEF33FFEE33FEED33FDED30E7BA
:10010E00EB02039EEF2BFFEE3AFEED39FDD0E0FB46
:10011E0050130BBB00030203C6ED13FDEE13FEEFEF
:08012E0013FFEC13FC02039E19
:10013600EC4D6011E8497017ED33EC3304600DE4C3
:10014600FCFFFEFD22E933E8330470F80203BC121B
:10015600038758046009E4CC24815006285009021C
:1001660003C62840030203C3C0E0EB4A7044B980CB
:1001760006D0E0FB0203B2EF4E701CBD8008EBFF19
:10018600EAFEE9FD80EBE98DF0A4FEE5F002021F30
:10019600E9CDF9EAFEEBFFEF89F0A4FCE5F0CE89A4
:1001A600F0A42EFFE435F0CD89F0A42DFEE435F061
:1001B6008067EF4E7005BD80D780C3EF8BF0A4AC8F
:1001C600F0EE8BF0A42CFCE435F0F8EF8AF0A42CCA
:1001D600E5F038FCE433CB8DF0A42CFCE5F03BF8DD
:1001E600EE8AF0A42CFCE5F038F8E433CF89F0A4CD
:1001F6002CFCE5F038CF3400CE89F0A42FFFE5F0D3
:100206003EFEE433C98DF0A42EFEE5F039CD8AF02A
:10021600A42FFFE5F03EFEE43DFD33D0E0FB5007A2
:100226000BBB000F0203C6EC2CFCEF33FFEE33FED4
:06023600ED33FD02039E02
:10023C000203C6EC5D046005E8590470030203BCBC
:10024C00120387580460F6EC4860F2EC7004FDFE73
:10025C00FF22C860DB2481C85009C3986002500695
:10026C000203C39850CAF582E9294B4A7005AB8248
:10027C000203B275F0007C1A7880C3EF9BEE9AED06
:10028C0099400DC3EF9BFFEE9AFEED99FDE842F00D
:10029C00DC23ACF0D0E0FFD0E0FED0E0FDAB822060
:1002AC00E7101BEB60BAEC2CFCEF33FFEE33FEEDEA
:1002BC0033FD02039EE803F830E705C0F075F0004B
:1002CC00EF2FFFEE33FEED33FD40B830E7C280AACE
:1002DC0074F8CC6480CCC86480C8F582046043C3D5
:1002EC00EB9FF5F0EA9E42F0E99D42F0E89C45F068
:1002FC0060305018E5825FFFE582F42B5582FB508D
:10030C00210ABA001D09B90019088016E5825BFBA9
:10031C00E582F42F5582FF50090EBE00050DBD007D
:10032C00010CC3EB9FF5F0EA9E42F0E99D42F0E828
:0D033C009C45F06007CC4820E701B3EC229F
:1003490075F020800E75F010800575F0087D007E2F
:10035900007F003392D530D5031206E3EC33401009
:10036900EF33FFEE33FEED33FDEC33FCD5F0ED2238
:0E037900E5F0247EA2D513CC92E7CDCEFF2274
:10216B00854D56854E57854F58EBC550FBEAC551EB
:10217B00FAE9C552F97F097859120669F60809E997
:0E218B0070010ADFF4AB50AA51A9520209718B
:10038700E9D2E7C933E833F892D5EDD2E7CD33ECBC
:0703970033FC5002B2D52235
:10039E00EC30E7100FBF000C0EBE00080DBD0004C0
:1003AE000BEB6014A2D5EB13FCED92E7FD2274FF6C
:1003BE00FCFDFEFF22E480F8A2D574FF13FC7D80C5
:0303CE00E480EFD9
:10091500E56A2456F8E6056A2278533007027856C8
:10092500E475F0011207FF0206692000EB7F2ED265
:10093500008018EF540F2490D43440D4FF30040BBA
:10094500EF24BFB41A0050032461FFE56B60021564
:100955006B056EE56E7002056D30070D7853E47515
:10096500F0011207FFEF0206AF02223D7403D20722
:100975008003E4C207F56A8B538A548955E4F56B05
:10098500F56DF56EE56B60077F2012095080F575F2
:100995006CFFC201C200C202C203C205C206C20880
:1009A50012091EFF700D3007057F00120961AF6E39
:1009B500AE6D22B4255FC2D5C20412091EFF24D034
:1009C500B40A00501A75F00A786B30D50508B6FFE1
:1009D5000106C6A426F620D5047002D20380D924C8
:1009E500CFB41A00EF5004C2E5D204020C4ED20176
:1009F50080C6D20080C0D20280BCD2D580BAD205D2
:100A050080B47F201209502002077401B56B0040A5
:100A1500F1120915FF120950020989D208D2068080
:100A250095120915FB120915FA120915F94A4B70A9
:100A35000679457A0D7BFF20022EE56B602A7E0044
:100A45008E8275830012068260060EEE656C70F06C
:100A5500C2D5EBC0E0EAC0E0E9C0E0EE120CAED0D2
:100A6500E0F9D0E0FAD0E0FB120669FF60AAEBC01E
:100A7500E0EAC0E0E9C0E0120950D0E02401F9D075
:100A8500E03400FAD0E0FBE56C0460DCD56CD9807D
:100A950087D20280A2120C9160F7E56C70010412F6
:100AA50003D1A96C600DE56C600914F56C120D3865
:100AB500EF60F3EA30E702F404C3995077EAF425CE
:100AC5006C0430E701E404F56C800D120C9160C1F3
:100AD500EA056C256C1203D1EA7869F630E701E482
:100AE500256C04D56C0420050114120CAEE4C0E09D
:100AF500120D387869E6601320E70714F6120938F5
:100B0500802204F6D0E014C0E07F00120938E56CBD
:100B1500600712092F156C800B30050312092FD0C1
:100B2500E0020989D0E00480C5120C9160A0E56C53
:100B3500041203D17869EAF6E56C20050260010428
:050B45002404120CAEB7
:100B4A0074FF04C0E0120D38120938E56C20050262
:100B5A00600312092FD0E0B56CE87F45120942788C
:100B6A0069E67F2B30E7047F2DF404C0E0120950B8
:100B7A00D0E075F00A84C0F0120939D0E0120939C0
:100B8A00020989791080027908C206C2088008D24F
:100B9A00D5790A8004790AC2D5E56C047002F56C2D
:100BAA00E4FAFDFEFF120915FC7B08200113120965
:100BBA0015FD7B1030000A120915FE120915FF7B7C
:100BCA0020EC3382D592D55013C3E43000069FFF40
:100BDA00E49EFEE42001039DFDE49CFCE4CBF8C204
:100BEA0001EC700CCFCECDCCE824F8F870F3801766
:100BFA00C3EF33FFEE33FEED33FDEC33FCEB33FB97
:100C0A00994002FB0FD8E9EB300105F8D0E0C4485F
:100C1A00B201C0E00AEC4D4E4F78207B0070C2EA68
:100C2A00B56C0040BCC0E0120CB0D0F0D0E020019E
:100C3A0004C4C0E0C4B201C0F0120939D0F0D5F042
:100C4A00EB02098912080F0A26530B8D5809F74C33
:100C5A0009F3420B914F0B99440B99490A0C430B28
:100C6A009F550AD0460B2E450A9A470D655009FB37
:100C7A002D09FF2E0A222B0A03230A20200D4E2AB1
:100C8A0009BB4800000A1AE56CB4FF03756C06122A
:100C9A000915FC120915FD120915FE120915FF782E
:100CAA0062020400790AA2D5200314300509B9109A
:100CBA00020404B9080104A2D52006025001042046
:100CCA0002689202B56B005034C0E07F20300319ED
:100CDA007F30A20272067205500F120D07C202C2BD
:100CEA0006C205C2087F30800F300503E9C0E01252
:100CFA000950300503D0E0F9D0E0B56BCC300517C8
:100D0A007F30B9100C1209507F583004077F788061
:100D1A0003B908031209503002057F2D0209507FDA
:100D2A00202008F87F2B2006F322920280CF7F0032
:100D3A00B4070050052462F8E6FF22286E756C6C31
:100D4A002900D2011209153001F8C201786B30D599
:100D5A000108F60209BB2D5043495812091524030C
:100D6A00B405004001E4900D6093120941743A12EF
:0A0D7A000941D203756B04020B8DD2
:1003D100F920E72824F950037907E4F42402FB18F3
:1003E100DBFDE624FB5014E9600DE4F618E604F6A3
:0F03F100B40A08E4F6D9F57401F60A22C2D5223F
:10040000ED33EC3392D5FA602AB4FF33EDC2E77BCB
:10041000FF60067A047925E4227A04792E20D50437
:100420007A047929224E614E002B494E46002D490F
:100430004E4600E47A08F608DAFC7B00740722E8EE
:10044000C0E0ECC0E0EDC0E0EEC0E0EFC0E0EA7577
:10045000F010A4CAABF075F04DA42BFBE435F0FC12
:10046000EA2410FAEB34C5FBEC34D9FCEDC2E7FF0B
:1004700075F056A4F42411C5F0F434C58FF0A42A05
:10048000E5F03BE43CF620E714120533D0E0FFD062
:10049000E0FED0E0FDD0E0FC12023F8014F4041234
:1004A0000533D0E0FFD0E0FED0E0FDD0E0FC12014B
:1004B00036D0E0F8E6FAEDD2E7CD33EC332482FB18
:1004C000E4C3CF33CFCE33CECD33CD33DBF37B0795
:1004D00075F00A846004F6081B0AE5F0F6088FF050
:1004E000740AA4FFACF08EF0740AA42CFEACF05099
:1004F000010C8DF0740AA42CFDE435F0F608DBDE67
:030500007407225B
:100503003F8000004120000042C80000447A000000
:10051300461C400047C35000497424004B18968082
:100523004CBEBC205A0E1BCA6753C21C749DC5AE79
:10053300FB60065407601C2323120561EB543860EB
:100543000912054D12055C120136ECF8EDF9EEFACD
:10055300EFCB22EB12055C80F1543803241C900589
:1005630003FE93FC0EEE93FD0EEE930ECE93FF224D
:03000000021D8F4F
:0C1D8F00787FE4F6D8FD75816E021DD649
:10057300E709F608DFFA8046E709F208DFFA803E6A
:1005830088828C83E709F0A3DFFA8032E309F60857
:10059300DFFA8078E309F208DFFA807088828C83BF
:1005A300E309F0A3DFFA806489828A83E0A3F60873
:1005B300DFFA805889828A83E0A3F208DFFA804C4D
:1005C30080D280FA80C680D4806980F28033801024
:1005D30080A680EA809A80A880DA80E280CA80338D
:1005E30089828A83ECFAE493A3C8C582C8CCC58305
:1005F300CCF0A3C8C582C8CCC583CCDFE9DEE780D5
:100603000D89828A83E493A3F608DFF9ECFAA9F053
:10061300EDFB2289828A83ECFAE0A3C8C582C8CCA9
:10062300C583CCF0A3C8C582C8CCC583CCDFEADEC2
:10063300E880DB89828A83E493A3F208DFF980CC24
:1006430088F0EF60010E4E60C388F0ED2402B4041D
:100653000050B9F582EB2402B4040050AF232345C4
:0606630082239005C37321
:10066900BB010689828A83E0225002E722BBFE028F
:09067900E32289828A83E49322C2
:10068200BB010CE58229F582E5833AF583E022502D
:1006920006E92582F8E622BBFE06E92582F8E22277
:0D06A200E58229F582E5833AF583E4932291
:1006AF00BB010689828A83F0225002F722BBFE012A
:0206BF00F32224
:1006C100F8BB010DE58229F582E5833AF583E8F06F
:1006D100225006E92582C8F622BBFE05E92582C81B
:0206E100F22203
:0E06E300C3E49FFFE49EFEE49DFDE49CFC2228
:1006F100EB9FF5F0EA9E42F0E99D42F0EC6480C880
:0607010064809845F0221F
:10070700E8600FEFC333FFEE33FEED33FDEC33FC50
:03071700D8F122F4
:10071A00BB010DE58229F582E5833AF58302086D6E
:10072A005007E92582F8020861BBFE07E92582F82D
:10073A00020879E58229F582E5833AF5830208857C
:10074A00BB010DE58229F582E5833AF58302079E0E
:10075A005007E92582F80208CBBBFE07E92582F893
:04076A000208D72288
:10076E00BB010DE58229F582E5833AF5830208A2E5
:10077E005007E92582F8020895BBFE07E92582F8A5
:10078E000208AEE58229F582E5833AF5830208BBBD
:0C079E00ECF0A3EDF0A3EEF0A3EFF022CE
:1007AA00A8828583F0D083D0821207C11207C112B2
:1007BA0007C11207C1E473E493A3C583C5F0C583D7
:1007CA00C8C582C8F0A3C583C5F0C583C8C582C899
:0107DA0022FC
:1007DB00BB010DE58229F582E5833AF5830207AA71
:1007EB005007E92582F80208E3BBFE07E92582F8EA
:0407FB000208FC22D2
:1007FF00FAE6FB0808E6F925F0F618E6CA3AF622FB
:10080F00D083D082F8E4937012740193700DA3A378
:10081F0093F8740193F5828883E47374029368608C
:06082F00EFA3A3A380DF8C
:10223D00EFB40A07740D122248740A309811A89948
:10224D00B8130CC2983098FDA899C298B811F63001
:07225D0099FDC299F59922D9
:10083500EF4E6012EF60010EEDBB010B89828A83DA
:10084500F0A3DFFCDEFA2289F05007F709DFFCA9E7
:0C085500F022BBFEFCF309DFFCA9F0223E
:101D9B0002239AE493A3F8E493A34003F68001F2A1
:101DAB0008DFF48029E493A3F85407240CC8C33349
:101DBB00C4540F4420C8834004F456800146F6DF18
:101DCB00E4800B0102040810204080901C4CE47E40
:101DDB00019360BCA3FF543F30E509541FFEE4930D
:101DEB00A360010ECF54C025E060A840B8E493A3D4
:101DFB00FAE493A3F8E493A3C8C582C8CAC583CAFF
:101E0B00F0A3C8C582C8CAC583CADFE9DEE780BEB6
:011CEE0000F5
:0C086100E6FC08E6FD08E6FE08E6FF22C3
:0C086D00E0FCA3E0FDA3E0FEA3E0FF22FE
:0C087900E2FC08E2FD08E2FE08E2FF22BB
:10088500E493FC740193FD740293FE740393FF22B9
:0D089500E6FB08E6F908E6FA08E6CBF822D3
:0C08A200E0F8A3E0F9A3E0FAA3E0FB22D9
:0D08AE00E2FB08E2F908E2FA08E2CBF822CA
:1008BB00E493F8740193F9740293FA740393FB2293
:0C08CB00ECF608EDF608EEF608EFF62259
:0C08D700ECF208EDF208EEF208EFF2225D
:1008E300D083D082E493F608740193F608740293DC
:0908F300F608740393F674047313
:1008FC00D083D082E493F208740193F208740293CB
:09090C00F208740393F274047301
:00000001FF
